:020000040800F2
:10000000100B00208901000833110008C90A0008FC
:10001000311100088F02000875150008000000006B
:100020000000000000000000000000000F150008A4
:1000300091020008000000000D15000811150008CD
:10004000A3010008A3010008A3010008A301000800
:10005000A3010008A3010008A301000893020008FF
:10006000A3010008A3010008A3010008A3010008E0
:10007000A3010008A3010008A3010008A3010008D0
:10008000A3010008A3010008A3010008A3010008C0
:10009000A3010008A3010008A3010008A3010008B0
:1000A000A3010008A3010008A3010008A3010008A0
:1000B000A3010008A3010008A3010008A301000890
:1000C000A3010008A3010008A3010008A301000880
:1000D000A3010008A3010008A3010008A301000870
:1000E000A3010008A3010008A301000800F002F822
:1000F00000F03AF80AA090E8000C82448344AAF188
:100100000107DA4501D100F02FF8AFF2090EBAE885
:100110000F0013F0010F18BFFB1A43F0010318473B
:10012000583F0000783F0000103A24BF78C878C1DB
:10013000FAD8520724BF30C830C144BF04680C60ED
:10014000704700000023002400250026103A28BF35
:1001500078C1FBD8520728BF30C148BF0B60704739
:100160001FB51FBD10B510BD00F05CF81146FFF7BC
:10017000F7FF01F011FA00F07AF803B4FFF7F2FF8D
:1001800003BC00F07DF8000009488047094800479B
:10019000FEE7FEE7FEE7FEE7FEE7FEE7FEE7FEE737
:1001A000FEE7FEE704480549054A064B7047000094
:1001B00073150008ED00000810050020100B00204A
:1001C00010070020100700204FF0000200B5134672
:1001D00094469646203922BFA0E80C50A0E80C5067
:1001E000B1F12001BFF4F7AF090728BFA0E80C5018
:1001F00048BF0CC05DF804EB890028BF40F8042B11
:1002000008BF704748BF20F8022B11F0804F18BF7D
:1002100000F8012B704770477047704700487047DF
:10022000B00400207546FFF7F9FFAE4605006946A9
:10023000534620F00700854618B020B5FFF7B2FFFF
:10024000BDE820404FF000064FF000074FF00008D7
:100250004FF0000B21F00701AC46ACE8C009ACE858
:10026000C009ACE8C009ACE8C0098D46704710B5BC
:100270000446AFF300802046BDE81040FFF77DBF85
:1002800001491820ABBEFEE7260002007047FEE7DA
:100290007047022000F014B870B5044600F016F95B
:1002A0000546601C02D004480078044400F00EF9B2
:1002B000401BA042FAD370BD000000207047000030
:1002C000044910B50A68024202D00860FFF7F6FF41
:1002D00010BD0000140401402DE9F84FDFF8B8917B
:1002E0000024A9F1040B23460F2709F1040AABF1FE
:1002F000040EC9E00125A5402A40AA427DD1674EDF
:10030000D1F804C0ACEB0608B44532D014DCBCF123
:10031000030F3AD009DCBCF1000F2AD0BCF1010F69
:100320001CD0BCF1020F31D11DE0BCF1110F17D070
:10033000BCF1120F2AD119E0B8F5881F19D006DCDC
:10034000B8F5803F15D0B8F5801F1FD111E0B8F582
:10035000001F0ED0B8F5041F18D10AE0CB6815E0D5
:10036000CB681B1D12E0CB6808330FE0CB680C3361
:100370000CE08B682BB1012B4FF0080303D04561D3
:1003800004E0042302E0056100E00023FF2A01D815
:10039000064601E000F104064FEA840501D9A5F103
:1003A0002005D6F8008007FA05FC28EA0C0803FAB5
:1003B00005F548EA0508C6F800804D68ED0062D5ED
:1003C000374DAE6946F00106AE61AD6924F0030613
:1003D00005F001050095334D06EB050CDCF80850DF
:1003E000A607360F07FA06F825EA0805DFF8B880F1
:1003F000404503D14FF0000817E044E0DFF8AC803F
:10040000404502D14FF001080FE0DFF8A4804045DD
:1004100002D14FF0020808E0DFF89880404502D191
:100420004FF0030801E04FF0040808FA06F848EA24
:100430000508CCF808804D68D9F80060ED024D46FB
:1004400001D5164300E096432E604D68DAF800604F
:10045000AD02554601D5164300E096432E604D6827
:10046000DBF80060AD035D4601D5164300E096431E
:100470002E604D68DEF80060ED03754601D5164329
:1004800000E096432E60641C0D682A46E5407FF428
:1004900031AFBDE8F88F00000804014000001110E2
:1004A000001002400000014000080140000C014023
:1004B00000100140001401408068084000D0012075
:1004C00070470AB1016170470904FBE70148806881
:1004D0007047000000000020024881680278114443
:1004E0008160704700000020074810B5016841F0A6
:1004F00010010160032000F075F80F2000F006F8ED
:1005000000F024F8002010BD0020024070B50D4D11
:1005100004464FF47A712878B1FBF0F00A49096873
:10052000B1FBF0F000F0BCFA48B9102C07D2002261
:100530002146501E00F036F800206C6070BD01208E
:1005400070BD0000000000200C0000200C4808B521
:10055000816941F001018161816901F0010100912E
:10056000C16941F08051C161C06900F080500090C4
:100570000448416821F0E06141F00071416008BD2C
:100580000010024000000140002809DB00F01F02BB
:10059000012191404009800000F1E020C0F80011E5
:1005A00070470000F0B40E4B1B680C46C3F30223E7
:1005B000C3F10705042D00D90425191D072901D20F
:1005C000002300E0DB1E012606FA05F1491E21404A
:1005D00099409E40761E16403143F0BC00F0CBBFE0
:1005E0000CED00E0064900F0070208684FF6FF0333
:1005F000184040EA0220034A104308607047000098
:100600000CED00E00000FA052DE9F0470F4605006B
:1006100061D0434E306800F00700B84209D230681C
:1006200020F0070038433060306800F00700B8421F
:1006300051D128683B4C810712D5400703D560682B
:1006400040F4E06060602878000703D5606840F4FB
:10065000605060606068A96820F0F0000843606046
:100660002878C00728D06868012810D0216802289F
:1006700010D0890700292EDA616821F003010143B7
:100680006160FFF723FF804641F288390DE0216861
:100690008903EFE78901EDE7FFF718FFA0EB0801F9
:1006A000494502D90320BDE8F0876068696800F019
:1006B0000C00B0EB810FEFD1306800F00700B842BA
:1006C0000BD9306820F0070038433060306800F004
:1006D0000700B84201D00120E5E72878400705D59A
:1006E0006068E96820F4E0600843606028780007EB
:1006F00006D56068296920F4605040EAC100606056
:1007000000F018F86168084AC1F30311515CC84051
:100710000649086006480068FFF7F8FE0020C2E7B7
:100720000020024000100240562200080C00002069
:10073000040000200E4A51680E4801F00C03042BFF
:1007400011D0082B0FD10C48C1F38343C903C05CFF
:100750000AD55168084AC1F34041921E515C054ACE
:100760005043B0FBF1F07047044948437047000024
:100770000010024000127A004622000800093D00E5
:100780002DE9F84F040070D02078C04DC00749D043
:100790006868C0F38100012807D06868C0F3810051
:1007A000022809D16868C00306D52868800339D5B6
:1007B00060680028E7D035E06068B0F5803F0BD076
:1007C00010B1B0F5A02F11D0286820F48030286037
:1007D000286820F4802002E0286840F480302860F7
:1007E000606890B1FFF772FE06460AE0286840F4A0
:1007F00080202860F0E700BFFFF768FE801B6428B8
:1008000073D828688003F7D50CE0FFF75FFE064633
:1008100005E000BFFFF75AFE801B6428F0D8286867
:100820008003F7D420789A4E80074FF001094FF0EB
:10083000000839D5686810F00C0F07D06868C0F35D
:100840008100022809D16868C00306D4286880079F
:1008500014D52069012808D110E02069B0B1C6F88C
:100860000090FFF733FE074605E00AE1FFF72EFE92
:10087000C01B0228C4D828688007F7D5286861699A
:1008800020F0F80040EAC10028600DE0C6F80080C2
:10089000FFF71CFE074604E0FFF718FEC01B022806
:1008A00023D828688007F7D4207800072CD579480A
:1008B000A169D9B1C0F80090FFF708FE074604E02F
:1008C000FFF704FEC01B02280FD8686A8007F7D51F
:1008D00071484FF4FA510068B0FBF1F0009000BF8E
:1008E0000098411E0091FAD20EE080E0C0F800802E
:1008F000FFF7ECFD074604E0FFF7E8FDC01B022808
:1009000075D8686A8007F7D42078400760D5E86911
:100910000027C00008D4E86940F08050E861E86929
:10092000012700F0805000905C480168C90513D48D
:100930000168834641F480710160FFF7C7FD82467C
:1009400006E000BFFFF7C2FDA0EB0A0064284ED806
:10095000DBF80000C005F5D5E06801280AD008B131
:10096000052813D0286A20F001002862286A20F0A8
:10097000040002E0286A40F001002862E06841F2C9
:10098000883B98B1FFF7A2FD82460BE0286A40F051
:1009900004002862EEE700BFFFF798FDA0EB0A0114
:1009A00059455AD8286A8007F6D50CE0FFF78EFD26
:1009B000824605E0FFF78AFDA0EB0A0159454CD8B5
:1009C000286A8007F6D41FB1E86920F08050E861FA
:1009D000E06988B36968C1F38101022944D0022823
:1009E000C6F8608004D0FFF771FD044638E034E0BB
:1009F000FFF76CFD074604E0FFF768FDC01B022807
:100A00002BD828688001F7D4206AB0F5803F05D143
:100A10006868A16820F4003008436860D4E90801E0
:100A20000843696821F4741108436860C6F860904F
:100A3000FFF74CFD044606E025E000BFFFF746FD4A
:100A4000001B022809D828688001F7D51BE000BFE9
:100A5000FFF73CFD001B022802D90320BDE8F88FF8
:100A600028688001F4D40EE00128F7D06868226A73
:100A700000F48031914204D1616A00F47010884220
:100A800001D00120EAE70020E8E700000010024062
:100A900000004242800442420C00002000700040EE
:100AA00010B5401EB0F1807F01D3012010BD4FF082
:100AB000E02460610F21601700F05DFD0020A0615F
:100AC00007202061002010BDFEE700002DE9F05F47
:100AD0000446026842488168551885606168C368A9
:100AE0000B44C3600188491C89B20180192974D361
:100AF000B5FBF1F6B3FBF1F741683A4D8346A2EB43
:100B0000010A4FF07E5842607EB1304601F03CFB56
:100B10008146384601F038FB494601F053FA40451A
:100B200001DD404602E0A84200DA284601F01EFA44
:100B300000222D4B01F026F800222C4B01F020F969
:100B400000F0D6FD0746E06041F28830002586427D
:100B500030D9301A01F018FB254901F033FA41462B
:100B6000DFF890800646884201DD0E4602E04645E9
:100B700000D30026504600F0EDFF00221E4B00F08F
:100B800091FE81468A46304601F0F0F900221B4B67
:100B900000F0F8FF00221A4B00F0DCFD4A465346F5
:100BA00000F0D8FD00F0A4FD1649A060884203DDE6
:100BB000A16004E0A56009E0404500D3A5601248AB
:100BC000874201DDE06002E0474500D3E560CBF8F5
:100BD0000850CBF80C50ABF80050BDE8F09F000077
:100BE000100000209A99993E0000394000805B4037
:100BF000005043470000808000408F400000444088
:100C000000004E40000034430000C84208B50021F7
:100C10000091B1EBC00F01D2491CF9E708BD0000FB
:100C200070B500F0F7F90E4C0122D1022046FFF713
:100C300048FC0220FFF7EAFF0122950229462046E0
:100C4000FFF73FFC0520FFF7E1FF00222946204681
:100C5000FFF737FCBDE870400220FFF7D7BF000068
:100C6000000C014010B5044600F0C8F8AE2000F0BA
:100C700095F800F00BF9204600F090F800F006F926
:100C800000F0BCF8AF2000F089F800F0FFF800F0A9
:100C900055F80446FFF7C4FF00F0D8F8204610BD11
:100CA0002DE9F04715468946044600F0A7F8AE2026
:100CB00000F074F800F0EAF8204600F06FF800F059
:100CC000E5F800F09BF8AF2000F068F800F0DEF8DF
:100CD00000246E1E4FF4006A174F4FF4806824E022
:100CE00000F02CF809F80400B4421ADA00F092F986
:100CF000002251463846FFF7E4FB0220FFF786FF4B
:100D0000012241463846FFF7DCFB0520FFF77EFF56
:100D1000002241463846FFF7D4FB0220FFF776FF5A
:100D200001E0FFF77DFF641CE4B2AC42D8D3BDE81C
:100D3000F04700F08BB80000000C01402DE9F041B5
:100D4000002400F057F9144E00254FF400684FF4CA
:100D500080676006040E012239463046FFF7B1FB7A
:100D60000520FFF753FF41463046FFF7A5FB01285A
:100D700001D144F00104002239463046FFF7A1FBBF
:100D80000220FFF743FF6D1CEDB2082DE1D300F008
:100D900041F92046BDE8F081000C01402DE9F04109
:100DA000054600F037F9144F00244FF400683E1553
:100DB000280601D5012200E0002241463846FFF70F
:100DC00080FB0220FFF722FF012231463846FFF761
:100DD00078FB0520FFF71AFF002231463846FFF75F
:100DE00070FB0220FFF712FF6806641C050EE4B2D8
:100DF000082CDDD3BDE8F081000C014070B500F097
:100E000009F90122104DD40221462846FFF759FB6B
:100E10000122960231462846FFF753FB0520FFF7D3
:100E2000F5FE002221462846FFF74BFB0520FFF781
:100E3000EDFE002231462846FFF743FBBDE8704037
:100E40000520FFF7E3BE0000000C014070B500F084
:100E5000E1F80D4D4FF40064002221462846FFF7CB
:100E600030FB012291022846FFF72BFB0520FFF7FC
:100E7000CDFE012221462846FFF723FBBDE8704046
:100E80000520FFF7C3BE0000000C014070B5002430
:100E900000F0B0F80220FFF7B9FE01220D4D9602D6
:100EA00031462846FFF70DFB0520FFF7AFFEE9149A
:100EB0002846FFF701FB012800D10124002231461A
:100EC0002846FFF7FEFA0220FFF7A0FE00F0A2F886
:100ED000204670BD000C014070B50D460446FFF77A
:100EE0008DFFAE20FFF75AFFFFF7D0FF2046FFF738
:100EF00055FFFFF7CBFF2846FFF750FFFFF7C6FF70
:100F0000BDE87040FFF7A2BF10B500F083F800F015
:100F100066F86420FFF7C0F900210220FFF7DCFF2C
:100F200000210320FFF7D8FF00210420FFF7D4FFA2
:100F300050210820FFF7D0FF43210A20FFF7CCFF04
:100F40006F210C20FFF7C8FF6F210D20FFF7C4FFB2
:100F5000032000F06FF8BDE810406420FFF79CB953
:100F60007CB505460220FFF77DFE04460420FFF70E
:100F700079FE844201D3201A02E0C0F1200020440F
:100F8000C6B2002421E0062269460520FFF788FE4C
:100F90009DF800009DF801108007800B40EA0120B9
:100FA0009DF80210084328609DF803009DF8041086
:100FB0008007800B40EA01209DF805100843686017
:100FC0002846FFF783FD641CE4B2B442DBD3002E55
:100FD00002D12846FFF77AFD7CBDFFF743BE10B56E
:100FE00040210920FFF778FFBDE810406420FFF79B
:100FF00053B900001FB50020019003904FF400602A
:1010000000900120029069460148FFF765F91FBD75
:10101000000C01401FB54FF40060009001200190CA
:1010200002900320039069460148FFF755F91FBD60
:10103000000C014001460920FFF74EBF2DE9F043A7
:1010400085B00020009001900290039033488169A0
:1010500041F010018161816901F010010491816901
:1010600041F020018161816901F0200104918169D1
:1010700041F004018161816901F0040104918169F9
:1010800041F0080181618069254F00F008004FF4AC
:1010900060440490012221463846FFF712FADFF837
:1010A0008480012203214046FFF70BFADFF8789095
:1010B0004FF44066012231464846FFF702FA009499
:1010C00001240325694638460194CDE90245FFF71E
:1010D00003F9CDE9005469464046CDE90245FFF7E2
:1010E000FBF8022000901148CDE90104694648460A
:1010F000FFF7F2F8CDE9006469464846CDE90245BC
:10110000FFF7EAF8002201210720FFF74BFA07203A
:10111000FFF73AFA05B0BDE8F08300000010024086
:101120000010014000080140000C014000002110A7
:10113000FEE7FEE730B40021084B0A465FF00000EE
:1011400003EBC004401CC0B262548028F8D3491C91
:10115000C9B20829F2D330BC00F0A8B83000002092
:1011600030B5CC0801F0070301259D40EBB2064DD8
:1011700005EBC005C808285C0AB1184302E063EA21
:101180000000C043285530BD3000002070B5424DEE
:101190004FF40044002221462846FFF792F9C82068
:1011A000FFF77AF8012221462846FFF78AF9002145
:1011B000AE2000F069F90021084600F065F9002131
:1011C000102000F061F90021402000F05DF90021BD
:1011D000812000F059F90021CF2000F055F90021BD
:1011E000A12000F051F90021C82000F04DF90021A4
:1011F000A62000F049F90021A82000F045F90021BF
:101200003F2000F041F90021D32000F03DF90021FA
:10121000084600F039F90021D52000F035F9002109
:10122000802000F031F90021D92000F02DF90021B3
:10123000F12000F029F90021DA2000F025F9002141
:10124000122000F021F90021DB2000F01DF900211F
:10125000402000F019F90021202000F015F90021AC
:10126000022000F011F900218D2000F00DF900217D
:10127000142000F009F90021A42000F005F9002154
:10128000A62000F001F9FFF755FFBDE870400021EE
:10129000AF2000F0F9B80000001001400246012024
:1012A00000E05043491EC9B2FBD2704770B5114EE1
:1012B000002400BF04F1B000C0B2002100F0E4F847
:1012C0000021084600F0E0F80021102000F0DCF8D2
:1012D0005FF0000506EBC5000121005D00F0D4F8C9
:1012E0006D1CEDB2802DF5D3641CE4B2082CE1D363
:1012F00070BD0000300000202DE9FC4F1C460E465A
:1013000082468B460190082B0DD0600700D001204B
:1013100000EBD40061084843C0B28146203AD0B205
:10132000009000204BE00620F7E7082C13D00C2C8F
:1013300018D0102C1BD0182C44D10098234900EB56
:10134000C00000BF01EB8001002711F80850E8073A
:1013500012D00B9A13E000981D4900EB400001EBFE
:101360004001F1E700981B4900EB4000EAE71A4909
:10137000009801EB0011E7E70B9828B300223146F3
:101380005046FFF7EDFE761C7F1C6D08FFB2F6B2EB
:10139000082FDCD30AF1010000F0FF0A082C0AD064
:1013A0000199AAEB0100B0EB540F04D10BF1080036
:1013B0008A4600F0FF0B08F101005E46C0B280468D
:1013C0004845B2D3BDE8FC8F0122D8E7F22E0008D1
:1013D000662200088E240008022900082DE9F84F33
:1013E0000025DDE90A691F4692468B468046082E95
:1013F00000D1022500241CE0381B401EC1B20A2087
:10140000FFF74CFFBAFBF0F00A21B0FBF1F201FB51
:101410001200CDF8009080B13030C2B205EB560119
:1014200001FB0480C0B233465946FFF765FF641CD8
:10143000E4B2BC42E0D3BDE8F88F05EB560101FBF6
:101440000480C0B233463022EEE72DE9F8411E4653
:10145000154688460446079F0BE033464146204622
:101460000097FFF749FF082E0AD004EB5600C4B2DC
:101470006D1C2A78A2F120005E28EED9BDE8F88123
:10148000A41DE4B2F4E700002DE9F0471D4C054629
:1014900009B1012200E0002201212046FFF711F8E6
:1014A00000220221A0462046FFF70BF8164F002429
:1014B0004FF480494FF40056002231463846FFF77A
:1014C00000F8280601D5012200E0002249463846EE
:1014D000FEF7F7FF012231463846FEF7F2FF6806B5
:1014E000641C050EE4B2082CE6D301220221444616
:1014F0004046FEF7E6FF2046BDE8F04701221146D0
:10150000FEF7DFBF00080140001001407047704740
:10151000FEF7E2BF30B58FB028216846FEF754FED3
:1015200014210AA8FEF750FE01210804CDE900109D
:101530000024029402250491CDE907504FF4E010F5
:1015400009906846FFF71CF908B172B6FEE70F2054
:10155000CDE90A054FF48060CDE90C4002210AA8CC
:101560000E94FFF751F8002801D072B6FEE70FB0D5
:1015700030BD7047FEE70907090E002804DB00F1C3
:10158000E02080F80014704700F00F0000F1E02028
:1015900080F8141D704700001CB5FEF7A5FFFFF78B
:1015A000B9FFFFF74BFDFFF7F1FDFFF7C3FD012486
:1015B0000021082340A208460094FFF746FF0823B5
:1015C00040A2102100200094FFF73FFFFFF76EFEBE
:1015D000FFF79AFC0920FFF700FD0546FFF7AAFD7B
:1015E0000021082339A208460094FFF72EFF0826A1
:1015F000CDE9006402232A4600212820FFF7EEFEF1
:10160000FFF754FE4FF4FA70FEF746FE314DE70542
:101610003048FFF7A5FCFFF78DFD0021082326A227
:1016200008460094FFF711FF08232BA21021002089
:101630000094FFF70AFFA868B8420FDB00F084FDB2
:10164000CDE900640246032310211820FFF7C6FEEF
:101650000823102121A23020009404E0082320A2B6
:10166000102118200094FFF7F0FE08231DA220216E
:1016700000200094FFF7E9FEE868B8420FDB00F0B5
:1016800063FDCDE900640246032320212820FFF7F3
:10169000A5FE0823202115A24020009404E0082381
:1016A0000FA2202128200094FFF7CFFEFFF7FEFDB8
:1016B0006420FEF7F1FDABE74D4158333031303255
:1016C00000000000496E69742E2E2E004D6F646577
:1016D0003A0000002000002048523A0042504D00DD
:1016E0002D2D2D0053704F323A00000025000000D0
:1016F00021F00042A2F16052B2F5801F01F00043D8
:1017000028BFD2F17F6C0BD95FEA001C43EAC2020A
:1017100042EB507018BF704728BF20F0010070479F
:10172000B2F5801FBCBF184670474FEA410C1CF54C
:10173000001F02D2084600F080BD70B500F0CCFA60
:1017400000000089FFF7F6BF4FF00040A0F58000D1
:101750007047000010B591EA030F48BF83F00043C3
:1017600000F12283841A71EB030C05D2121943EBAA
:101770000C03001B61EB0C01DFF824E14FEA11546C
:10178000A4EB135C1EEA430F18BF9EEA445F73D0BC
:1017900023EA0E03DCF1200E21EA045143F4801306
:1017A00032D322FA0CFE10EB0E0023FA0CFE41EBB2
:1017B0000E01CCF1200E03FA0EFE10EB0E0051F1DB
:1017C0000001B1F5801FCCF1200E32D201EB0451A3
:1017D00012FA0EF2BDE8104058BF7047401C38BFE7
:1017E0005FEA420218BF7047002814BF20F00100D2
:1017F00041F100014FEA410313F5001F38BF704764
:10180000A1F1C04100F0B6BA012A43EB0302ACF1EA
:10181000200CDCF11F0E32BF4FF0000E23FA0CF348
:1018200010EB030041EB0451B4EB115FD0D0A1EBFE
:10183000045101F5801149085FEA300001EB0451C1
:101840000ED350F1000038BF12FA0EFE08D1BDE8E9
:101850001040C9E7401C38BF5FEA4202CAD1C3E763
:10186000BDE810404FEA410313F5001F38BF704731
:10187000A1F1C04100F07EBA9EEA445F08D011EAAF
:101880005E0FBDE8104004BF01F00041002070472A
:10189000BDE8104070B500F01FFA00BF64FBBE3E0B
:1018A0000000E0FF2DE9C04130B4DFF8A0C23CEAFF
:1018B000111418BF3CEA131400F0EC8081EA030510
:1018C0001CEA111444EAD57418BF1CEA131500F081
:1018D000C780A4EB05044FF0004545EAC12145EA65
:1018E000C32341EA505143EA525304F17F749942B1
:1018F00004F500344FEAC0204FEAC22208BF9042EC
:1019000000F09C804FEA13650FF24016765D4FEAB7
:10191000134506FB05F7C7F1807706FB07F74FEA8B
:10192000D737A7FB03687642C8F58038A7FB06CEF9
:1019300038BFA8F1010807FB08E64FF0000EA6FB30
:10194000028CE6FB03CEDCF1000CCEF1004E38BF7A
:10195000AEF1010EA6FB0C584FF000074FF000054A
:10196000E6FB0E87A1FB08C6A0FB07CE16EB0E0612
:1019700045F10005E1FB076515F1E04E7EBFA4F5DA
:1019800080345FEA46066D4116F1800745F1000597
:101990004FEA17274FEA066647EA0567A6F1DE46D3
:1019A000B6F1805F4FEA15251FD9384624F0010CA7
:1019B00005EBC471BCF1FE6F01EB0C1102D8F0BC59
:1019C000BDE8008124425CBF01F5801E9EEAC47F11
:1019D00002D4F0BCBDE80081244238D4F0BCA1F1AF
:1019E000C041BDE8004100F0C5B94FEAD22242EA49
:1019F00043524FEAD323A7FB02864FEAD02040EAA6
:101A0000415007FB03661EEA0E0F4FEAD12105FB8A
:101A1000026658BFA6EB0056B6EB00564FEA520ED0
:101A20004EEAC37E18EB0E0E56EB530EBDD518EBE7
:101A300002085E417F1C55F10005B6E74FF48015A2
:101A40004FF000074FF000064FF00008ADE7F0BC84
:101A50004FF0000001F1C04101F00041BDE80081FC
:101A600011EA0C1F0CEA131500D00CE013EA0C1F4E
:101A700000F025804FF00000F0BC81EA030101F086
:101A80000041BDE80081F0BCBDE8004181EA0301EE
:101A900000F070B9F0BCBDE8004170B500F01CF971
:101AA000097EFC3E00F007B881EA03014FF0000018
:101AB00001F00041704781EA030100F05BB9F0BC1E
:101AC000BDE800414FF0000021497047FFFDFBF9E0
:101AD000F7F5F4F2F0EEEDEBE9E8E6E4E3E1E0DE61
:101AE000DDDBDAD8D7D5D4D3D1D0CFCDCCCBCAC8D3
:101AF000C7C6C5C4C2C1C0BFBEBDBCBBBAB9B8B7FA
:101B0000B6B5B4B3B2B1B0AFAEADACABAAA9A8A8EC
:101B1000A7A6A5A4A3A3A2A1A09F9F9E9D9C9C9BBA
:101B20009A99999897979695959493939291919065
:101B30008F8F8E8E8D8C8C8B8B8A898988888787F6
:101B40008685858484838382828181800000FF076B
:101B50000000F87F10F0004248BF4042B0FA80F326
:101B600010FA03F10AD0C3F11D0303F580634FEAB5
:101B7000415002EB035202EBD12170474FF00000BD
:101B800070470000DFF848C170B51CEA111E1EBF87
:101B90001CEA13159EEA0C0F95EA0C0F00F06F80FB
:101BA00081EA030423EA4C134EEAD47E21EA4C1165
:101BB00041F4801143F48013AE44A1FB024CA0FB1E
:101BC0000365AEF17F7E361955EB0C05A1FB034C86
:101BD0004CF10003A0FB021C16EB0C06654153F10F
:101BE0000003094218BF46F0010613F4007F0BD131
:101BF0004FEA03314FEA0530340341EA155140EA18
:101C000016506FF003020AE04FEAC3214FEAC520E5
:101C1000F40241EA555140EA56506FF0020202EBDD
:101C20002E4201EB025585EACE710AD05FEA440CE0
:101C300018BF24F0004450F1000041F1000120EAF7
:101C4000D47040F2FE7C624500D270BDA84214BF41
:101C50004FF080444FF04044002E08BF0024BEF1F6
:101C6000806FA8BFA1F1C041BDE8704080F28280C2
:101C70004FF0000001F1C04101F0004170479EEAC1
:101C80000C0F0CEA131518BF95EA0C0F06D04FF095
:101C9000000081EA030E0EF0004170BD00F01CF858
:101CA0008900013E00F007B800F009B84FEA430C84
:101CB0005FEA5C5C08D081EA030100F05BB84FEAA0
:101CC000410C5FEA5C5CF6D14FF0000001497047BF
:101CD0000000FF070000F87F0EF1020E2EF0030E49
:101CE0005EF8046B364205D4012A43EB030515F573
:101CF000001F12D8012841EB010C1CF5001F0CD865
:101D00000ED14FEAD17C15F5001F0CEB4C0C0CF1F9
:101D1000020C08BF4CEBD37C04E04FF0080C01E050
:101D20004FEAD37C0CEB4C0526FA05F606F00706C5
:101D3000B6F1040C06D20EEB860CBDE870404CF0F8
:101D4000010C6047DFE80CF0090B02024FF0004184
:101D50004FF00000A1F5002170BD19461046012882
:101D600051EB010418BFD4F5001484BF002001F02A
:101D7000004170BD0808A0F500114FEA310170471D
:101D800091EA030F10B581F000413FF5EBAC83F011
:101D9000004300F009B8000010B591EA030F48BFF6
:101DA00083F000433FF5DEAC841A71EB030C07D2DD
:101DB00012198CF0004C43EB0C03001B61EB0C017F
:101DC000DFF8A4E14FEA1154A4EB135C1EEA430FC1
:101DD00018BF9EEA445F00F0B08023EA6E035242CF
:101DE00021EA0451C3EB6E0338BF5B1EDCF1200E09
:101DF00025D322FA0CFE10EB0E0043FA0CFE41EB49
:101E00000E01CCF1200E03FA0EFE10EB0E0051F184
:101E10000001CCF1200E29D412FA0EF201EB04518C
:101E2000BDE8104058BF7047401C1CBFB2F1004FC6
:101E3000704700280CBF491C20F00100704712EBCE
:101E4000020E43EB030218BF4FF0010E4EEA4202AE
:101E5000ACF1200CDCF11E0E54D943FA0CFE10EB51
:101E60000E0051F1FF31CCF11E0ED5D50EF1010E51
:101E700012FA0EFE404141EB010101EB445C5FEAC6
:101E80005C5C10D910EBDE7001EB045138BFBEF181
:101E9000004FBDE8104018BF704700280CBF491C18
:101EA00020F00100704730D24FEAD42C11F5001118
:101EB00024F400641BD0B1FA81F20B3AA41AA41ED8
:101EC000D2F12003914030FA03F31943904001EB23
:101ED000CC71002C01EB0451BDE81040A8BF704745
:101EE00001F1C0414FF0000001F000417047B0FA2D
:101EF00080F310FA03F100D110BDE41A173C480535
:101F0000C90AE4E701EB045110BD491001EB04518B
:101F1000BDE810404FEA300002E04FF0000170478A
:101F20004A0008BF0042F8D0B2F5001F28BF704732
:101F300001F000414FF0000070479EEA445F07D077
:101F400011EA5E0FBDE8104004BF00210020704779
:101F5000BDE8104070B5FFF7BFFE00BF40DFF63EA2
:101F600083F00041104670470000E0FF43004FEA55
:101F7000D30C4FEA3C0C43401FBF40070CF16051AB
:101F800013F0FE4F70471CF0006F03D100200CF0DF
:101F9000004170470CF0004343EA507010B540EA2E
:101FA000CC0000F004F900BF000000924FEA0001ED
:101FB000FFF7E0BE4FF000414FF00000A1F5002117
:101FC000704700004FF47F0C1CEAD0121EBF1CEAC1
:101FD000D11392EA0C0F93EA0C0F00F0858090EA7F
:101FE000010F48BF42F4807240F4000C41F400003D
:101FF0002CF07F4120F07F4000B58142A2EB03022C
:102000000FF2081CACEB504EC0F100009EF800E04F
:102010004FEA4E0E00FB0EFC38BF49004FEA2C1C65
:1020200002F5FA020CFB0EF34FEACE1E4FEA112C1A
:102030004FEAC1210EEB635E42EB22420EFB0CFC29
:102040004FEA1C5300FB03114FEA112C4FEA0131F8
:102050000EFB0CFC4FEADC4C00FB0C11C14228BF0C
:1020600009184CEB03335DF804EB10EB410143EB33
:10207000C250B2F57C0F38BF704729D512F0F00F6F
:102080001CBF00F1C04000F0004070470081828317
:102090008485868788898B8C8D8E8F919293959677
:1020A00097999A9C9D9FA0A2A3A5A7A8AAACAEB001
:1020B000B2B3B5B7B9BCBEC0C2C5C7C9CCCED1D406
:1020C000D7D9DCDFE2E6E9ECF0F3F7FAFE00000036
:1020D0004FEA400C0CF1807CBCF17E4F28BF70476A
:1020E000B0F1C04000F0A9B890EA010F0CEAD1139A
:1020F00048BF42F48072624538BF634507D213F48B
:102100007F0F16D080EA010000F00040704710B544
:1021100000F04DF8097EFC3E00F005B880EA0100B1
:1021200000F00040704780EA010000F0004000F03D
:1021300084B812F47F0F04BF0248704780EA0100A0
:1021400000F07BB80000C07FC10DD1F19E0206DB1C
:102150004FEA002343F0004323FA02F070470042A5
:1021600007D54FEA4001B1F1FE4F02D24FF0000017
:10217000704710B500F01BF849922480002070478A
:102180006FEA200070470000B0FA80F310FA03F203
:10219000C3F19D030AD0D90501EB1220530638BFC5
:1021A000704700F1010008BF20F0010070470EF1F8
:1021B000020E2EF0030E5EF8044B244204D44FEAC4
:1021C0004102B2F17F4F11D84FEA4003B3F17F4F84
:1021D0000CD80ED14FEAD07CB2F17F4F0CEB4C0CF7
:1021E0000CF1020C08BF4CEBD17C04E04FF0080C62
:1021F00001E04FEAD17C0CEB4C0324FA03F404F029
:102200000704B4F1040C06D20EEB840CBDE81040B8
:102210004CF0010C6047DFE80CF0070802024FF0B9
:102220000040A0F5800010BD0846420018BFD2F162
:10223000807288BF00F0004010BDFF2141EAD050FD
:10224000C0057047010202030405060708090A0BCE
:102250000C0D0E0F10100000000000000000010225
:102260000304060708090000000000000000002F1A
:10227000000000000700070000147F147F140024F2
:102280002A7F2A120062640813230036495522501F
:1022900000000503000000001C2241000000412254
:1022A0001C000014083E08140008083E080800003E
:1022B00000A0600000080808080800006060000036
:1022C000002010080402003E5149453E0000427FB4
:1022D0004000004261514946002141454B31001800
:1022E00014127F10002745454539003C4A494930C2
:1022F000000171090503003649494936000649497C
:10230000291E000036360000000056360000000886
:102310001422410000141414141400004122140863
:1023200000020151090600324959513E007C121148
:10233000127C007F49494936003E41414122007FDD
:102340004141221C007F49494941007F0909090197
:10235000003E4149497A007F0808087F0000417F1C
:102360004100002040413F01007F08142241007FCE
:1023700040404040007F020C027F007F0408107F35
:10238000003E4141413E007F09090906003E41519E
:10239000215E007F0919294600464949493100015B
:1023A000017F0101003F4040403F001F2040201FAF
:1023B000003F4038403F0063140814630007087072
:1023C000080700615149454300007F414100005525
:1023D0002A552A55000041417F00000402010204F1
:1023E00000404040404000000102040000205454DE
:1023F0005478007F4844443800384444442000382E
:102400004444487F00385454541800087E0901029F
:102410000018A4A4A47C007F080404780000447D74
:102420004000004080847D00007F102844000000B0
:10243000417F4000007C04180478007C0804047884
:1024400000384444443800FC242424180018242470
:1024500018FC007C0804040800485454542000046C
:102460003F444020003C4040207C001C2040201C79
:10247000003C4030403C004428102844001CA0A0F0
:10248000A07C004464544C4414141414141400002C
:10249000000000000000000000000000FC00000040
:1024A000000002000000000C020C0200000000000E
:1024B000000090D0BCD0BC900003000300001824A2
:1024C000FE448C000302070201001824D8B04C809F
:1024D000000300010201C038E438E00001020201FB
:1024E00002020806000000000000000000000000DA
:1024F00000F80402000000010204000204F80000D9
:102500000004020100009060F860900000000100EB
:1025100000002020FC20200000000100000000003E
:1025200000000000080600000000202020202000FD
:102530000000000000000000000000000002000099
:1025400000000080601C0200040300000000F8048A
:102550000404F8000102020201000008FC0000006F
:10256000000203020000188444241800030202023F
:10257000020008042424D80001020202010040B035
:1025800088FC80000000000302003C242424C400D6
:10259000010202020100F824242CC0000102020200
:1025A00001000C04E41C0400000003000000D82417
:1025B0002424D80001020202010038444444F800F7
:1025C00000030202010000001000000000000200F1
:1025D00000000000200000000000060000000020B5
:1025E000508804020000000001029090909090003A
:1025F00000000000000000020488502000020100DA
:1026000000001804C4241800000002000000F804B0
:10261000E494F80001020202020000E09CF0800055
:1026200002030000030204FC2424D8000203020277
:102630000100F80404040C0001020202010004FC81
:102640000404F80002030202010004FC24740C00DC
:1026500002030202030004FC24740C0002030200C3
:102660000000F0080444CC4000010202010004FC18
:102670002020FC040203000003020404FC04040004
:10268000020203020200000404FC04040604040322
:10269000000004FC24D00C0402030200030204FC2A
:1026A00004000000020302020203FC3CC03CFC00E8
:1026B00003000300030004FC30C4FC040203020016
:1026C0000300F8040404F80001020202010004FC03
:1026D00024241800020302000000F8848404F80097
:1026E00001020207050004FC2464980002030200B2
:1026F0000302182424448C000302020201000C048B
:10270000FC040C0000020302000004FC0000FC04B6
:10271000000102020100047C80E01C0400000300B0
:1027200000001CE03CE01C00000300030000049CCF
:10273000609C0400020300030200041CE01C04006F
:102740000002030200000C84641C04000203020265
:1027500003000000FE020200000007040400000E57
:1027600030C00000000000010200000202FE000074
:102770000004040700000004020400000000000040
:102780000000000000000000080808080808000019
:10279000020000000000000000000040A0A0C000F7
:1027A00000010202030204FC2020C0000003020218
:1027B000010000C02020600000010202020000C0F1
:1027C0002024FC0000010202030200C0A0A0C000FF
:1027D0000001020202000020F82424040002030287
:1027E00002000040A0A0602000070A0A0A0404FCBE
:1027F0002020C0000203020003020020E4000000C9
:10280000000203020000000020E40000080808079E
:10281000000004FC80E02020020302000302040404
:10282000FC000000020203020200E020E020C000E1
:1028300003000300030020E02020C0000203020088
:10284000030200C02020C00000010202010020E0BD
:102850002020C000080F0A02010000C02020E00074
:102860000001020A0F0820E04020200002030200BD
:1028700000000060A0A0200000020202030000206F
:10288000F820000000000102020020E00020E0002B
:1028900000010202030220E020806020000003010A
:1028A00000006080E0806000000300030000206002
:1028B0008060200002030003020020E020806020EE
:1028C0000808070100000020A060200000020302A9
:1028D0000200000020DE02000000000704000000EB
:1028E00000FF00000000000F00000002DE200000DA
:1028F00000040700000002010204040200000000BE
:1029000000000000000000000000000000000000C7
:102910000000000000F8000000000000003330005C
:10292000000000100C06100C060000000000000063
:10293000000040C07840C0784000043F04043F04D9
:102940000400007088FC08300000001820FF211EE1
:102950000000F008F000E018000000211C031E2118
:102960001E0000F00888700000001E212324192793
:10297000211010160E0000000000000000000000F2
:102980000000000000E0180402000000000718200A
:10299000400000020418E00000000040201807007A
:1029A0000000404080F0804040000202010F010220
:1029B0000200000000F0000000000101011F010101
:1029C0000100000000000000000080B07000000066
:1029D00000000000000000000000000101010101F2
:1029E0000101000000000000000000303000000085
:1029F000000000000000806018040060180601005C
:102A0000000000E010080810E000000F1020201067
:102A10000F00001010F8000000000020203F2020D0
:102A20000000007008080888700000302824222167
:102A3000300000300888884830000018202020111D
:102A40000E000000C02010F8000000070424243FFE
:102A5000240000F8088888080800001921202011A7
:102A60000E0000E0108888180000000F11202011CF
:102A70000E0000380808C83808000000003F0000B9
:102A800000000070880808887000001C22212122A4
:102A90001C0000E010080810E000000031222211A4
:102AA0000F00000000C0C000000000000030300037
:102AB00000000000008000000000000080600000B6
:102AC00000000000804020100800000102040810EF
:102AD00020004040404040404000040404040404FE
:102AE00004000008102040800000002010080402AC
:102AF0000100007048080808F000000000303601AE
:102B00000000C030C828E810E0000718272423146C
:102B10000B000000C038E0000000203C2302022728
:102B2000382008F8888888700000203F2020201175
:102B30000E00C030080808083800071820202010B0
:102B4000080008F808080810E000203F20202010A6
:102B50000F0008F88888E8081000203F2020232074
:102B6000180008F88888E8081000203F20000300BB
:102B70000000C03008080838000007182020221E76
:102B8000020008F808000008F808203F2101012190
:102B90003F20000808F8080800000020203F2020FF
:102BA000000000000808F8080800C08080807F004E
:102BB000000008F888C028180800203F20012638A7
:102BC000200008F8080000000000203F20202020FE
:102BD000300008F8F800F8F80800203F003F003FF8
:102BE000200008F830C00008F808203F200007182F
:102BF0003F00E01008080810E0000F10202020100F
:102C00000F0008F808080808F000203F2101010122
:102C10000000E01008080810E0000F1824243850C5
:102C20004F0008F8888888887000203F2000030C37
:102C30003020007088080808380000382021212240
:102C40001C00180808F8080818000000203F2000A1
:102C5000000008F808000008F808001F20202020C5
:102C60001F000878880000C83808000007380E01E7
:102C70000000F80800F80008F800033C0700073CD3
:102C80000300081868808068180820302C03032C83
:102C900030200838C800C83808000000203F200055
:102CA000000010080808C838080020382621202015
:102CB0001800000000FE020202000000007F4040F9
:102CC0004000000C30C00000000000000001063889
:102CD000C00000020202FE000000004040407F00F1
:102CE00000000000040202020400000000000000D6
:102CF00000000000000000000000808080808080D4
:102D000080800002020400000000000000000000BB
:102D10000000000080808080000000192422222210
:102D20003F2008F8008080000000003F11202011A3
:102D30000E000000008080800000000E1120202086
:102D40001100000000808088F800000E1120201083
:102D50003F200000808080800000001F222222226D
:102D60001300008080F0888888180020203F2020F1
:102D700000000000808080808000006B9494949319
:102D8000600008F8008080800000203F21000020C3
:102D90003F2000809898000000000020203F202065
:102DA0000000000000809898000000C08080807FB4
:102DB000000008F8000080808000203F24022D30B1
:102DC0002000000808F8000000000020203F20201C
:102DD00000008080808080808000203F20003F2095
:102DE000003F8080008080800000203F2100002084
:102DF0003F200000808080800000001F20202020D5
:102E00001F00808000808000000080FFA120201132
:102E10000E000000008080808000000E112020A0A5
:102E2000FF80808080008080800020203F21200063
:102E3000010000008080808080000033242424244E
:102E40001900008080E0808000000000001F20202A
:102E500000008080000000808000001F20202010E3
:102E60003F20808080000080808000010E300806B6
:102E7000010080800080008080800F300C030C30C7
:102E80000F0000808000808080000020312E0E31F5
:102E90002000808080000080808080818E701806F5
:102EA000010000808080808080000021302C222161
:102EB000300000000000807C020200000000003FA3
:102EC000404000000000FF00000000000000FF0084
:102ED00000000002027C800000000040403F000033
:102EE00000000006010102020404000000000000CE
:102EF00000000000000000000000000000000000D2
:102F000000000000000000000000000000000000C1
:102F10000000000000000000000000F0F0F00000E1
:102F200000000000000000017F0100000000000020
:102F30000000001C1C1C0000000000008060301C11
:102F40008C60301C0C00000000000000000000003D
:102F50000000000000000000000000000000000071
:102F600000E00000000000E000000086E69F86868A
:102F70008686E69F860000011F01010101011F01F5
:102F80000100000080C06020F820E0C000000000C8
:102F900003070C18FF70E18100000000070F1010FC
:102FA0007F100F0700008060206080000000E0209C
:102FB00000000F3020309F70DC371030C000000060
:102FC000100E03000718101807000000C02020E0B2
:102FD000C0000000000080E01F38E88703C43C0404
:102FE0000000070F1810100B070D101008000080CC
:102FF0008C4C3800000000000000000000000000C1
:1030000000000000000000000000000000000000C0
:10301000000000000000000080E030080400000014
:10302000000000FEFF0100000000000000000000A2
:10303000030F1820400000040830E080000000006A
:1030400000000000000001FFFE0000000000004042
:1030500020180F0300000000000000000000000026
:10306000C00000000000004266663C18FF183C6685
:1030700066420000000000000300000000000000A5
:103080000000000080000000000000101010101070
:10309000FF101010101000000000000003000000DE
:1030A0000000000000000000000000000000000020
:1030B0000000000000000000000000808C4C380080
:1030C0000000000000000000000000000000000000
:1030D0000000001010101010101010101000000050
:1030E00000000000000000000000000000000000E0
:1030F00000000000000000000000000000000000D0
:10310000000000001C1C1C0000000000000000006B
:10311000000000000000E0380C000000000080709B
:103120001C03000000000060380E010000000000D9
:103130000000000080C060202060C080000000FE11
:10314000FF010000000001FFFE000001070E181043
:1031500010180E0701000000808080C0E000000011
:1031600000000000000000FFFF0000000000000061
:103170001010101F1F101010000000804020202091
:103180002060C080000000030300804020381F073B
:103190000000001C1A1918181818181F00000080C9
:1031A000C020202060C08000000000030300101039
:1031B000182FE780000000070F10101010180F07DD
:1031C0000000000000000000C0E0F000000000C0AF
:1031D000B088868180FFFF80800000000000001022
:1031E000101F1F1010000000E060606060606060F1
:1031F000000000003F1008080818F0E00000000779
:103200000B101010101C0F030000000080C04020A5
:103210002020E0C0000000FCFF211008080818F082
:10322000E0000001070C18101010080F0300000048
:10323000C0E06060606060E06000000003000000CB
:10324000E0180700000000000000001F1F00000041
:1032500000000080C0602020202060C08000008727
:10326000EF2C1818303068CF830000070F081010BB
:103270001010180F07000000C0C020202020C080C0
:103280000000001F3F604040402010FFFE00000093
:103290000C1C101010080F030000000000000000BC
:1032A00000000000000000000000000E0E0E0000F4
:1032B000000000000000001C1C1C000000000000BA
:1032C0000000000000000000000000000000000CF2
:1032D0000C00000000000000000000583800000052
:1032E00000000000000000000080402010000000EE
:1032F00010284482010000000000000000000000CF
:10330000010204081000000000000000000000009E
:103310000000008484848484848484848400000085
:1033200000000000000000000000000010204080AD
:10333000000000000000000000000000018244289E
:10334000100000001008040201000000000000C08E
:1033500020201010101030E0C0000003030000F027
:1033600010080C070300000000001C1C1C000000DB
:103370000000000000C0406020202040C00000FC91
:10338000FF01F00E03C1FE03807F0001070E08114C
:103390001110110904020000000080E0E0000000AC
:1033A00000000000807C4340477FF8800000101838
:1033B0001F1000000000131F1C1020E0E020202040
:1033C0002060C080000000FFFF10101010182FE7D1
:1033D0008000101F1F1010101010180F07000000A1
:1033E00080C0402020202060E00000FCFF010000A1
:1033F0000000000001000001070E18101010080462
:10340000030020E0E02020202040C080000000FFDA
:10341000FF000000000001FFFE00101F1F10101031
:1034200018080E07010020E0E02020202020206066
:10343000800000FFFF101010107C00000000101F23
:103440001F10101010101018060020E0E02020209F
:1034500020206060800000FFFF101010107C000032
:103460000100101F1F1000000000000000000000FD
:1034700080C06020202040E0000000FCFF01000030
:103480004040C0C140400001070E181010100F0F3F
:10349000000020E0E0200000000020E0E02000FF2D
:1034A000FF101010101010FFFF00101F1F10000061
:1034B0000000101F1F100000202020E0E02020202E
:1034C00000000000000000FFFF00000000000000FE
:1034D0001010101F1F10101000000000000020200E
:1034E00020E0E020202000000000000000FFFF009E
:1034F00000000060E0808080C07F3F00000020E08E
:10350000E020000020A06020200000FFFF30187C99
:10351000E3C000000000101F1F10000001131F1C5B
:10352000181020E0E020000000000000000000FF74
:10353000FF000000000000000000101F1F1010100E
:1035400010101018060020E0E0E000000000E0E0AD
:10355000E02000FF013FFEC0E01E01FFFF00101F42
:103560001000031F0300101F1F1020E0E0C0000028
:1035700000000020E02000FF0003071C78E080002E
:10358000FF00101F100000000000030F1F000000CC
:1035900080C060202060C080000000FEFF010000AD
:1035A000000000FFFE000001070E181010180C07A5
:1035B000010020E0E0202020202060C0800000FFEB
:1035C000FF2020202020301F0F00101F1F100000A0
:1035D000000000000000000080C060202060C0806B
:1035E000000000FEFF010000000000FFFE000001DF
:1035F000070E1111133C7C67210020E0E020202001
:10360000202060C0800000FFFF101030F0D0080FB5
:103610000700101F1F10000000030F1C1010008077
:10362000C060202020204040E00000070F0C181848
:10363000303060E08100001F0C0810101010180FCF
:1036400007008060202020E0E02020206080010032
:10365000000000FFFF000000000100000000101F3C
:103660001F100000000020E0E0200000000000200B
:10367000E02000FFFF00000000000000FF00000746
:103680000F1810101010100807002060E0E0200054
:10369000000020E060200000077FF88000807C03AD
:1036A000000000000000071F1C070000000020E0D1
:1036B000E02000E0E0200020E0200007FFF8E01F0D
:1036C000FFFCE01F00000000031F0300011F0300B8
:1036D0000000002060E0A0000020E060200000006A
:1036E00000038F7CF8C6010000000010181E1300B4
:1036F00001171F1810002060E0E02000000020E00B
:103700006020000001073EF8E018070000000000FC
:103710000010101F1F1010000000008060202020EB
:1037200020A0E0E0200000000000C0F03E0F0300F9
:10373000000000101C1F17101010101806000000C9
:10374000000000FC0404040404000000000000FF6A
:1037500000000000000000000000007F40404040EA
:103760004000000010E00000000000000000000029
:103770000000031C6080000000000000000000004A
:1037800000030C70800000000404040404FC00002A
:10379000000000000000000000FF0000000000002A
:1037A00040404040407F0000000000000010080C36
:1037B000040C0810000000000000000000000000E1
:1037C00000000000000000000000000000000000F9
:1037D00000000000000000000000000000000000E9
:1037E00000000000000080808080808080808080D9
:1037F00080800000000404080800000000000000B1
:1038000000000000000000000000000000000000B8
:1038100000000000000000000000000000000000A8
:103820000000000098D844642424FCF80000000F35
:103830001F18101010081F1F10180020E0F00000C3
:103840000000000000000000FFFF180804040CF84E
:10385000F00000001F0F18101010180F03000000D8
:103860000000000000000000000000E0F818040460
:10387000043C3800000000030F0C10101010080664
:1038800000000000000000000020E0F0000000E068
:10389000F81C04040408FFFF000000030F181010B8
:1038A00010081F0F080000000000000000000000CA
:1038B00000000000E0F8484444444C7870000000E8
:1038C000030F0C181010100804000000000080C046
:1038D000602020E0C00000040404FFFF040404048E
:1038E0000000000010101F1F10101000000000004A
:1038F00000000000000000000000000070F88C04D0
:10390000048CF874040C007076CF8D8D8D89C87886
:1039100070000020E0F00000000000000000000047
:10392000FFFF08040404FCF8000000101F1F100033
:1039300000101F1F10000000000000606000000069
:1039400000000000040404FCFC0000000000000073
:103950001010101F1F1010100000000000000000C9
:1039600000606000000000000000040404FCFC0093
:1039700000000000C0C08080C07F3F000000002029
:10398000E0F000000000000000000000FFFF80C029
:10399000F41C0404000000101F1F1100031F1C1062
:1039A00010000000202020E0F000000000000000D7
:1039B000000000FFFF000000000000001010101FBA
:1039C0001F101010000000000000000000000000A8
:1039D000000004FCFC0804FCFC0804FCFC00101FB4
:1039E0001F10001F1F10001F1F100000000000000C
:1039F0000000000000000004FCFC08080404FCF8BF
:103A0000000000101F1F100000101F1F10000000FA
:103A10000000000000000000000000E0F0180C04AE
:103A2000040C18F0E00000030F0C101010100C0F25
:103A3000030000000000000000000000000000047F
:103A4000FCFC080404040CF8F0000080FFFF8890E0
:103A500010101C0F03000000000000000000000018
:103A6000000000E0F81C04040408F8FC0000000357
:103A70000F1810109088FFFF800000000000000069
:103A8000000000000000040404FCFC100804040C06
:103A90000C001010101F1F1010100000000000007C
:103AA0000000000000000000000000003078CCC4DE
:103AB0008484840C1C0000001E1810101011190FB3
:103AC00006000000000000C000000000000000042C
:103AD0000404FFFF040404000000000000000F1FA6
:103AE0001010100C0000000000000000000000009A
:103AF00000000004FCFE00000004FCFE00000000CA
:103B00000F1F181010081F0F080000000000000011
:103B100000000000000000040C3CFCC40000C43C99
:103B20000C0400000000010F1E0E01000000000048
:103B300000000000000000000000043CFCC400E4A1
:103B40007CFC84807C040000071F070000071F071F
:103B50000000000000000000000000000000000461
:103B6000041C7CE4C0341C0404000010101C16016A
:103B7000131F1C18100000000000000000000000CF
:103B8000000000040C3CFCC400C43C040400000021
:103B9000C080C1370E0100000000000000000000DE
:103BA00000000000000000001C0404C4F47C1C049D
:103BB00000000000101C1F17111010180E0000004C
:103BC0000000000000F80C040000000000000010DD
:103BD00028EF00000000000000000000003F6040EF
:103BE0000000000000000000FF00000000000000D6
:103BF00000000000FF0000000000000000000000C6
:103C0000FF00000000000000040CF80000000000AD
:103C1000000000000000EF2810000000000000007D
:103C200040603F000000000000000018060202048F
:103C300008102020300800000000000000000000F4
:103C40000000000000000000000000000000000074
:103C5000F010101010FF10101010F0000000000005
:103C60000F04040404FF040404040F000000404097
:103C7000405F555555755555555F404040000040D3
:103C8000200F094989790909090F2040000000FE29
:103C900002424ACA4A4ACA4A4A4202FE000000FF99
:103CA00040504C4340404F50505C40FF00000000EB
:103CB000F888888888FF88888888F80000000000D5
:103CC0001F080808087F888888889F80F000808205
:103CD0008282828282E2A2928A86828080000000B2
:103CE00000000040807F0000000000000000101075
:103CF00010FF109008888888FF888888080004448E
:103D0000827F01808040432C102846818000001073
:103D1000101010D030FF30D0121C1010000010080E
:103D20000402010000FF0000010204081000040466
:103D30000484E43C2724242424E40404040004022E
:103D40000100FF0909090949897F0000000000FE00
:103D5000225A8600FE9292929292FE00000000FF8C
:103D600004080700FF4020030C142241400000809B
:103D70004020180680000718204080000000010045
:103D80002070282621202024386000010100001026
:103D900012929292929292121202FE000000000081
:103DA000003F101010103F0040807F000000000016
:103DB00000C080808080808080FC848080808080C3
:103DC00080C0C0000000000000FF7F404040404035
:103DD00040FF40404040404040FF7F000000000066
:103DE0000000000000000000007F700000000000E4
:103DF00000000000000000000000000000000000C3
:103E00000000000000FCF8000000000000000000BE
:103E100000000000000000000000FFFE020202029D
:103E20000202020202FFFF02020202020202020278
:103E3000FF0300000000000000001F1F0404040432
:103E40000404040404FFFF0404040404040404043C
:103E50001F00000000000000000000000000000043
:103E600000000000007F3F00000000000000000094
:103E70000000000000000000000000000000000042
:103E80000000000000000000000000000000000032
:103E9000000000F8F8F0F0702000000000000000C2
:103EA0000000000000000000000000000000000012
:103EB0000000000000000000000000000000800082
:103EC00000000000000000000000000000000000F2
:103ED000000000FFFFFFFF000000000000000000E6
:103EE00000000000000000000000808000000000D2
:103EF000000000000000000000000000000000FFC3
:103F0000FFFE060606060606060606060606060660
:103F1000060606FFFFFFFF0606060606060606065D
:103F2000060606060606060606FFFFFFFF07020056
:103F3000000000000000000000000000000000FF82
:103F4000FFFF000000000000000000000000000073
:103F5000000000FFFFFFFF00000000000000000065
:103F6000000000000000000000FFFFFFFF00000055
:103F7000000000000000000000000000000000FF42
:103F8000FFFF1818181818181818181818181818E3
:103F9000181818FFFFFFFF18181818181818181805
:103FA000181818181818181818FFFFFFFF0000003D
:103FB00000000000000000000000000000000201FE
:103FC00001000000000000000000000000000000F0
:103FD000000000FFFFFFFF000000000000000000E5
:103FE00000000000000000000001010000000000CF
:103FF00000000000000000000000000000000000C1
:1040000000000000000000000000000000000000B0
:10401000000000FFFFFFFF000000000000000000A4
:104020000000000000000000000000000000000090
:104030000000000000000000000000000000000080
:104040000000000000000000000000000000000070
:104050000000001F1F0F0F00000000000000000004
:104060000000000000000000000000000000000050
:104070000000000000000000984000080000002040
:104080002000000028010008B8400008200000209F
:10409000F00A0000440100080100000010000000C8
:1040A0000000000000127A00000000000000000084
:0840B000000000000000000008
:04000005080000ED02
:00000001FF
