:020000040800F2
:10000000A80C0020B501000857440008B7370008C5
:100010005544000889210008054C00080000000034
:10002000000000000000000000000000334800084D
:100030008B21000800000000314800080949000831
:10004000CF010008CF010008CF010008CF01000850
:10005000CF010008CF010008CF01000835220008B9
:10006000CF010008CF010008CF010008CF01000830
:10007000CF010008CF010008CF010008CF01000820
:10008000CF010008CF010008CF010008CF01000810
:10009000CF010008CF010008CF0100083B22000873
:1000A000CF010008CF010008CF010008CF010008F0
:1000B000CF010008CF010008CF010008CF010008E0
:1000C000CF010008CF010008CF010008CF010008D0
:1000D000CF010008ED4B0008F94B0008CF010008E4
:1000E000CF010008CF010008CF01000800F002F89E
:1000F00000F050F80AA090E8000C82448344AAF172
:100100000107DA4501D100F045F8AFF2090EBAE86F
:100110000F0013F0010F18BFFB1A43F0010318473B
:100120001C8200003C820000103A24BF78C878C1CD
:10013000FAD8520724BF30C830C144BF04680C60ED
:10014000704700000023002400250026103A28BF35
:1001500078C1FBD8520728BF30C148BF0B60704739
:10016000662906F08980642900F0588000207047D5
:100170001FB500F005FD04000020002105F060F827
:10018000401C60600020002105F044F8E0601FBDC5
:1001900010B510BD00F086FE1146FFF7E9FF04F030
:1001A00059FE01F02FF903B4FFF7F2FF03BC01F091
:1001B0009DFB00000948804709480047FEE7FEE72D
:1001C000FEE7FEE7FEE7FEE7FEE7FEE7FEE7FEE707
:1001D00004480549054A064B704700006B49000872
:1001E000ED000008A8060020A80C0020A8080020A8
:1001F000A80800200FB41CB5074B06AA7B4469462B
:100200000090059800F0EBFB0020694600F0FAFB37
:100210001CBC5DF814FB0000050800002DE9F0414E
:100220000646002410687529314616A510D0AFF394
:100230000080002802DA404213A507E031688A07EF
:1002400001D512A502E0490704D511A5012401E05A
:10025000AFF3008000210A2206F1240709E0B0FB79
:10026000F2FCB0FBF2F302FB1C003030785418466D
:10027000491C0028F3D123462A463046BDE8F04108
:1002800000F03FB9000000002D0000002B0000002E
:10029000200000002DE9F0474FF0000A894604468F
:1002A000C0F820A02046E1688847002876D025289D
:1002B00006D0D4E901219047206A401C2062F1E772
:1002C000E168204600258847C4F81CA006460027A0
:1002D000C4F818A02A2E09D0304604F038FD38B3EF
:1002E00004EB8708303EC8F8186019E059F8041B81
:1002F000204604EB87029161E1688847012F06469A
:1003000018D1E069002820DA25F020051DE0D8F892
:10031000180000EB800006EB40003038C8F81800E9
:100320002046E1688847064604F011FD0028EED11A
:10033000012F0AD02E2E08D12046E16888477F1C65
:100340000646022F45F02005C4DBA069002803DA29
:10035000404245F00105A061E80701D025F01005F5
:10036000B6B1A6F14100192802D8203645F400653F
:100370004A463146204625604D46FFF7F1FE58B10A
:10038000012806D0ED1D25F0070000F1080989E7D6
:1003900004E005F1040985E730468AE7206ABDE8F4
:1003A000F08770B5064600F09DF8046805463046B3
:1003B0000A22002100F07EFB2C6070BD014A00F093
:1003C000B1BB00002C00002030B505460B462A4684
:1003D00013F8014B12F8010B08B1A042F8D01CB180
:1003E000002802D06D1CF1E7284630BD10B5431C33
:1003F00002E010F8011B71B18107FAD14FF0013210
:1004000002C88C1A8C4314EAC211F9D0C01A0A0629
:1004100003D0C01E10BDC01A10BD0A0401D0801E3A
:1004200010BD0902FCD0401E10BD10B5203AC0F02E
:100430000B80B1E81850203AA0E81850B1E81850E5
:10044000A0E81850BFF4F5AF5FEA027C24BFB1E822
:100450001850A0E8185044BF18C918C0BDE8104093
:100460005FEA827C24BF51F8043B40F8043B08BF9C
:100470007047D20728BF31F8023B48BF11F8012B63
:1004800028BF20F8023B48BF00F8012B70474FF00F
:10049000000200B5134694469646203922BFA0E8D4
:1004A0000C50A0E80C50B1F12001BFF4F7AF0907E0
:1004B00028BFA0E80C5048BF0CC05DF804EB8900D1
:1004C00028BF40F8042B08BF704748BF20F8022B14
:1004D00011F0804F18BF00F8012B7047704770472C
:1004E00070470000004870474806002010B5FFF72D
:1004F000F9FF006810BD10B50446FFF7F3FF046074
:1005000010BD2DE9F0470D4699469246044600F18C
:1005100024080168880604D5E06921F010012160F3
:1005200000E00120A84201DD471B00E00027A1698F
:100530007A1902EB0900081AA0612078C00602D4DB
:100540002046AFF30080002608E0D4E901211AF824
:1005500006009047206A401C761C20624E45F4DB62
:100560002078C0060AD52046AFF3008006E0D4E923
:10057000012130209047206A401C2062381EA7F1DC
:100580000107F4DC07E0D4E9012118F805009047E1
:10059000206A401C2062281EA5F10105F3DC2046DC
:1005A000AFF300802078000602D50220BDE8F08776
:1005B0000120FBE770472DE9FF4F0C461E464FF028
:1005C000FF378BB0D2E90001DDF860800A908A46DF
:1005D000C1F30A5505B93D46002108464FF0000019
:1005E000BAF1000F00F4400005DA00EB80004FF490
:1005F000400101EA50004FEA9059B9F1010F00DDC6
:10060000B9460A9850EA4A000ED044F61050A5F2B6
:10061000FF3545432F14B8F1000F1ED07542291E37
:100620001EDDC9F100021CE0B8F1010F4FF000001F
:1006300001D0302103E0F24305E02154401CB042D8
:10064000FBDB30460022002121540B99C1F80880C1
:10065000C1E900200FB0BDE8F08FBD1B6D1CDEE7C7
:100660004A4600DA694206A800F08CFB06AB93E824
:10067000070003AB83E8070050460A9901F050F9E0
:100680008DE80700A0F500501F3800900398002D5A
:100690000ADD42F21F014A460844002303A90390E1
:1006A000684601F0FBFB09E0A0F500504A461F3800
:1006B000002303A90390684601F01AFC8DE80700A7
:1006C0000004000C03D04FF0FF30410800E010465A
:1006D000B8F1000F03D00022009215461EE0751EEF
:1006E00005D400F051FA303262556D1EF9D5B3468B
:1006F0000122084302D000227F1C04E02078302829
:1007000001D100227F1E002A099784D01DE0112DFF
:1007100007DA00F039FA303262556D1C50EA0102F6
:10072000F5D1084302D00098C8B10EE00021681E40
:1007300005E0235C625C63542254401E491C8142E4
:10074000F7DBAB46A81B401E0990002004F80B0005
:100750000B98099AC0F80880C0E9002B7AE71126A7
:100760004FF0000857E72DE9F04F88460446D21DA8
:1007700022F0070191B0D1E90001CDE90A0104F0AE
:1007800042FA02460B98C00F01D02D2007E02068E6
:10079000810701D52B2002E0202101EAC000032AB5
:1007A000099001D0072A05DB03464146204600F0A8
:1007B00039FA0BE12078800601D5E06900E00620D7
:1007C000B8F1650F814606D0B8F1660F18D0B8F1C0
:1007D000670F70D131E00020B9F1110F009001DBFB
:1007E000112301E009F101030AAA01A90CA8FFF7EE
:1007F000E2FEDDE90C70002609F10105834647E0C1
:1008000001204B4600904FF000470AAA01A90CA80E
:10081000FFF7D1FEDDE90DB00C995D46002610B959
:1008200009F101000D18B9EB050003D4C0F1FF3642
:1008300009F10105A5EB09002BE0B9F1010F01DA7F
:100840004FF001090020B9F1110F0090484601DD79
:10085000112300E003460AAA01A90CA8FFF7ABFE8A
:10086000DDE90C704D4600268346207800070AD447
:10087000AB4500DA5D4601A8012D04DD411911F8F0
:10088000011C302907D04F4502DA17F1040F04DAB2
:10089000012082460FE06D1EEEE7002F02DCED1B0B
:1008A0003E4403E0781CA84200DD7D1CB81B00F12B
:1008B000010A4FF000472078000703D4AA4501DB66
:1008C0004FF0FF3A0021B7F1004F0DF143088DF8CA
:1008D000431024D002202B23002F01DA7F422D2346
:1008E0000A21021EA0F1010000DC5FB197FBF1FCC0
:1008F00097FBF1F201FB1C7C17460CF1300C08F859
:1009000001CDEEE7A8F1010003702188090501D5AA
:10091000452100E06521A0F1010800F8011C0998BB
:100920000FA9A1EB0807FF1D00B10120411901EB40
:10093000EA70A1693844081A401EA0612078C006F8
:1009400002D42046AFF30080099828B1D4E90121F0
:100950009047206A401C20622078C00622D520469D
:10096000AFF300801EE0002E04DBB34502DD01A8DA
:10097000805D00E03020D4E901219047206A401CCE
:100980002062761CAAF101005FEA000A0AD100F099
:10099000F7F8C0680168405CD4E901219047206AFB
:1009A000401C2062281EA5F10105DCDC07E0D4E92B
:1009B000012118F8010B9047206A401C2062381E64
:1009C000A7F10107F3DC2046AFF30080032011B04C
:1009D00041E6000001694A1C02610878704700B5D1
:1009E0008FB0CDE901310021059105497944CDE968
:1009F000031011466846FFF74DFC0FB000BD000024
:100A0000E5FFFFFF0A6802F8010B0A60704700006B
:100A10000FB4002300B589B00CA900910B99CB60ED
:100A2000214B7B440693214B7B44079304236FF0B7
:100A30000042CDE901321E4A7A446B4608920246D2
:100A4000002005F07BFC09B05DF814FB70B506468C
:100A50004FF0FF3015460C46324686B00091CDE986
:100A6000010169460020049004A8FFF7D1FF024667
:100A70000498211825B108B1084600E020462860F6
:100A8000049800280DD0002A02DD0098884208D082
:100A90003246081B69460094CDE9010404A8FFF71B
:100AA000B7FF06B070BD00007F0200009702000093
:100AB000D70100002DE9F04791460F4680460446D5
:100AC000002614F8015B2DB100F052F80068405D7B
:100AD000C007F6D12B2D02D02D2D18D0641E4A460A
:100AE0003946204600F0FEF827B13968A14201D10D
:100AF000C7F800804FF0020471050BD54042002872
:100B000003DDFFF7EFFC0460A007BDE8F08746F4C3
:100B10008066E4E70028F8DAFFF7E4FC04606FF091
:100B20000040F2E72DE9F04115460E46040002D1DF
:100B30002C6804B90BA4204600F0A6F904442078E0
:100B400070B127463146384600F08EF904442078CB
:100B500010B1002004F8010B38462C60BDE8F0818C
:100B60000027F9E700000000004870474806002011
:100B700010B500F005F8001D10BD00BFC54600000F
:100B8000004870476806002030B5B0F10A024FEA0D
:100B9000900E71F100034EEA817EB0EB0E0061EB26
:100BA00091014FEA101E4EEA017E10EB0E0041EB60
:100BB00011114FEA102E4EEA016E10EB0E0041EBC0
:100BC00011214FEA104E4EEA014E10EB0E0041EBA0
:100BD0001141401841F100014FEAD00040EA417054
:100BE0004FEAD10110EB80054FEA810444EA90748A
:100BF00044EB01046D1944EB0404521BA3414FF074
:100C0000000348BF0A3200D530BD401C41F100014D
:100C100030BD10B50446FFF7ABFF0068005D00F083
:100C2000010010BD2DE9F0411F460446032601686E
:100C3000072A01F4006004DB08B116A505E016A53B
:100C400003E008B115A500E015A521F01000206013
:100C5000A069C01EA0610FB1401EA0612046AFF385
:100C600000804FB1D4E9012138469047206A401CEA
:100C70002062C01C206206E0206AFAE7D4E9012164
:100C800015F8010B9047761EF8D22046AFF300808E
:100C9000BDE8F0814E414E006E616E00494E460047
:100CA000696E6600426842B1016811F8013B23B1E8
:100CB000521EC0E90012184670470121C160881E0B
:100CC000704742685AB1C368016843B983688B4270
:100CD00005D0491E521CC0E90012002070474FF099
:100CE000FF3070472DE9F05F824615468B4600279E
:100CF0000AF10104B9460078302801D09DB113E013
:100D000014F8010B0127782803D0582801D045B1E9
:100D10000AE00DB1102D07D1002714F8010B1025A2
:100D200002E0082500E00A250026B0460EE005FB9B
:100D3000080005FB06F101271FFA80F801EB1046B9
:100D4000B6F5803F00D3B94614F8010B294600F0F0
:100D5000CEF80028EBDABBF1000F05D00FB1641E0E
:100D600000E05446CBF80040B9F1000F06D0FFF781
:100D7000B9FB02210160C81EBDE8F09F48EA0640A9
:100D8000FAE700002DE9F047814616468AB035485B
:100D900078440DC88DE80D0032487844801C03ACBF
:100DA0000DC884E80D0041F69B300844372190FBC4
:100DB000F1F290FBF1F5A5F1800501FB12041B3C5B
:100DC00002D56442012000E00020DFF898A08046B0
:100DD0000027FA44AAF1BE0A0EE0E0070AD0324624
:100DE000684607EB470101230AEB810101F080F817
:100DF0008DE8070064107F1C002CEED1194F7F4452
:100E0000AE3F19E0E80715D007EB04100DF1180A02
:100E100090E80E008AE80E00C068F04201D19819EF
:100E200008903246012306A903A801F061F803AB3C
:100E300083E807006D10641C002DE3D14FF001031F
:100E400032466946B8F1000F03A802D001F026F837
:100E500001E001F04DF8C9E90001C9F808200AB025
:100E6000BDE8F0879C74000030B503461D781DB1C5
:100E70000A4603E0AC4201D1181A30BD12F8014B0A
:100E8000002CF7D15B1CF1E730B503461D783DB16E
:100E90000A4612F8014B1CB1AC42FAD15B1CF5E7D3
:100EA000181A30BD7546FFF75FFEAE46050069466D
:100EB000534620F00700854618B020B5FFF788F9A3
:100EC000BDE820404FF000064FF000074FF000084B
:100ED0004FF0000B21F00701AC46ACE8C009ACE8CC
:100EE000C009ACE8C009ACE8C0098D4670473A2893
:100EF00000D2303820F02002412A01D3A2F137007D
:100F0000884201D34FF0FF30704700002DE9FF4FBA
:100F100006468BB00878FF2806D0491C2D2805D03E
:100F200000244FF0000908E000200CE00124F8E75D
:100F300009EB8903491C00EB43090878FF28F7D126
:100F400014B1C9F100008146107800252C46AA464C
:100F500029462D2801D02B2804D1521C2D2813D02E
:100F6000002082468B461078FF280FD04FF0000CEF
:100F70000A21521CA5FB017804FB018105FB0C1121
:100F8000C5194BEB0104EEE70120EAE70021084612
:100F90004FF00000BAF1000F02D000EB80004008D3
:100FA000C0F38157012F01DD4FF0FF370E9955EA4D
:100FB000040009EB01080BD04FF0020918F5FA7F85
:100FC00016DA4FEACA70002F706008DD012007E0D2
:100FD0004FEACA70C6E900B00FB0BDE8F08F00203C
:100FE0003060FFF77FFAC0F800901821084616E03D
:100FF000B8F5FA7F18DD002F02DAF748784401E0EF
:10100000F6487844D0E90010C6E9001040EACA70FA
:101010007060FFF767FAC0F80090142108460FB01F
:10102000BDE8F04F05F025B9002108464FF000005B
:10103000B8F10001099002DAC7F1000200E03A4677
:1010400001DAC8F1000106A8FFF79CFE06AB93E8A1
:10105000070003AB83E8070044F23E005BEA0401AB
:101060000090584604D144F21E012C465D46009182
:10107000210C0904014306D10099240444EA1544D3
:101080002D041039009104F07F41014306D10099ED
:10109000240244EA15642D020839009104F07041DD
:1010A000014306D10099240144EA15742D01091F5A
:1010B000009104F04041014306D10099A40044EAA4
:1010C0009574AD00891E009104F00041084304D1DD
:1010D00000986D196441401E00904FF001033A469C
:1010E0006846B8F1000FCDE9014503A902DD00F023
:1010F00014FF01E000F0E7FEBAF1000F04460D46D0
:1011000001D084F00044002108464FF00000099906
:1011100040F2FF77484010F00C0F07D124F0004058
:10112000284303D0C4F30A50B84212D1FFF7DAF9CA
:10113000C0F80090C4F30A50B8420AD1A8487844D5
:10114000D0E90010C6E9001004F0004108437060C7
:1011500042E7C6E900543FE72DE9FF4F1F464FF035
:10116000000A4FF0FF38454691B0D7E90146CDF867
:101170003CA0FFF705FDC0680168405C1090B969AC
:1011800012986D1C8847396A814688470028F6D135
:10119000B9F1FF3F0AD0002E24F4D06411DDB9F17B
:1011A0002B0F08D0B9F12D0F0BD102E0404615B03E
:1011B00013E744F48064B96912986D1C8847761E61
:1011C0008146600504A901D52D2000E02B20002ECA
:1011D00001F1010B0DF130088DF810003FDDB9F180
:1011E000690F08D0B9F1490F05D0B9F16E0F02D0DF
:1011F000B9F14E0F1CD13B4601A8009580E8500282
:10120000DDE912126FF0020005F09CF8C11CCED18E
:101210000EE0B96912986D1C884781461398761EB6
:1012200044F4007405600F98401C002E0F9016DDEA
:10123000B9F1300FEDD0B9F1780F02D0B9F1580FF4
:101240000DD10F9801280AD13B46CDE90054DDE9C4
:101250001212001F029605F073F8C11CA7D1109955
:1012600089453ED144F0800406E01399681CAAF138
:10127000010A44F400740860B9696D1C1298761E66
:10128000884730288146F0D02BE01099894505D158
:10129000200603D4761E44F0800418E0484603F08C
:1012A00056FD08B3761E0DF123018B4544F40074FE
:1012B00008D2A9F130000BF8010B200607D5AAF1DE
:1012C000010003E0200602D40AF101008246A005D5
:1012D00002D51399681C0860B96912986D1C88477B
:1012E0008146002ED1DC53E0002E51DDB9F1650FAF
:1012F00002D0B9F1450F4BD1A00549D5B9696D1C94
:101300001298761E24F440748847002E81460CDD26
:101310002B2804D0B9F12D0F07D144F48074B9699A
:1013200012986D1C8847761E8146E00501D52D2157
:1013300000E02B2108F8011BCDF8008021E0761E8B
:101340000DF13901884544F400740CD2A9F1300044
:1013500010F0FF0088F8000002D10099884509D9F3
:1013600008F1010806E0E00501D51E4801E042F25F
:101370000F708246B96912986D1C88478146139890
:101380000560002E04DD484603F0E1FC0028D6D1BC
:10139000F96912988847FF2053468BF8000088F8B7
:1013A000000000200A900B9004AA0CA90AA8FFF7DD
:1013B000ADFDA00502D46FF00100F8E614F0240F93
:1013C00012D0E0071CD13868DDE90A12031D3B602A
:1013D0000068C0E9001213E0647300005673000057
:1013E0001A720000F1D8FFFF0AA9684603F03EFC1C
:1013F000E00705D13868009A011D39600068026075
:101400002846D4E610B50446AFF300802046BDE878
:101410001040FEF7C8BE00004FF0013C50F8042B0E
:1014200051F8043B9A4221D1A2EB0C03934313EAF7
:10143000CC1317D150F8042B51F8043B9A4215D124
:10144000A2EB0C03934313EACC130BD150F8042BFB
:1014500051F8043B9A4209D1A2EB0C03934313EADF
:10146000CC13DBD04FF00000704700BFD01A01BA98
:10147000B1FA81F101F0180122FA01F0CB40C1F17B
:101480002001DBB2C0B2C01A2CFA01F3D11A914389
:1014900011EAC311E6D170472DE9FF4F1F464FF007
:1014A0003C0987B04FF00042DDE9141001F101085A
:1014B000DDF858A002EA40500390002005908346D2
:1014C000054604460490B969461E08988847AAF163
:1014D000010A0290BAF1000F3BDD02982E2815D0C8
:1014E0001021FFF704FD00282EDB4FF0010B0599BA
:1014F000014317D0B9F1000F0BDB4A46C11700F0CA
:10150000FBF905430C43A9F1040905E0012004900F
:101510000BE008B145F0010501200590049820B9C1
:10152000361D02E0049800B1361FB969089808F129
:1015300001088847BBF1000FAAF1010A0290C9D047
:101540000999C1F80080C5E70298702808D0502892
:1015500006D0F96908988847BBF1000F14D04FE016
:10156000002002900120BBF1000F049009D0B9695E
:10157000089808F101088847AAF10109B9F1000F9C
:1015800007DCF969089888476FF001000BB0BDE8E7
:10159000F08F2B2804D02D280CD14FF0FF30049071
:1015A000B969089808F101088847A9F10109B9F15A
:1015B000000FE6DD411CE4D00A21FFF798FC00286B
:1015C000DFDB029908F1010801EB810100EB41002A
:1015D0000290B969089888470A21FFF788FC099AA0
:1015E000A9F10109B9F1000FC2F8008001DD00285E
:1015F000E7DAF969089888470499029800FB0166C0
:1016000055EA040004D004F04041090002D006E08D
:10161000039898E0A40044EA9574AD00B61E04F067
:101620000041080002D16D196441761E159810F032
:10163000240F03D04FF00B095C4803E04FF028095A
:101640006FF07D008246564507DAAAEB0601894411
:10165000B9F1410F01DD4FF0410901200021A9F14D
:10166000010200F049F9024628400B462140084398
:1016700001D0012100E00021501E029143F1FF3111
:1016800028402140084301D0012000E000200299B9
:10169000834651EA0B014FD0002108464FF000006D
:1016A000039900F4400039B100EB80004FF4400191
:1016B00000EBD07001EA60008015012802DD4FF0D8
:1016C000FF3000E013D0401C36D0029860B3BBF16D
:1016D000000F0CD14A460120002100F00DF92840EE
:1016E0002140084301D0012000E00020E0B10120AA
:1016F0004A46002100F000F9034640190A466141BC
:101700002D1A8C4111D3B9F1400F09DD159810F055
:10171000240F02D0AAF1340603E0AAF1170600E074
:10172000761C00254FF0004406E05B1E42F1FF32BC
:1017300020EA030521EA0204CAF10100B04206DAF8
:101740001B49039808430190002000900EE0039A83
:10175000C4F3D321E80A0A43164940EA44500A4335
:101760003146CDE90002684603F0E6FA159810F01C
:10177000240F0BD01598C00715D13868DDE9001289
:10178000031D3B600068C0E900120CE002A8694636
:1017900003F06CFA1598C00705D13868029A011D4C
:1017A0003960006802604046F0E6000002FCFFFF7E
:1017B0000000F07F0000F03F2DE9FF4F92461D46EC
:1017C00085B04FF00041DDE9124BDDE914727F1E58
:1017D00001EA4B50414940F0FF4940EA010800212D
:1017E00022F020004928049102D04E2828D04CE055
:1017F0003BA0012607C88DE80700A9690698641C6C
:1018000088477F1E014606D41DF8060018B121F056
:10181000200181420BD0E96906988847032E34D015
:10182000082E32D06FF0010009B0BDE8F08F761CB1
:10183000032E01D0082EE0D1601CCAF80000DCE7BE
:10184000A9690698641C88477F1E2AD420F02000CE
:10185000412826D1A9690698641C88477F1E20D498
:1018600020F020004E281CD1A9690698641C8847E6
:101870007F1E48F4002849F48009CAF8004001D4CA
:10188000282806D0E969069888475FEACB7012D00D
:1018900022E0A9690698641C88477F1E01D40028AD
:1018A00003DAE96906988847BCE72928F1D1641C66
:1018B000CAF80040E9E71BF0240F07D02868049914
:1018C000031D2B600068C0E9001805E02868021DB0
:1018D0002A600068C0F800902046A5E70000F07F6D
:1018E000494E46494E49545900000000014918200C
:1018F000ABBEFEE726000200B2F120030AD5C2F11A
:10190000200301FA02F120FA03F300FA02F041EA9F
:101910000301704700FA03F14FF000007047704771
:101920005FEA400C08BF91F0000F4FEA8C234FEAAA
:10193000C12243EA51514FEA1C5018BF00F5F04054
:101940004FEA300018BF41F000415FEA6C5C00F0E4
:101950002980BCF1FF3F08BF40F080407047130C66
:1019600006BF12044FF0100C4FF0000C130E04BF12
:1019700012020CF1080C130F04BF12010CF1040C3D
:10198000930F04BF92000CF1020CD30F04BF52005E
:101990000CF1010C11464FF00002A0F11F00A0EB6A
:1019A0000C00704711F0004F08BF704731F0004144
:1019B0003FF4D5AF0B0C06BF09044FF0100C4FF0ED
:1019C000000C0B0E04BF09020CF1080C0B0F04BF36
:1019D00009010CF1040C8B0F04BF89000CF1020CFF
:1019E000CB0F04BF49000CF1010CCCF12003A0EB9C
:1019F0000C0022FA03F302FA0CF241EA030100F1AF
:101A00000100704720F07F4C80EA030023F07F47FD
:101A1000ACEB070303F57C5300F0004003F1FF0338
:101A20002DE980494FEA154B09B44FEA144325EAE2
:101A30000B4E24EA03480FF2042606EB132749084D
:101A40003E785FEA320203FB0667C7F5000707FB33
:101A500006F64FEA54374FEAD64606F1020607FB70
:101A6000066CCCF1005C4FEA1C472CEA074C07FBE4
:101A700006F40CFB06F504EB15464FEA961634BF48
:101A800000204FF000404FEAD13706FB07FC4FEA39
:101A90001C4C0CFB0BF7D21B03FB0CF761EB070193
:101AA0000CFB0EF7B0EB074072EB17420CFB08F78C
:101AB00034BFA2EB0742B2EB074261EB17414FEA9A
:101AC0000C444FEA910706FB07FC4FEA1C4C0CFB49
:101AD0000BF7B0EBC74072EB573203FB0CF734BF88
:101AE000A2EBC742B2EBC74261EB57310CFB0EF7DA
:101AF000B0EBC70072EB57720CFB08F734BFA2EBD8
:101B0000C702B2EBC70261EB5771039F4FEA8161D5
:101B100041EA921104EBCC044FEAD1374FEA8262DA
:101B200006FB07FC42EA90124FEA80604FEA1C4C29
:101B30000CFB0BF7D21B03FB0CF761EB07010CFB53
:101B40000EF7B0EB074072EB17420CFB08F734BFFF
:101B5000A2EB0742B2EB074261EB17414FEA8C550B
:101B60004FEA910704EB9C2406FB07FC4FEA1C4C50
:101B70000CFB0BF7B0EBC74072EB573203FB0CF7D3
:101B800034BFA2EBC742B2EBC74261EB57310CFB4B
:101B90000EF7B0EBC70072EB57720CFB08F734BFBF
:101BA000A2EBC702B2EBC70261EB577115EB4C25F4
:101BB0004FEA816141EA92114FEA82624FEAD137DE
:101BC00042EA901206FB07FC44F100044FEA8060F1
:101BD0004FEA1C4C0CFB0BF7D21B03FB0CF761EB21
:101BE00007010CFB0EF7B0EB074072EB17420CFB42
:101BF00008F734BFA2EB0742B2EB074261EB174193
:101C000015EB1C154FEA813141EA92414FEA8232CD
:101C100042EA90424FEA80304FEA0C7644F10004E9
:101C200048EA03434EEA0B484FF0000EB2EB080CB3
:101C300071EB030724BF624639464EEB0E0E4FF0A0
:101C4000000B0018524149414BEB0B0BB2EB080C57
:101C500071EB03077BF1000B24BF624639464EEB64
:101C60000E0E4FF0000B0018524149414BEB0B0B8D
:101C7000B2EB080C71EB03077BF1000B24BF62464B
:101C800039464EEB0E0E51EA020718BF46F0010628
:101C900016EB0E7655F1000254F1000103D5BDE8B4
:101CA0008901BDE80088BDE88901BDE80048B61992
:101CB000524141EB0101A3F10103704780807F7E17
:101CC0007D7C7B7A797877767675747372717170B2
:101CD0006F6E6E6D6C6C6B6A6A6968686766666564
:101CE0006464636362616160605F5F5E5E5D5D5CF2
:101CF0005C5B5B5A5A595958585757565655555563
:101D00005454535352525251515050504F4F4F4EC2
:101D10004E4D4D4D4C4C4C4B4B4B4A4A4A49494910
:101D20004848484747474746464645454544444452
:101D300044434343434242424241414146EA06460C
:101D4000A3F570534FEA164646EA42564FEAD222AE
:101D500042EA415210B54FEAD121A3F1010300F04C
:101D60002FF820F0004000F1020C00F0004701EBDA
:101D700000501146BCF5006F40EA070000D210BDCC
:101D8000BAF1000F0AD01CB503B44FF004004FF0B5
:101D900004014FF000000FBCBDE810404FF00001FF
:101DA000BBF1010FB9BF04484FF0FF3103480021D8
:101DB00040EA070010BD00BFFFFFEF7F0000F07F8B
:101DC000002B9C4630D477002BD01CB54FEA370748
:101DD00003B44FF010004FF01001BAF1000F06D01D
:101DE000BCF1000FDCBF40F0080040F008014FF0EC
:101DF00000000FBCBDE810400BF1010BBBF1010F5F
:101E000008BF5FEA170722BF12F1010211F10101B9
:101E10004FF0004143F1000300F0004043EA0000AE
:101E20007047F9D35708D0E746EA064613F1400F4A
:101E30004FEA16461FDD13F1200FDFBF16430A4697
:101E4000002120335B42BED0C3F1200746EA06469C
:101E500002FA07F74FEA164646EA0706C3F12007DB
:101E600022FA03F201FA07F721FA03F14FF0000317
:101E700042EA0702A7E746EA020646EA06464FEAB2
:101E8000164646EA0106BCBF46EA0646360C4FF047
:101E900000034FF000024FF0000194E72DE9804C61
:101EA0009A46934670B491E8380007C831EA400C6E
:101EB00048BF34EA430C03D5FFF7A4FDFFF780FFCA
:101EC000F0BCBDE8008C2DE9804C9A46934670B476
:101ED00091E8380007C831EA400C48BF34EA430CA7
:101EE00003D5FFF78FFDFFF729FFF0BCBDE8008C9D
:101EF0002DE9804C9A46934670B491E8380007C8A3
:101F000010F0804F08BF13F0804F03D100F01AF893
:101F1000FFF756FFF0BCBDE8008C2DE9804C9A46D7
:101F2000934670B491E8380007C810F0804F08BF9E
:101F300013F0804F03D100F005F8FFF7FFFEF0BC6F
:101F4000BDE8008C20F07F4780EA030023F07F4C3F
:101F500007EB0C03A3F57C5300F00040A3F1FE0354
:101F600092F0000F00F0B38095F0000F00F0778042
:101F70002DE901494FEA11404FEA144621EA004891
:101F800000FB06FC24EA064708FB06F607FB08F8F8
:101F900000FB07F718EB06484CEB164C4FEA124BC8
:101FA00018EB07484FEA15464CEB174022EA0B4E58
:101FB0000BFB06FC25EA06470EFB06F607FB0EFEAA
:101FC0000BFB07F71EEB064E4CEB164C4FF00006D2
:101FD0001EEB074E4CEB174B18EB0B0840F10000C3
:101FE00018EB0E0B58EB000840F100008F1A4FF071
:101FF00000013CBFC943661B14BFB5EB040C0021B4
:102000003CBFC943F61B4FEA17444EEA8E0E27EA3F
:1020100004454FEA1C4704FB07622CEA074C05FB0A
:1020200007F70CFB05F604FB0CFC16EB074642EB2E
:10203000174216EB0C4642EB1C421BEB060658EB14
:102040000202414146EA9E0601D5BDE80189B61962
:10205000524141EB0101A3F10103BDE801894FEABF
:1020600014454FEA114724EA054621EA074C05FBCF
:1020700007F406FB07F70CFB06F105FB0CFC11EB64
:10208000074144EB17444FEA124711EB0C4144EB74
:102090001C4422EA074C05FB07F206FB07F70CFB82
:1020A00006F605FB0CFC16EB074642EB174216EB57
:1020B0000C4642EB1C456A1854F1000148BF7047BA
:1020C000B619524141EB0101A3F10103704795F0AC
:1020D000000F37D04FEA11424FEA144721EA024677
:1020E00024EA074C02FB07F106FB07F70CFB06F49A
:1020F00002FB0CFC14EB074441EB17414FEA154778
:1021000014EB0C4441EB1C4125EA074C02FB07F59C
:1021100006FB07F70CFB06F602FB0CFC16EB07466A
:1021200045EB174516EB0C4645EB1C42121951F1D5
:10213000000148BF7047B619524141EB0101A3F1BC
:10214000010370474FEA14454FEA114724EA054658
:1021500021EA074C05FB07F106FB07F70CFB06F22B
:102160004FF0000605FB0CFC12EB074241EB174158
:1021700012EB0C4251EB1C4148BF7047921841EBE7
:102180000101A3F101037047FEE770472DE9F0411B
:10219000B0F90010B0F90420B0F90230002900DADB
:1021A0004942002B00DA5B421944002A00DA52420D
:1021B0008B18B0F90620B0F90A10B0F90800002A0F
:1021C00000DA5242002800DA40421044002900DAC6
:1021D00049420025154F164C08444FF48056962B63
:1021E0000ADD642808DD207878B90120207000F02D
:1021F000C7FA0022606001E02570012231463846AE
:1022000000F0B9FA207800280DD000F0B9FA616822
:10221000401A41F28831884205D9012231463846B8
:1022200000F0A9FA2570BDE8F0810000000C014023
:1022300000000020022000F09DB94FF4807000F0F3
:1022400099B972B6FEE7000070B5074C0546607894
:1022500018B100F021F8002060702846BDE87040F9
:1022600018220249FEF7E1B829000020CC05002021
:1022700010B518210648FEF70AF905486421183000
:10228000FEF705F9034800210170417010BD000000
:10229000CC050020290000202DE9F0475F4C60A10B
:1022A0002046FEF791F800287ED05FA12046FEF779
:1022B00085F80024002877D0584D5C4FDFF87081F6
:1022C000DFF87091183D9DE0002E6DD00A2CFAD2F7
:1022D000DFE804F09805284C547981868B923046CB
:1022E000FEF784F806281CD330787178303800EB7C
:1022F00080026FF02F0000EB420211442972B17886
:10230000F278303901EB810100EB4101114469722F
:1023100031797279303901EB810100EB41001044D1
:10232000A8726FE03046FEF761F800286AD03046A8
:1023300002F014FD03F01CFA00223B4603F084F87F
:1023400002F094FF064603F0E1FD03F01BFE824617
:10235000314603F00FFF414603F040FE494603F0CB
:1023600013FD0146504603F0ADFC05E030785328DC
:1023700048D1286880F00040286043E03046FEF7EE
:1023800035F838B3304602F0E9FC03F0F1F90022E9
:102390003B4603F059F802F069FF064603F0B6FD2C
:1023A00003F0F0FD824600E036E0314603F0E2FE45
:1023B000414603F013FE494603F0E6FC0146504651
:1023C00003F080FC05E0307857281BD1686880F066
:1023D0000040686016E03046FDF7E3FFE87211E068
:1023E0003046FDF7DEFF28730CE0304602F0B6FC05
:1023F00003F0C8FD286105E0304602F0AFFC03F0B1
:10240000C1FD686108A10020FDF7D8FF641CE4B29B
:1024100006460F2CFFF458AFBDE8F087E405002016
:1024200047504747410000002C0000000000594081
:102430000000C8420000704210B5002309490A4C50
:1024400024280DD00A78632A03D20A78A054521C9B
:102450000A700A2803D1D0B223540120487010BD5D
:102460000B70F2E729000020E405002010B590F879
:1024700021100022022905D00421816380F8202048
:10248000012010BD01680B6823F00E030B6001688A
:102490000B6823F001030B6090F84030C46B0121FE
:1024A00001FA03F3636080F8211080F820201046C1
:1024B00010BD000010B590F821100024022903D0AF
:1024C0000421816301243DE001680A6822F00E02C4
:1024D0000A6001680A6822F001020A601A4A01686B
:1024E000914201D1012121E0174A1432914201D1D8
:1024F00010211BE0144A2832914201D1891515E0C0
:10250000114A3C32914201D189140FE00E4A5032F7
:10251000914202D14FF4803108E00B4A643291427B
:1025200002D14FF4801101E04FF08071064A083A61
:102530005160012180F82110002180F82010416BAA
:1025400001B18847204610BD0800024070B504461E
:1025500000F016F90546601C02D0044800780444D7
:1025600000F00EF9401BA042FAD370BD0800002015
:1025700070470000044910B50A68024202D00860A2
:10258000FFF7F6FF10BD0000140401402DE9F84FDD
:10259000DFF8B8910024A9F1040B23460F2709F1B5
:1025A000040AABF1040EC9E00125A5402A40AA4265
:1025B0007DD1674ED1F804C0ACEB0608B44532D0EB
:1025C00014DCBCF1030F3AD009DCBCF1000F2AD0B7
:1025D000BCF1010F1CD0BCF1020F31D11DE0BCF1E8
:1025E000110F17D0BCF1120F2AD119E0B8F5881FCE
:1025F00019D006DCB8F5803F15D0B8F5801F1FD183
:1026000011E0B8F5001F0ED0B8F5041F18D10AE08C
:10261000CB6815E0CB681B1D12E0CB6808330FE0D8
:10262000CB680C330CE08B682BB1012B4FF0080307
:1026300003D0456104E0042302E0056100E00023CB
:10264000FF2A01D8064601E000F104064FEA84059E
:1026500001D9A5F12005D6F8008007FA05FC28EA83
:102660000C0803FA05F548EA0508C6F800804D682D
:10267000ED0062D5374DAE6946F00106AE61AD6939
:1026800024F0030605F001050095334D06EB050C1B
:10269000DCF80850A607360F07FA06F825EA080501
:1026A000DFF8B880404503D14FF0000817E044E060
:1026B000DFF8AC80404502D14FF001080FE0DFF8B1
:1026C000A480404502D14FF0020808E0DFF898806E
:1026D000404502D14FF0030801E04FF0040808FA2A
:1026E00006F848EA0508CCF808804D68D9F800607B
:1026F000ED024D4601D5164300E096432E604D682D
:10270000DAF80060AD02554601D5164300E0964365
:102710002E604D68DBF80060AD035D4601D51643C1
:1027200000E096432E604D68DEF80060ED037546CC
:1027300001D5164300E096432E60641C0D682A46BE
:10274000E5407FF431AFBDE8F88F00000804014098
:10275000000011100010024000000140000801407C
:10276000000C014000100140001401408068084046
:1027700000D0012070470AB1016170470904FBE7EE
:1027800001488068704700000800002070B5040010
:1027900025D094F83D00002520B984F83C5020460F
:1027A00000F076FA242084F83D002068016821F0CA
:1027B000010101602068016841F400410160206866
:1027C000016821F40041016000F0BEFB4D4A6168E0
:1027D000914201D84C4900E04C49884201D2012085
:1027E00070BD4B492368B0FBF1F15E6826F03F06EF
:1027F0000E435E606368934206D94FF49673594363
:102800004FF47A73B1FBF3F12368491C1E6A26F07A
:102810003F06314319626168914210D84900401E59
:10282000B0FBF1F2521CC2F30B02042A01D20420C5
:1028300022E0B0FBF1F0401CC0F30B001CE0A268EA
:10284000F2B301EBC10303EB0116431EB3FBF6F336
:102850005B1C43F480431B0549D092B301EBC102DA
:1028600002EB0111401EB0FBF1F0401CC0F30B0065
:1028700040F4804040F400402168CA694CF6FF7380
:102880009A431043C861D4E90710014320680268E5
:1028900022F0C00211430160D4E903010143206822
:1028A000826848F2FF339A4311438160D4E90501FD
:1028B00008432168CA6822F0FF021043C86001E0A3
:1028C0000EE016E02068016841F001010160256416
:1028D000202084F83D00256384F83E50002070BD20
:1028E00001EB4106431EB3FBF6F35B1CB3E701208B
:1028F000C2E701EB4101401EB0FBF1F0401CC0F308
:102900000B00B7E7A086010080841E0000093D008F
:1029100040420F002DE9F84F0025DDF82890984639
:1029200017468A4604460095FFF72AFF064694F8A4
:102930003D0020287AD1192301228649204600969D
:1029400001F042F80028F5D194F83C0001286DD040
:10295000012084F83C0020680168C90703D10168A0
:1029600041F0010101602068016821F4006101600B
:10297000222084F83D00102084F83E002564676220
:10298000A4F82A80608D20857348E06233464A4669
:102990005146204600F028FF00287CD1208DDFF82A
:1029A000BC81202768B1012814D002282068016862
:1029B0001ED041F480610160206841698069009007
:1029C000BBE02068416981690091016841F40071B0
:1029D0000160B2E02068016821F48061016072B694
:1029E0002068416981690091016841F400710AE041
:1029F00041F40061016072B620684169816900910B
:102A0000016821F48061016062B696E0032865D810
:102A100001280CD002284B464FF0000241462046C8
:102A200000960BD000F0D0FFA8BB0CE090E032463F
:102A30004946204601F06EF868BB71E000F0C4FF23
:102A400048BB72B633E02068016821F48061016000
:102A500072B620680069616A0870606A401C606232
:102A6000208D401E2085608D401E60853C4846F2CA
:102A7000A8110068B0FBF1F0C0EBC00000EB8000D3
:102A80000090401E009007D020684069C043400776
:102A90000DD50098F5E727E044F8305F6773A5731C
:102AA000206940F02000206162B625731CE0206898
:102AB000016841F40071016020680069616A087072
:102AC000606A401C6062218D491E2185618D491E0E
:102AD000618562B621680969017025E03246494680
:102AE000204601F017F810B10120BDE8F88F2068EA
:102AF0000069616A0870606A401C6062208D401E37
:102B000081B22185608D401E608520684269D24374
:102B1000520712D4032903D1016821F480610160B6
:102B200020680069616A0870606A401C6062208DDC
:102B3000401E2085608D401E6085208D00287FF41A
:102B400065AF84F83D7084F83E5084F83C50CCE783
:102B50000220CAE7020010000000FFFF040001008D
:102B6000140000202DE9F84F1F4690468A4604467F
:102B7000DDF82890FFF704FE054694F83D00202874
:102B80007FD11923012240492046009500F01CFF07
:102B9000002876D194F83C00012872D0012084F8F6
:102BA0003C0020680168C90703D1016841F00101B8
:102BB00001602068016821F400610160212084F82F
:102BC0003D00102084F83E0000262664C4F82480CE
:102BD0006785608D20852D48E0622B464A46514628
:102BE000204600F077FE90B9206841698069009026
:102BF00036E02A464946204600F0C4FF50B1206C1A
:102C0000042804D12068016841F4007101600120AA
:102C1000BDE8F88F606A216800780861606A401C2E
:102C20006062618D491E6185218D491E89B22185B1
:102C300022685369DB435B070BD451B10078106104
:102C4000606A401C6062608D401E6085208D401E61
:102C500020852A464946204600F08AFE0028CED12B
:102C6000208D0028C5D154F83D0B016841F4007156
:102C70000160202004F81E09E67766770020C7E788
:102C8000FFE70220C4E70000020010000000FFFF81
:102C900010B586B000210091019102910391006866
:102CA0000F4988421AD10F4CA06940F00800A0617A
:102CB000A069694600F008000490C020009012202E
:102CC0000190032003900848FFF760FCE06940F49E
:102CD0000010E061E06900F40010049006B010BD3F
:102CE0000054004000100240000C0140024881687E
:102CF000027811448160704708000020074810B531
:102D0000016841F010010160032000F075F80F2008
:102D100000F006F800F024F8002010BD002002406A
:102D200070B50D4D04464FF47A712878B1FBF0F080
:102D30000A490968B1FBF0F000F0DCFA48B9102C40
:102D400007D200222146501E00F036F800206C60A9
:102D500070BD012070BD000008000020140000209C
:102D60000C4808B5816941F001018161816901F078
:102D700001010091C16941F08051C161C06900F059
:102D8000805000900448416821F0E06141F00071FA
:102D9000416008BD0010024000000140002809DB2E
:102DA00000F01F02012191404009800000F1E02065
:102DB000C0F8001170470000F0B40E4B1B680C46C1
:102DC000C3F30223C3F10705042D00D90425191DFF
:102DD000072901D2002300E0DB1E012606FA05F1D7
:102DE000491E214099409E40761E16403143F0BC5A
:102DF00001F01DBF0CED00E0064900F00702086875
:102E00004FF6FF03184040EA0220034A10430860CF
:102E1000704700000CED00E00000FA052DE9F047D6
:102E20000F46050061D0434E306800F00700B842FD
:102E300009D2306820F0070038433060306800F075
:102E40000700B84251D128683B4C810712D5400792
:102E500003D5606840F4E06060602878000703D51F
:102E6000606840F4605060606068A96820F0F0001D
:102E7000084360602878C00728D06868012810D00F
:102E80002168022810D0890700292EDA616821F014
:102E9000030101436160FFF773FC804641F288390A
:102EA0000DE021688903EFE78901EDE7FFF768FC92
:102EB000A0EB0801494502D90320BDE8F08760680E
:102EC000696800F00C00B0EB810FEFD1306800F0C2
:102ED0000700B8420BD9306820F007003843306053
:102EE000306800F00700B84201D00120E5E72878FB
:102EF000400705D56068E96820F4E0600843606039
:102F00002878000706D56068296920F4605040EAF7
:102F1000C100606000F038F86168084AC1F303112D
:102F2000515CC8400649086006480068FFF7F8FE93
:102F30000020C2E700200240001002408A6300081F
:102F4000140000200C00002004480549006849686E
:102F5000044AC1F30221515CC840704714000020AC
:102F6000001002409A630008044805490068496857
:102F7000044AC1F3C221515CC840704714000020CC
:102F8000001002409A6300080E4A51680E4801F092
:102F90000C03042B11D0082B0FD10C48C1F3834331
:102FA000C903C05C0AD55168084AC1F34041921E6A
:102FB000515C054A5043B0FBF1F070470449484367
:102FC000704700000010024000127A007A63000887
:102FD00000093D002DE9F84F040070D02078C04D65
:102FE000C00749D06868C0F38100012807D068682D
:102FF000C0F38100022809D16868C00306D528689B
:10300000800339D560680028E7D035E06068B0F506
:10301000803F0BD010B1B0F5A02F11D0286820F45C
:1030200080302860286820F4802002E0286840F47E
:1030300080302860606890B1FFF7A2FB06460AE086
:10304000286840F480202860F0E700BFFFF798FB75
:10305000801B642873D828688003F7D50CE0FFF73D
:103060008FFB064605E000BFFFF78AFB801B642844
:10307000F0D828688003F7D420789A4E80074FF064
:1030800001094FF0000839D5686810F00C0F07D01F
:103090006868C0F38100022809D16868C00306D4BB
:1030A0002868800714D52069012808D110E020691C
:1030B000B0B1C6F80090FFF763FB074605E00AE1F0
:1030C000FFF75EFBC01B0228C4D828688007F7D52D
:1030D0002868616920F0F80040EAC10028600DE02E
:1030E000C6F80080FFF74CFB074604E0FFF748FBFB
:1030F000C01B022823D828688007F7D4207800074F
:103100002CD57948A169D9B1C0F80090FFF738FBF8
:10311000074604E0FFF734FBC01B02280FD8686A9B
:103120008007F7D571484FF4FA510068B0FBF1F011
:10313000009000BF0098411E0091FAD20EE080E09E
:10314000C0F80080FFF71CFB074604E0FFF718FB00
:10315000C01B022875D8686A8007F7D4207840071A
:1031600060D5E8690027C00008D4E86940F08050C5
:10317000E861E869012700F0805000905C48016830
:10318000C90513D40168834641F480710160FFF7DB
:10319000F7FA824606E000BFFFF7F2FAA0EB0A005A
:1031A00064284ED8DBF80000C005F5D5E06801289A
:1031B0000AD008B1052813D0286A20F0010028623F
:1031C000286A20F0040002E0286A40F0010028622A
:1031D000E06841F2883B98B1FFF7D2FA82460BE0F3
:1031E000286A40F004002862EEE700BFFFF7C8FA43
:1031F000A0EB0A0159455AD8286A8007F6D50CE099
:10320000FFF7BEFA824605E0FFF7BAFAA0EB0A0123
:1032100059454CD8286A8007F6D41FB1E86920F0D8
:103220008050E861E06988B36968C1F381010229CF
:1032300044D00228C6F8608004D0FFF7A1FA044603
:1032400038E034E0FFF79CFA074604E0FFF798FA0D
:10325000C01B02282BD828688001F7D4206AB0F55B
:10326000803F05D16868A16820F400300843686099
:10327000D4E908010843696821F4741108436860BF
:10328000C6F86090FFF77CFA044606E025E000BF30
:10329000FFF776FA001B022809D828688001F7D5C5
:1032A0001BE000BFFFF76CFA001B022802D90320C5
:1032B000BDE8F88F28688001F4D40EE00128F7D02B
:1032C0006868226A00F48031914204D1616A00F496
:1032D0007010884201D00120EAE70020E8E70000F2
:1032E00000100240000042428004424214000020CC
:1032F0000070004010B5401EB0F1807F01D3012066
:1033000010BD4FF0E02460610F21601701F08FFCC9
:103310000020A06107202061002010BD7047704789
:10332000F8B5016804460868CA684B6910F00F0FC9
:103330004FF0000559D003F0010602F490773743AF
:1033400065D0C10705D0D10503D5616C41F00101FD
:103350006164410705D5D90703D0616C41F00201D2
:103360006164810705D5D90703D0616C41F0040180
:103370006164010707D502F02001314303D0616C7D
:1033800041F008016164616C00293AD0800604D5DF
:10339000900602D5204601F018FB20684069616C58
:1033A000C0F38010090700D460B3204601F0E6FAAC
:1033B00020684069400621D52068143050E8001F7D
:1033C00021F0400140E80012002AF5D1E06BA8B1DD
:1033D0006D494163E06BFFF76DF8002811D0E06B99
:1033E000416B01B0BDE8F040084783060FD5930656
:1033F0000DD52046BDE8F84001F0E7BA2046FFF7BA
:103400008EFFF8BD2046FFF78AFF6564F8BD266B86
:103410002023012E7CD1C6067AD5D60678D5086839
:103420004868009048694FF00206400640D5E16BBD
:10343000086840680004000CE8D0A28D8242E5D9FB
:10344000E085886920282DD020680C3050E8001FC6
:1034500021F4807140E80012002AF5D12068143070
:1034600050E8001F21F0010140E80012002AF5D1C8
:103470002068143050E8001F21F0400140E800129D
:10348000002AF5D184F84230256320680C3050E8DA
:10349000001F21F0100140E80012002AF5D1E06B76
:1034A000FEF7E4FF6663A08DE18D401A81B22AE049
:1034B000A08DE18D401A81B2E08D0028A6D00029B0
:1034C000A4D022680C3252E8000F20F4907042E839
:1034D0000007002FF5D12068143050E8002F22F0AB
:1034E000010240E80027002FF5D184F8423025631F
:1034F00020680C3050E8002F22F0100240E8002332
:10350000002BF5D166632046FFF708FFF8BDFFE703
:1035100005062BD5150629D594F841002128F5D1AB
:10352000A068B0F5805F01D12069B0B1206A411C6C
:103530002162216800784860E08C401E0004000C85
:10354000E084E3D12068C16821F08001C160206877
:10355000C16841F04001C160D8E7206A0088C0F32B
:1035600008004860206A801C2062E5E74006CDD54F
:103570005006CBD5CA68204622F04002CA6084F8C3
:10358000413000F017F9C1E76D49000870B504003B
:1035900004D094F84100002510B106E0012070BD70
:1035A00084F84050204600F023F8242084F841009D
:1035B0002068C16821F40051C160204601F066FA1C
:1035C0002068016921F4904101612068416921F07E
:1035D0002A0141612068C16841F40051C1606564FD
:1035E000202084F8410084F842006563002070BD0B
:1035F00070B586B0002400940194029403942E4E7A
:1036000003682E49022003222D4DB34226D18B6937
:1036100043F480438B618B6903F4804304938B698B
:1036200043F004038B618969039201F00401049162
:103630000102CDE9001069462846FEF7A7FF2815CC
:10364000CDE90004694628460294FEF79FFF002258
:1036500002212520FFF7B0FB252028E0194EB342B8
:1036600027D1CB6943F40033CB61CB6903F400333A
:1036700004938B6943F004038B618969039201F021
:10368000040104910421CDE9001069462846FEF7A3
:103690007DFF0820CDE90004694628460294FEF724
:1036A00075FF002203212620FFF786FB2620FFF767
:1036B00075FB06B070BD00000038014000100240EC
:1036C000000801400044004090F84230202B01D017
:1036D0000220704721B11AB10023036301F032BA0E
:1036E0000120704710B50068074988420BD1074890
:1036F0008078FEF7A1FE05490122BDE81040891C33
:103700000348FFF7E1BF10BD003801400000002072
:10371000BC0000202DE9F843044690F8410098468B
:1037200016460D46202802D00220BDE8F88385B158
:103730007EB100206064212084F84100FFF720F86A
:10374000A6848146E684A0682027B0F5805F02D079
:1037500003E00120E9E7206910B12E4600250EE0C4
:1037600000260CE08021204601F007FAA8B9C6B176
:1037700016F8010B21684860E08C401EE084E08C64
:103780004B464FF00002CDF800800028EAD14FF000
:103790004001204601F0F1F940B184F84170032066
:1037A000C3E735F8020BC0F30800E3E784F8417083
:1037B0000020BAE77047FEE701684A69D243520524
:1037C0000FD46FF480624A61002140F8301F20223C
:1037D00042738173026942F00402026101730120A5
:1037E00070470020704700002DE9F84F0446C06A7A
:1037F0001E4693460D4621680A6842F480620A60BC
:10380000082807D0012805D010F5803F02D0206B92
:10381000112804D12068016841F4807101604FF0E3
:1038200001195B46002249462046009600F0CCF87C
:103830004FF4007840B120680068C00501D5C4F895
:1038400040800320BDE8F88F2069DFF884A0B0F540
:10385000804F0FD00620216800EAD51747F0F0000E
:10386000086133465A460AF10601204600F0F4F892
:1038700058BB03E0E8B240F001001CE02168E8B268
:10388000086133465A465146204600F0E5F8E0B953
:103890002068416981690091016841F4807101608B
:1038A0005B46002249462046009600F08DF800282D
:1038B000C1D147F0F1002168086133465A465146AC
:1038C000204600F0C9F80028BCD00120BAE700006B
:1038D00002000100F8B50446C06A1E460D461746B0
:1038E000082807D0012805D010F5803F02D0206BB2
:1038F000122804D12068016841F4807101601346E8
:1039000000224FF001112046009600F05DF840B112
:1039100020680068C00502D54FF4007020640320C1
:10392000F8BD2069B0F5804F0ED00620216800EA6E
:10393000D51040F0F000086133463A460B49204666
:1039400000F08AF878B902E005F0FE0000E0E8B285
:1039500021680861054933463A46891F204600F030
:103960007BF80028DCD00120F8BD00000800010031
:1039700070B516460D4604461EE02046FFF71CFFB4
:1039800008B1012070BD681C16D0FEF7F9FE801B3F
:10399000A84200D885B920684069C04340070BD5CC
:1039A000002044F8300F20216173A073216941F099
:1039B000200121612073E4E720684069C04340078B
:1039C000DBD4002070BD00002DE9F0479846174673
:1039D0000D460446C1F30746DDF820902AE000BFFB
:1039E000B8F1FF3F26D0FEF7CBFEA0EB0901414521
:1039F00002D8B8F1000F1DD12068012E16D08069C1
:103A000025EA00000004000C12D00020B84211D1B9
:103A1000002044F8300F20216173A073216941F028
:103A20002001216120730120BDE8F0874069E7E7AC
:103A30000120EBE72068012E0AD0806925EA00000A
:103A40000004000C06D00020B842C9D00020EBE7EB
:103A50004069F3E70120F7E72DE9F047984616465D
:103A60000D4604464FF000094FF0200AC1F3074706
:103A700023E020684069C043400515D420680168F0
:103A800041F40071016021686FF480604861C4F8FE
:103A9000309084F83DA084F83E90216C41F0040100
:103AA000216484F83C9021E0701C06D0FEF768FE8B
:103AB000A0EB0800B04203D816B1012F1FD021E0BF
:103AC0002068012F15D0806925EA00000004000C51
:103AD00018D000BF44F8309F84F80DA084F80E90F1
:103AE000216941F02001216184F80C900120BDE89A
:103AF000F087406925EA00000004000CEAD1206844
:103B0000406901E02068806925EA00000004000C9B
:103B1000AFD1ECE72DE9F041002590460E46044672
:103B2000202728E04069C043C0060CD454F8301B5D
:103B30006FF01000486144F810596777A577206A44
:103B40002062257714E0FEF71BFEA0EB0800B042D0
:103B500000D886B920684069C04340060BD544F8B8
:103B6000305F6773A573206940F0200020612573E2
:103B70000120BDE8F08120684169C9434906D1D4DC
:103B80000020F6E770B516460D4604461EE02046B6
:103B9000FFF712FE08B1012070BD681C16D0FEF7B9
:103BA000EFFD801BA84200D885B920684069C0435A
:103BB00000060BD5002044F8300F20216173A0735C
:103BC000216941F0200121612073E4E72068406908
:103BD000C0430006DBD4002070BD00002DE9F05F7B
:103BE0000446026842488168551885606168C36868
:103BF0000B44C3600188491C89B20180192974D320
:103C0000B5FBF1F6B3FBF1F741683A4D8346A2EB01
:103C1000010A4FF07E5842607EB1304602F0CAF988
:103C20008146384602F0C6F9494602F0ADF84045F3
:103C300001DD404602E0A84200DA284602F016F80C
:103C400000222D4B01F0E8FD00222C4B01F018FF63
:103C500001F00CFB0746E06041F288300025864207
:103C600030D9301A02F0A6F9254902F08DF8414604
:103C7000DFF890800646884201DD0E4602E04645A8
:103C800000D30026504601F073FD00221E4B01F0C8
:103C9000DBFB81468A46304601F0E8FF00221B4BE1
:103CA00001F0BAFD00221A4B01F012FB4A465346BE
:103CB00001F00EFB01F0DAFA1649A060884203DD3C
:103CC000A16004E0A56009E0404500D3A56012486A
:103CD000874201DDE06002E0474500D3E560CBF8B4
:103CE0000850CBF80C50ABF80050BDE8F09F000036
:103CF000180000209A99993E0000394000805B40EE
:103D0000005043470000808000408F400000444046
:103D100000004E40000034430000C84208B50021B6
:103D20000091B1EBC00F01D2491CF9E708BD0000BA
:103D300070B500F0F5F90E4C0122D1022046FEF7D5
:103D40001AFD0220FFF7EAFF0122950229462046CC
:103D5000FEF711FD0520FFF7E1FF0022294620466E
:103D6000FEF709FDBDE870400220FFF7D7BF000055
:103D7000000C014010B5044600F0C8F8AE2000F079
:103D800095F800F00BF9204600F090F800F006F9E5
:103D900000F0BCF8AF2000F089F800F0FFF800F068
:103DA00055F80446FFF7C4FF00F0D8F8204610BDD0
:103DB0002DE9F04715468946044600F0A7F8AE20E5
:103DC00000F074F800F0EAF8204600F06FF800F018
:103DD000E5F800F09BF8AF2000F068F800F0DEF89E
:103DE00000246E1E4FF4006A174F4FF4806824E0E1
:103DF00000F02CF809F80400B4421ADA00F090F947
:103E0000002251463846FEF7B6FC0220FFF786FF37
:103E1000012241463846FEF7AEFC0520FFF77EFF43
:103E2000002241463846FEF7A6FC0220FFF776FF47
:103E300001E0FFF77DFF641CE4B2AC42D8D3BDE8DB
:103E4000F04700F08BB80000000C01402DE9F04174
:103E5000002400F055F9144E00254FF400684FF48B
:103E600080676006040E012239463046FEF783FC67
:103E70000520FFF753FF41463046FEF777FC012847
:103E800001D144F00104002239463046FEF773FCAC
:103E90000220FFF743FF6D1CEDB2082DE1D300F0C7
:103EA0003FF92046BDE8F081000C01402DE9F041CA
:103EB000054600F035F9144F00244FF400683E1514
:103EC000280601D5012200E0002241463846FEF7CF
:103ED00052FC0220FFF722FF012231463846FEF74E
:103EE0004AFC0520FFF71AFF002231463846FEF74C
:103EF00042FC0220FFF712FF6806641C050EE4B2C4
:103F0000082CDDD3BDE8F081000C014070B500F055
:103F100007F90122104DD40221462846FEF72BFC5A
:103F20000122960231462846FEF725FC0520FFF7C0
:103F3000F5FE002221462846FEF71DFC0520FFF76E
:103F4000EDFE002231462846FEF715FCBDE8704024
:103F50000520FFF7E3BE0000000C014070B500F043
:103F6000DFF80D4D4FF40064002221462846FEF78D
:103F700002FC012291022846FEF7FDFB0520FFF717
:103F8000CDFE012221462846FEF7F5FBBDE8704034
:103F90000520FFF7C3BE0000000C014070B50024EF
:103FA00000F0AEF80220FFF7B9FE01220D4D960297
:103FB00031462846FEF7DFFB0520FFF7AFFEE91488
:103FC0002846FEF7D3FB012800D101240022314608
:103FD0002846FEF7D0FB0220FFF7A0FE00F0A0F875
:103FE000204670BD000C014070B50D460446FFF739
:103FF0008DFFAE20FFF75AFFFFF7D0FF2046FFF7F7
:1040000055FFFFF7CBFF2846FFF750FFFFF7C6FF2E
:10401000BDE87040FFF7A2BF10B500F081F800F0D6
:1040200064F86420FEF792FA00210220FFF7DCFF1B
:1040300000210320FFF7D8FF00210420FFF7D4FF61
:1040400050210820FFF7D0FF43210A20FFF7CCFFC3
:104050006F210C20FFF7C8FF6F210D20FFF7C4FF71
:10406000032000F06DF8BDE810406420FEF76EBA42
:104070007CB505460220FFF77DFE04460420FFF7CD
:1040800079FE844201D3201A02E0C0F120002044CE
:10409000C6B2002421E0062269460520FFF788FE0B
:1040A0009DF800009DF801108007800B40EA012078
:1040B0009DF80210084328609DF803009DF8041045
:1040C0008007800B40EA01209DF8051008436860D6
:1040D0002846FFF783FD641CE4B2B442DBD3002E14
:1040E00002D12846FFF77AFD7CBD10B5402109209A
:1040F000FFF77AFFBDE810406420FEF727BA000002
:104100001FB50020019003904FF400600090012043
:10411000029069460148FEF739FA1FBD000C0140C4
:104120001FB54FF400600090012001900290032021
:10413000039069460148FEF729FA1FBD000C0140B3
:1041400001460920FFF750BF10B56420FEF7FEF9C5
:1041500000216B2000F090F86420FEF7F7F90721AA
:10416000192000F089F806211A2000F085F818219E
:104170001B2000F081F801211C2000F07DF8BDE833
:1041800010406420FEF7E2B91FB504460E226946CE
:104190003B2000F035F8BDF8000040BA2080BDF8A3
:1041A000020040BA6080BDF8040040BAA080BDF8AB
:1041B000060040BA00B201F0DBFA00220B4B01F01E
:1041C00043F90B4A0B4B01F083F801F04FF8E06024
:1041D000BDF8080040BAE080BDF80A0040BA20816E
:1041E000BDF80C0040BA60811FBD00000040754062
:1041F000A4703D0AD7434240752000F01FB800006C
:10420000F7B582B00B4D6424009428780F4616460B
:104210004100012302AA0848FEF7A4FC0094287874
:10422000012101EB400133463A460348FEF772FB99
:1042300005B0F0BD280000206800002031B582B034
:104240000B4D6424009428780123410002AA0948F8
:10425000FEF788FC00942878012101EB400101233E
:1042600001AA0448FEF756FB9DF804003EBD00007D
:1042700028000020680000201CB502238DF80400EF
:104280006420009004488DF8051001AA00784100D0
:104290000248FEF767FC1CBD2800002068000020D3
:1042A0002DE9F04385B0002000900190029003902A
:1042B0003748816941F010018161816901F0100185
:1042C0000491816941F020018161816901F020013F
:1042D0000491816941F004018161816901F0040167
:1042E0000491816941F0080181618069294F00F0E2
:1042F00008004FF460440490012221463846FEF73E
:104300003AFADFF89480012203214046FEF733FA9F
:10431000DFF88890E610012231464846FEF72BFA76
:10432000009401240325694638460194CDE90245ED
:10433000FEF72CF9CDE9005469464046CDE9024527
:10434000FEF724F94FF4817000901548CDE901047F
:1043500069464846FEF71AF9CDE9006469464846C1
:10436000CDE90245FEF712F9002201210720FEF7F0
:1043700023FD0720FEF712FD002211461720FEF74D
:104380001BFD1720FEF70AFD05B0BDE8F083000015
:10439000001002400010014000080140000C0140E4
:1043A000000021100D4810B50B4901600C49416017
:1043B00000214FF480428160C0E9031241618161B4
:1043C000C1610162FEF7E2F9002803D0BDE81040A8
:1043D000FDF737BF10BD000000540040680000200A
:1043E000A08601000C4810B50A4901604FF416512F
:1043F0004160002181600C22C160C0E9041281612A
:10440000C161FFF7C3F8002803D0BDE81040FDF7F5
:1044100018BF10BD00380140BC0000200C4810B58A
:104420000A4901604FF4E1314160002181600C22B2
:10443000C160C0E904128161C161FFF7A7F80028DB
:1044400003D0BDE81040FDF7FCBE10BD00440040A5
:1044500004010020FEE7FEE730B40021084B0A46C5
:104460005FF0000003EBC004401CC0B2625480281F
:10447000F8D3491CC9B20829F2D330BC00F0A8B85F
:104480004C01002030B5CC0801F0070301259D4008
:10449000EBB2064D05EBC005C808285C0AB118430D
:1044A00002E063EA0000C043285530BD4C01002003
:1044B00070B5424D4FF40044002221462846FEF7D5
:1044C0005AF9C820FEF742F8012221462846FEF795
:1044D00052F90021AE2000F069F90021084600F0F1
:1044E00065F90021102000F061F90021402000F062
:1044F0005DF90021812000F059F90021CF2000F062
:1045000055F90021A12000F051F90021C82000F048
:104510004DF90021A62000F049F90021A82000F063
:1045200045F900213F2000F041F90021D32000F09F
:104530003DF90021084600F039F90021D52000F0AE
:1045400035F90021802000F031F90021D92000F058
:104550002DF90021F12000F029F90021DA2000F0E6
:1045600025F90021122000F021F90021DB2000F0C4
:104570001DF90021402000F019F90021202000F051
:1045800015F90021022000F011F900218D2000F022
:104590000DF90021142000F009F90021A42000F0F9
:1045A00005F90021A62000F001F9FFF755FFBDE84D
:1045B00070400021AF2000F0F9B800000010014069
:1045C0000246012000E05043491EC9B2FBD27047A9
:1045D00070B5114E002400BF04F1B000C0B200213C
:1045E00000F0E4F80021084600F0E0F80021102077
:1045F00000F0DCF85FF0000506EBC5000121005D6E
:1046000000F0D4F86D1CEDB2802DF5D3641CE4B23B
:10461000082CE1D370BD00004C0100202DE9FC4FB7
:104620001C460E4682468B460190082B0DD0600733
:1046300000D0012000EBD40061084843C0B281469D
:10464000203AD0B2009000204BE00620F7E7082C7B
:1046500013D00C2C18D0102C1BD0182C44D100983F
:10466000234900EBC00000BF01EB8001002711F8D7
:104670000850E80712D00B9A13E000981D4900EB90
:10468000400001EB4001F1E700981B4900EB4000BE
:10469000EAE71A49009801EB0011E7E70B9828B305
:1046A000002231465046FFF7EDFE761C7F1C6D0858
:1046B000FFB2F6B2082FDCD30AF1010000F0FF0AC6
:1046C000082C0AD00199AAEB0100B0EB540F04D1D9
:1046D0000BF108008A4600F0FF0B08F101005E466E
:1046E000C0B280464845B2D3BDE8FC8F0122D8E76E
:1046F0002E700008A2630008CA6500083E6A000820
:104700002DE9F84F0025DDE90A691F4692468B46E0
:104710008046082E00D1022500241CE0381B401ED4
:10472000C1B20A20FFF74CFFBAFBF0F00A21B0FB40
:10473000F1F201FB1200CDF8009080B13030C2B22E
:1047400005EB560101FB0480C0B233465946FFF722
:1047500065FF641CE4B2BC42E0D3BDE8F88F05EB12
:10476000560101FB0480C0B233463022EEE72DE94A
:10477000F8411E46154688460446079F0BE033461F
:10478000414620460097FFF749FF082E0AD004EB68
:104790005600C4B26D1C2A78A2F120005E28EED922
:1047A000BDE8F881A41DE4B2F4E700002DE9F0476C
:1047B0001D4C054609B1012200E0002201212046DE
:1047C000FDF7D9FF00220221A0462046FDF7D3FFC6
:1047D000164F00244FF480494FF400560022314612
:1047E0003846FDF7C8FF280601D5012200E0002267
:1047F00049463846FDF7BFFF012231463846FDF7EE
:10480000BAFF6806641C050EE4B2082CE6D3012248
:10481000022144464046FDF7AEFF2046BDE8F04782
:1048200001221146FDF7A7BF00080140001001401A
:10483000704770472DE9F04F2F48CDB0A0F120050B
:10484000C77AA0F11004E86801F010FA83460091DD
:10485000A86801F00BFA0B46B4F90AA0B4F9089065
:10486000B4F90680B4F90460B4F90250B4F9004018
:10487000002F009902465F4624D01F48CDE902234D
:104880008B46406801F0F2F9CDE900011A48006852
:1048900001F0ECF902460B46DDE90201CDE90A7BA5
:1048A000CDE90801DDE900010791CDE90530CDE949
:1048B00003A28DE840032B46224610490CA8FBF7C3
:1048C00099FC0DE08C461946CDE90421CDE9067C22
:1048D0008DE840072B46224609490CA8FBF78AFCC5
:1048E0000CA8FBF783FD82B264230CA90548FEF7F0
:1048F00011FF4DB0BDE8F08F500000204882000845
:10490000C882000804010020FEF7F0B930B58FB06E
:1049100028216846FBF7BBFD14210AA8FBF7B7FD69
:1049200001210804CDE9001000240294022504911D
:10493000CDE907504FF4E01009906846FEF74AFBB6
:1049400008B172B6FEE70F20CDE90A054FF480608A
:10495000CDE90C4002210AA80E94FEF75FFA002868
:1049600001D072B6FEE70FB030BD704710B5406A97
:104970000021C185C184FEF7D2FC10BD01680C3155
:1049800051E8002F22F4907241E80023002BF5D16A
:104990000168143151E8002F22F0010241E80023A0
:1049A000002BF5D1016B012909D101680C3151E8C7
:1049B000002F22F0100241E80023002BF5D1202126
:1049C00080F8421000210163704708B590F842104A
:1049D000222901D0022008BD82684FF480539A42F8
:1049E00001D1016921B1816A9A421BD04AB10AE022
:1049F0000268816A5268C2F308020A80816A891CCF
:104A000008E0026972B10268526802F07F020A701F
:104A1000816A491C8162C18D491E0904090CC18546
:104A200003D01BE002685268F1E70168CA6822F00F
:104A30002002CA600168CA6822F48072CA600168F4
:104A40004A6922F001024A61202180F842100021C7
:104A50004163026B012A03D0FEF744FE002008BD2B
:104A6000016301680C3151E8002F22F0100241E887
:104A70000023002BF5D101680A68D20602D50A6826
:104A800049680091818DFEF749FCE7E770B504465F
:104A900000680169E26821F4405111430161216914
:104AA000A0680843616908432168CA6841F20C6341
:104AB0009A430243CA6020684169A26921F44071A7
:104AC000114341611E492068884202D1FEF74CFA29
:104AD00001E0FEF739FA00EBC00101EB001260685B
:104AE00064218000B2FBF0F3B3FBF1F36FF0180622
:104AF0007343B2FBF0F5B2FBF0F605EB830532230E
:104B000003EB0515B5FBF1F5B6FBF1F605F0F00585
:104B100005EB0615B2FBF0F6B2FBF0F0B0FBF1F0DE
:104B20006FF01802504306EB800003EB0010B0FB5F
:104B3000F1F0216800F00F002844886070BD00008B
:104B40000038014081628285C285002141642221B2
:104B500080F84210016921B10168CA6842F480728C
:104B6000CA6001684A6942F001024A610068C1688E
:104B700041F02001C160002070472DE9F8439846BC
:104B800017460D460446089E24E0701C22D0FDF70F
:104B9000F7FDA0EB0800B0421AD8CEB12068C1687A
:104BA000490717D5802D15D0402D13D00168C94372
:104BB00009070FD401680025406800902046FFF7E0
:104BC000DDFE0820606484F840500120BDE8F883D1
:104BD0000320FBE72068006835EA000004D00020CD
:104BE000B842D2D00020F1E70120F9E70148FEF7F2
:104BF00097BB0000BC0000200148FEF791BB0000FD
:104C000004010020FEE7490050EAC12018BF04203B
:104C10004A0D18BF40F0010040F2FF72B2EB515F45
:104C200008BF40F00200012808BF052070470907AF
:104C3000090E002804DB00F1E02080F80014704722
:104C400000F00F0000F1E02080F8141D704740F2E2
:104C5000013200204FF0E04101F042BB024A002047
:104C6000110701F03DBB000001FDFFFF10B5044638
:104C7000D1E9000100F002F8206010BDF8B504464B
:104C80000D466A4600F080F800987E3000900028BB
:104C90001EDC002213462046294600F02DFD17D0C9
:104CA000002140F608004FF0000006462046294645
:104CB00000F0DCFA044640F6080006EA00014FF076
:104CC000000034F0004004BF0220FBF714FC29E090
:104CD0000098FF2828DB002108464FF0000000F470
:104CE0004006002213462046294600F093FE8CBF62
:104CF000002501250220FBF7FEFB4FF0FF4446B1E3
:104D0000002D0CBF4FF400004FF48000B04218BFDC
:104D1000084C042108464FF00000002D04BF84F029
:104D20000040F8BD2046F8BD20462946BDE8F840C1
:104D300000F09CBAFFFF7F7F10B504460A46D4E915
:104D40000003194600F04CF8C4E9000110BD3038EA
:104D50000A2801D2012070470020704730B583B087
:104D60000446FBF7C3FB05460020CDE900000246E0
:104D700021466846FBF76AFE2846FBF7BCFBDDE9E7
:104D8000000103B030BD000010B5144600222260BF
:104D9000114A21F000439342A8BF10BD53EA00021C
:104DA00008BF10BDB3F5801FA8BF226807DA3622FE
:104DB00001F096FA6FF0350221F000432260DFF82F
:104DC0001CC06FF31E510CEB23531A4441F0FF51EA
:104DD00041F00051226010BD0000F07F02FCFFFF97
:104DE0002DE9F04106460C4640F2FF75174635EABC
:104DF00014502BD000221346304600F07DFC25D005
:104E00003A463046214601F06BFA06460C4635EA32
:104E1000145010D000221346304600F06DFC15D11E
:104E20000220FBF768FBFFF719FF0A46214662F3F1
:104E30001E01BDE8F0810220FBF75DFBFFF707FFD5
:104E40000A46214662F31E01BDE8F0813046214644
:104E5000BDE8F0811CB5FDF751FFFFF757FDFFF7E7
:104E60001FFAFFF79FFAFFF7BDFAFFF7D7FAFFF730
:104E70001FFBFFF7D1F8FFF767F9FFF7BDF905460C
:104E8000FFF7EAFA012400210823C2A20846009491
:104E9000FFF76DFC0826CDE9006402232A460021B5
:104EA0005020FFF72DFCFFF793FB4FF4FA70FDF74E
:104EB0004DFBFDF7DDF90122B949BA48FEF704FCC4
:104EC000DFF8E482DFF8E4B2B146B948FFF7D0F882
:104ED000B7481030FFF758F9B5481030FDF756F9CC
:104EE000B3482030FDF7B0F9AD4DAD1E687800280D
:104EF00041D0FFF7B1FA002068700823ADA2014647
:104F00000094FFF734FC0823ABA200214820009452
:104F1000FFF72DFC0823AAA2194600200094FFF7F2
:104F200026FC0823A7A2102100200094FFF71FFCF5
:104F30000823A5A2182100200094FFF718FC0823DD
:104F4000A3A2182150200094FFF711FC0823A2A26D
:104F5000202100200094FFF70AFC0823A0A22821AA
:104F600000200094FFF703FC08239FA2002180206B
:104F70000094FFF7FCFB8E4D4FF40006A868B0428A
:104F80000FDB00F0DFFFCDE9009402460323002190
:104F90001820FFF7B5FB0823002194A230200094CD
:104FA00004E0082392A2002118200094FFF7DFFB01
:104FB000E868B0420ADB00F0C5FFCDE90094024684
:104FC000032300216820FFF79BFB06E0082388A24B
:104FD000002168200094FFF7CAFB754E6427103645
:104FE0004D46B6F90000CDE9009490FBF7F202239C
:104FF00008211020FFF784FBB6F90200CDE9005428
:1050000090FBF7F2022308213020FFF779FBB6F975
:105010000400CDE9005490FBF7F202230821502050
:10502000FFF76EFBB6F90600CDE9005490FBF7F2EE
:10503000102102230846FFF763FBB6F90800CDE90B
:10504000005490FBF7F2022310213020FFF758FBA9
:10505000B6F90A00CDE9005490FBF7F202231021C3
:105060005020FFF74DFB10364FF00803F07A009404
:1050700008B160A200E061A218212020FFF777FBB1
:10508000CDE900542F46327B022318217020FFF710
:1050900037FB30684FF008034045009405D22021CB
:1050A00058A20846FFF763FB08E0202156A20846F5
:1050B000FFF75DFB306880F00040306035682846BF
:1050C00000F024FF824600F05DFF294601F052F80F
:1050D000594600F083FF00F019FFCDE90074054642
:1050E0000223524620213020FFF70AFB08232E22FC
:1050F000202140200094FFF791FACDE900740423A9
:105100002A4620214820FFF7FBFA70684FF0080379
:105110004045009405D23DA228212020FFF727FB1F
:1051200008E03BA228212020FFF721FB706880F0D7
:10513000004070607568284600F0E8FE064600F002
:1051400021FF294601F016F8594600F047FF00F00C
:10515000DDFECDE9007405460323324628213020C8
:10516000FFF7CEFA08232E22282148200094FFF7CB
:1051700055FACDE9007404232A4628215020FFF770
:10518000BFFAFFF725FAFFF755FB4FF47A70FDF7EA
:10519000DDF99AE64D5055363035302049443A0015
:1051A00002000020BC0000200000808000401C465F
:1051B0003000002048523A0053704F323A0000004D
:1051C000413A0000473A00004750533A00000000BF
:1051D000536174733A0000004C61743A000000009F
:1051E0004C6F6E3A000000002500000042504D0058
:1051F0002D2D2D0056616C6964000000496E7661AA
:105200006C6964004E20000053200000452000001F
:105210005720000010B500290AD00878002807D0D0
:1052200005487844FCF7F8F8002801D0002010BDAC
:105230000248784410BD00004A31000042310000AD
:1052400010B500290AD00878002807D0054878440E
:10525000FCF7E2F8002801D0002010BD0248784495
:1052600010BD00003A3100003231000021F0004250
:10527000A2F16052B2F5801F01F0004328BFD2F1C5
:105280007F6C0BD95FEA001C43EAC20242EB50700C
:1052900018BF704728BF20F001007047B2F5801F8B
:1052A000BCBF184670474FEA410C1CF5001F02D2E4
:1052B000084600F05ABF70B500F058FB00000089A6
:1052C000FFF7F6BF4FF00040A0F5800070470000E8
:1052D00010B591EA030F48BF83F0004300F1E48367
:1052E000841A71EB030C05D2121943EB0C03001B5B
:1052F00061EB0C01DFF824E14FEA1154A4EB135CDD
:105300001EEA430F18BF9EEA445F73D023EA0E03E0
:10531000DCF1200E21EA045143F4801332D322FA47
:105320000CFE10EB0E0023FA0CFE41EB0E01CCF14B
:10533000200E03FA0EFE10EB0E0051F10001B1F544
:10534000801FCCF1200E32D201EB045112FA0EF282
:10535000BDE8104058BF7047401C38BF5FEA4202AA
:1053600018BF7047002814BF20F0010041F1000170
:105370004FEA410313F5001F38BF7047A1F1C04148
:1053800000F042BB012A43EB0302ACF1200CDCF13C
:105390001F0E32BF4FF0000E23FA0CF310EB030088
:1053A00041EB0451B4EB115FD0D0A1EB045101F5F6
:1053B000801149085FEA300001EB04510ED350F12F
:1053C000000038BF12FA0EFE08D1BDE81040C9E750
:1053D000401C38BF5FEA4202CAD1C3E7BDE81040B3
:1053E0004FEA410313F5001F38BF7047A1F1C041D8
:1053F00000F00ABB9EEA445F08D011EA5E0FBDE8E8
:10540000104004BF01F0004100207047BDE810408B
:1054100070B500F0ABFA00BF64FBBE3E0000E0FFD9
:1054200002494FF0000000F029BF00BF0000F87FE4
:10543000491058BFC1F140415B1058BFC3F1404310
:105440008B42EFF3008070472DE9C04130B4DFF8A4
:10545000A0C23CEA111418BF3CEA131400F0EC801F
:1054600081EA03051CEA111444EAD57418BF1CEA4A
:10547000131500F0C780A4EB05044FF0004545EA82
:10548000C12145EAC32341EA505143EA525304F192
:105490007F74994204F500344FEAC0204FEAC222DB
:1054A00008BF904200F09C804FEA13650FF240164F
:1054B000765D4FEA134506FB05F7C7F1807706FBDB
:1054C00007F74FEAD737A7FB03687642C8F580385D
:1054D000A7FB06CE38BFA8F1010807FB08E64FF08E
:1054E000000EA6FB028CE6FB03CEDCF1000CCEF135
:1054F000004E38BFAEF1010EA6FB0C584FF000076E
:105500004FF00005E6FB0E87A1FB08C6A0FB07CE07
:1055100016EB0E0645F10005E1FB076515F1E04EBF
:105520007EBFA4F580345FEA46066D4116F1800720
:1055300045F100054FEA17274FEA066647EA056777
:10554000A6F1DE46B6F1805F4FEA15251FD9384631
:1055500024F0010C05EBC471BCF1FE6F01EB0C11E2
:1055600002D8F0BCBDE8008124425CBF01F5801E7A
:105570009EEAC47F02D4F0BCBDE80081244238D446
:10558000F0BCA1F1C041BDE8004100F03DBA4FEAD6
:10559000D22242EA43524FEAD323A7FB02864FEAC4
:1055A000D02040EA415007FB03661EEA0E0F4FEA87
:1055B000D12105FB026658BFA6EB0056B6EB00569C
:1055C0004FEA520E4EEAC37E18EB0E0E56EB530E08
:1055D000BDD518EB02085E417F1C55F10005B6E70A
:1055E0004FF480154FF000074FF000064FF0000811
:1055F000ADE7F0BC4FF0000001F1C04101F0004107
:10560000BDE8008111EA0C1F0CEA131500D00CE074
:1056100013EA0C1F00F025804FF00000F0BC81EA77
:10562000030101F00041BDE80081F0BCBDE800418C
:1056300081EA030100F0E8B9F0BCBDE8004170B5B3
:1056400000F094F9097EFC3E00F007B881EA0301FE
:105650004FF0000001F00041704781EA030100F0C3
:10566000D3B9F0BCBDE800414FF0000021497047BC
:10567000FFFDFBF9F7F5F4F2F0EEEDEBE9E8E6E417
:10568000E3E1E0DEDDDBDAD8D7D5D4D3D1D0CFCD9E
:10569000CCCBCAC8C7C6C5C4C2C1C0BFBEBDBCBBD7
:1056A000BAB9B8B7B6B5B4B3B2B1B0AFAEADACABD2
:1056B000AAA9A8A8A7A6A5A4A3A3A2A1A09F9F9EAC
:1056C0009D9C9C9B9A99999897979695959493935E
:1056D000929191908F8F8E8E8D8C8C8B8B8A8989F5
:1056E0008888878786858584848383828281818078
:1056F0000000FF070000F87F51EA030C17D41CF5E7
:10570000801F58BFBCF5801F00F10680994218BF6A
:10571000704708BF9042704707D711F5801F58BFE8
:1057200013F5801F19D499427047894270471CF5C0
:10573000801F08D5BCF5801FF7D58B4218BF704776
:1057400008BF824270474FF4001C1CEB410F38BF6A
:105750001CEB430F01D28B42704770B500F006F985
:10576000922449004FF000514FF08053FFF760BE84
:1057700010F0004248BF4042B0FA80F310FA03F143
:105780000AD0C3F11D0303F580634FEA415002EBD9
:10579000035202EBD12170474FF000007047000028
:1057A00051EA030C17D41CF5801F58BFBCF5801FAD
:1057B00000F10680994218BF704708BF90427047B9
:1057C00007D711F5801F58BF13F5801F19D49942D0
:1057D0007047894270471CF5801F08D5BCF5801FB3
:1057E000F7D58B4218BF704708BF824270474FF40D
:1057F000001C1CEB410F38BF1CEB430F01D28B4246
:10580000704770B500F0B2F8922449004FF0005193
:105810004FF08053FFF70CBEDFF848C170B51CEAAB
:10582000111E1EBF1CEA13159EEA0C0F95EA0C0F01
:1058300000F06F8081EA030423EA4C134EEAD47E21
:1058400021EA4C1141F4801143F48013AE44A1FBD2
:10585000024CA0FB0365AEF17F7E361955EB0C05BB
:10586000A1FB034C4CF10003A0FB021C16EB0C0641
:10587000654153F10003094218BF46F0010613F4D5
:10588000007F0BD14FEA03314FEA0530340341EA80
:10589000155140EA16506FF003020AE04FEAC321A7
:1058A0004FEAC520F40241EA555140EA56506FF0E4
:1058B000020202EB2E4201EB025585EACE710AD0BC
:1058C0005FEA440C18BF24F0004450F1000041F19D
:1058D000000120EAD47040F2FE7C624500D270BD27
:1058E000A84214BF4FF080444FF04044002E08BF40
:1058F0000024BEF1806FA8BFA1F1C041BDE8704097
:1059000080F282804FF0000001F1C04101F00041BF
:1059100070479EEA0C0F0CEA131518BF95EA0C0F9E
:1059200006D04FF0000081EA030E0EF0004170BD7A
:1059300000F01CF88900013E00F007B800F009B83B
:105940004FEA430C5FEA5C5C08D081EA030100F097
:105950005BB84FEA410C5FEA5C5CF6D14FF00000A7
:10596000014970470000FF070000F87F0EF1020EAA
:105970002EF0030E5EF8046B364205D4012A43EB89
:10598000030515F5001F12D8012841EB010C1CF589
:10599000001F0CD80ED14FEAD17C15F5001F0CEB7F
:1059A0004C0C0CF1020C08BF4CEBD37C04E04FF024
:1059B000080C01E04FEAD37C0CEB4C0526FA05F607
:1059C00006F00706B6F1040C06D20EEB860CBDE815
:1059D00070404CF0010C6047DFE80CF0090B02024C
:1059E0004FF000414FF00000A1F5002170BD1946B5
:1059F0001046012851EB010418BFD4F5001484BFF0
:105A0000002001F0004170BD0808A0F500114FEA28
:105A10003101704753EA010C17D41CF5801F58BFA1
:105A2000BCF5801F00F106808B4218BF704708BF8D
:105A30008242704707D713F5801F58BF11F5801FAA
:105A400019D48B4270479B4270471CF5801F08D5C4
:105A5000BCF5801FF7D5994218BF704708BF904228
:105A600070474FF4001C1CEB430F38BF1CEB410F79
:105A700001D2994270470FB40CBC03BCFFF7C1BE02
:105A800091EA030F10B581F000413FF529AC83F096
:105A9000004300F009B8000010B591EA030F48BFB9
:105AA00083F000433FF51CAC841A71EB030C07D262
:105AB00012198CF0004C43EB0C03001B61EB0C0142
:105AC000DFF8A4E14FEA1154A4EB135C1EEA430F84
:105AD00018BF9EEA445F00F0B08023EA6E03524292
