:020000040800F2
:10000000600C0020A5010008C73900085F2D00081A
:10001000C5390008D118000825400008000000007C
:10002000000000000000000000000000A33D0008E8
:10003000D318000800000000A13D0008A53D0008FD
:10004000BF010008BF010008BF010008BF01000890
:10005000BF010008BF010008BF010008D518000853
:10006000BF010008BF010008BF010008BF01000870
:10007000BF010008BF010008BF010008BF01000860
:10008000BF010008BF010008BF010008BF01000850
:10009000BF010008BF010008BF010008DB1800080D
:1000A000BF010008BF010008BF010008BF01000830
:1000B000BF010008BF010008BF010008BF01000820
:1000C000BF010008BF010008BF010008BF01000810
:1000D000BF01000819400008BF010008BF01000867
:1000E000BF010008BF010008BF01000800F002F8CE
:1000F00000F048F80AA090E8000C82448344AAF17A
:100100000107DA4501D100F03DF8AFF2090EBAE877
:100110000F0013F0010F18BFFB1A43F0010318473B
:100120000C7500002C750000103A24BF78C878C107
:10013000FAD8520724BF30C830C144BF04680C60ED
:10014000704700000023002400250026103A28BF35
:1001500078C1FBD8520728BF30C148BF0B60704739
:100160001FB500F0A9F904000020002104F05CFA9A
:10017000401C60600020002104F040FAE0601FBDD8
:1001800010B510BD00F0A4FA1146FFF7E9FF04F026
:100190005DF800F04DFD03B4FFF7F2FF03BC00F083
:1001A000BBFF00000948804709480047FEE7FEE71B
:1001B000FEE7FEE7FEE7FEE7FEE7FEE7FEE7FEE717
:1001C00004480549054A064B70470000073E0008F1
:1001D000ED00000860060020600C00206008002090
:1001E0006008002070B5064600F09EF804680546D9
:1001F00030460A22002100F0F9F82C6070BD0000A2
:10020000014A00F02BB900002800002030B5054657
:100210000B462A4613F8014B12F8010B08B1A04215
:10022000F8D01CB1002802D06D1CF1E7284630BD83
:1002300010B5431C02E010F8011B71B18107FAD11F
:100240004FF0013202C88C1A8C4314EAC211F9D063
:10025000C01A0A0603D0C01E10BDC01A10BD0A0481
:1002600001D0801E10BD0902FCD0401E10BD10B58B
:10027000203AC0F00B80B1E81850203AA0E818509E
:10028000B1E81850A0E81850BFF4F5AF5FEA027C5F
:1002900024BFB1E81850A0E8185044BF18C918C0CE
:1002A000BDE810405FEA827C24BF51F8043B40F86F
:1002B000043B08BF7047D20728BF31F8023B48BF54
:1002C00011F8012B28BF20F8023B48BF00F8012B92
:1002D00070474FF0000200B5134694469646203909
:1002E00022BFA0E80C50A0E80C50B1F12001BFF4EF
:1002F000F7AF090728BFA0E80C5048BF0CC05DF855
:1003000004EB890028BF40F8042B08BF704748BFA2
:1003100020F8022B11F0804F18BF00F8012B704716
:10032000704770477047000000487047FC05002088
:1003300010B5FFF7F9FF006810BD10B50446FFF7D0
:10034000F3FF046010BD00000FB4002300B589B0B6
:100350000CA900910B99CB60214B7B440693214B58
:100360007B44079304236FF00042CDE901321E4A1B
:100370007A446B4608920246002005F0D1F909B094
:100380005DF814FB70B506464FF0FF3015460C467D
:10039000324686B00091CDE9010169460020049003
:1003A00004A8FFF7D1FF02460498211825B108B12F
:1003B000084600E020462860049800280DD0002A56
:1003C00002DD0098884208D03246081B6946009436
:1003D000CDE9010404A8FFF7B7FF06B070BD000027
:1003E000750100008D0100004D0100002DE9F0476E
:1003F00091460F4680460446002614F8015B2DB155
:1004000000F052F80068405DC007F6D12B2D02D0F5
:100410002D2D18D0641E4A463946204600F079F842
:1004200027B13968A14201D1C7F800804FF002041A
:1004300071050BD54042002803DDFFF775FF04600E
:10044000A007BDE8F08746F48066E4E70028F8DA04
:10045000FFF76AFF04606FF00040F2E72DE9F0411A
:1004600015460E46040002D12C6804B90BA42046A0
:1004700000F020F90444207870B127463146384610
:1004800000F008F90444207810B1002004F8010BB2
:1004900038462C60BDE8F0810027F9E70000000035
:1004A00000487047FC05002010B500F005F8001D5D
:1004B00010BD00BF75410000004870471C060020B9
:1004C00010B50446FFF7F0FF0068005D00F0010082
:1004D00010BD426842B1016811F8013B23B1521EC0
:1004E000C0E90012184670470121C160881E70479C
:1004F00042685AB1C368016843B983688B4205D02A
:10050000491E521CC0E90012002070474FF0FF3016
:1005100070472DE9F05F824615468B4600270AF1A9
:100520000104B9460078302801D09DB113E014F8D9
:10053000010B0127782803D0582801D045B10AE0E3
:100540000DB1102D07D1002714F8010B102502E082
:10055000082500E00A250026B0460EE005FB08004D
:1005600005FB06F101271FFA80F801EB1046B6F5EE
:10057000803F00D3B94614F8010B294600F0CDF8AE
:100580000028EBDABBF1000F05D00FB1641E00E0CC
:100590005446CBF80040B9F1000F06D0FFF7C4FE77
:1005A00002210160C81EBDE8F09F48EA0640FAE754
:1005B0002DE9F047814616468AB0354878440DC883
:1005C0008DE80D0032487844801C03AC0DC884E8E7
:1005D0000D0041F69B300844372190FBF1F290FB6F
:1005E000F1F5A5F1800501FB12041B3C02D5644224
:1005F000012000E00020DFF898A080460027FA44A0
:10060000AAF1BE0A0EE0E0070AD03246684607EBC0
:10061000470101230AEB810101F00EF88DE8070084
:1006200064107F1C002CEED1194F7F44AE3F19E0BF
:10063000E80715D007EB04100DF1180A90E80E003A
:100640008AE80E00C068F04201D19819089032463D
:10065000012306A903A800F0EFFF03AB83E807001E
:100660006D10641C002DE3D14FF001033246694642
:10067000B8F1000F03A802D000F0B4FF01E000F0D1
:10068000DBFFC9E90001C9F808200AB0BDE8F0871E
:100690005470000030B503461D781DB10A4603E0D2
:1006A000AC4201D1181A30BD12F8014B002CF7D121
:1006B0005B1CF1E730B503461D783DB10A4612F8E0
:1006C000014B1CB1AC42FAD15B1CF5E7181A30BDE6
:1006D0007546FFF7E5FEAE4605006946534620F035
:1006E0000700854618B020B5FFF76AFDBDE8204039
:1006F0004FF000064FF000074FF000084FF0000BDE
:1007000021F00701AC46ACE8C009ACE8C009ACE890
:10071000C009ACE8C0098D4670473A2800D230388D
:1007200020F02002412A01D3A2F13700884201D3F0
:100730004FF0FF30704700002DE9FF4F06468BB0A9
:100740000878FF2806D0491C2D2805D000244FF03A
:10075000000908E000200CE00124F8E709EB890318
:10076000491C00EB43090878FF28F7D114B1C9F1FF
:1007700000008146107800252C46AA4629462D28DF
:1007800001D02B2804D1521C2D2813D000208246E2
:100790008B461078FF280FD04FF0000C0A21521C16
:1007A000A5FB017804FB018105FB0C11C5194BEB7E
:1007B0000104EEE70120EAE7002108464FF00000BF
:1007C000BAF1000F02D000EB80004008C0F381575F
:1007D000012F01DD4FF0FF370E9955EA040009EBB8
:1007E00001080BD04FF0020918F5FA7F16DA4FEA2C
:1007F000CA70002F706008DD012007E04FEACA7060
:10080000C6E900B00FB0BDE8F08F00203060FFF700
:100810008BFDC0F800901821084616E0B8F5FA7F65
:1008200018DD002F02DAF748784401E0F6487844F2
:10083000D0E90010C6E9001040EACA707060FFF706
:1008400073FDC0F80090142108460FB0BDE8F04FCA
:1008500004F003BF002108464FF00000B8F100018A
:10086000099002DAC7F1000200E03A4601DAC8F165
:10087000000106A8FFF79CFE06AB93E8070003AB58
:1008800083E8070044F23E005BEA0401009058460A
:1008900004D144F21E012C465D460091210C09044E
:1008A000014306D10099240444EA15442D0410396B
:1008B000009104F07F41014306D10099240244EAEB
:1008C00015642D020839009104F07041014306D1EE
:1008D0000099240144EA15742D01091F009104F0C8
:1008E0004041014306D10099A40044EA9574AD004B
:1008F000891E009104F00041084304D100986D194D
:100900006441401E00904FF001033A466846B8F13A
:10091000000FCDE9014503A902DD00F0A2FE01E0D0
:1009200000F075FEBAF1000F04460D4601D084F0C8
:100930000044002108464FF00000099940F2FF777B
:10094000484010F00C0F07D124F00040284303D09A
:10095000C4F30A50B84212D1FFF7E6FCC0F8009089
:10096000C4F30A50B8420AD1A8487844D0E900102C
:10097000C6E9001004F000410843706042E7C6E990
:1009800000543FE72DE9FF4F1F464FF0000A4FF09C
:10099000FF38454691B0D7E90146CDF83CA0FFF7B6
:1009A0008BFDC0680168405C1090B96912986D1C9D
:1009B0008847396A814688470028F6D1B9F1FF3F58
:1009C0000AD0002E24F4D06411DDB9F12B0F08D029
:1009D000B9F12D0F0BD102E0404615B013E744F4F6
:1009E0008064B96912986D1C8847761E814660053F
:1009F00004A901D52D2000E02B20002E01F1010BD0
:100A00000DF130088DF810003FDDB9F1690F08D005
:100A1000B9F1490F05D0B9F16E0F02D0B9F14E0FFF
:100A20001CD13B4601A8009580E85002DDE9121276
:100A30006FF0020004F078FEC11CCED10EE0B9695F
:100A400012986D1C884781461398761E44F40074F2
:100A500005600F98401C002E0F9016DDB9F1300F85
:100A6000EDD0B9F1780F02D0B9F1580F0DD10F9830
:100A700001280AD13B46CDE90054DDE91212001FDE
:100A8000029604F04FFEC11CA7D1109989453ED1B2
:100A900044F0800406E01399681CAAF1010A44F4AA
:100AA00000740860B9696D1C1298761E884730285A
:100AB0008146F0D02BE01099894505D1200603D45A
:100AC000761E44F0800418E0484603F03CFB08B36F
:100AD000761E0DF123018B4544F4007408D2A9F170
:100AE00030000BF8010B200607D5AAF1010003E046
:100AF000200602D40AF101008246A00502D513990E
:100B0000681C0860B96912986D1C88478146002EE0
:100B1000D1DC53E0002E51DDB9F1650F02D0B9F1FF
:100B2000450F4BD1A00549D5B9696D1C1298761EA9
:100B300024F440748847002E81460CDD2B2804D015
:100B4000B9F12D0F07D144F48074B96912986D1C66
:100B50008847761E8146E00501D52D2100E02B2136
:100B600008F8011BCDF8008021E0761E0DF1390157
:100B7000884544F400740CD2A9F1300010F0FF0055
:100B800088F8000002D10099884509D908F10108C8
:100B900006E0E00501D51E4801E042F20F708246F2
:100BA000B96912986D1C8847814613980560002E1C
:100BB00004DD484603F0C7FA0028D6D1F969129837
:100BC0008847FF2053468BF8000088F8000000207B
:100BD0000A900B9004AA0CA90AA8FFF7ADFDA00586
:100BE00002D46FF00100F8E614F0240F12D0E007F1
:100BF0001CD13868DDE90A12031D3B600068C0E9BA
:100C0000001213E0286E00001A6E0000DE6C000077
:100C1000F1D8FFFF0AA9684603F024FAE00705D1DE
:100C20003868009A011D3960006802602846D4E6E1
:100C300010B50446AFF300802046BDE81040FFF732
:100C4000AABA00004FF0013C50F8042B51F8043BC5
:100C50009A4221D1A2EB0C03934313EACC1317D190
:100C600050F8042B51F8043B9A4215D1A2EB0C0327
:100C7000934313EACC130BD150F8042B51F8043BE7
:100C80009A4209D1A2EB0C03934313EACC13DBD0B5
:100C90004FF00000704700BFD01A01BAB1FA81F1DD
:100CA00001F0180122FA01F0CB40C1F12001DBB2C2
:100CB000C0B2C01A2CFA01F3D11A914311EAC31140
:100CC000E6D170472DE9FF4F1F464FF03C0987B032
:100CD0004FF00042DDE9141001F10108DDF858A0E1
:100CE00002EA4050039000200590834605460446E2
:100CF0000490B969461E08988847AAF1010A029033
:100D0000BAF1000F3BDD02982E2815D01021FFF715
:100D100004FD00282EDB4FF0010B0599014317D08D
:100D2000B9F1000F0BDB4A46C11700F0FBF9054390
:100D30000C43A9F1040905E0012004900BE008B17F
:100D400045F0010501200590049820B9361D02E008
:100D5000049800B1361FB969089808F1010888475E
:100D6000BBF1000FAAF1010A0290C9D00999C1F89C
:100D70000080C5E70298702808D0502806D0F9698D
:100D800008988847BBF1000F14D04FE00020029074
:100D90000120BBF1000F049009D0B969089808F14F
:100DA00001088847AAF10109B9F1000F07DCF969C8
:100DB000089888476FF001000BB0BDE8F08F2B2832
:100DC00004D02D280CD14FF0FF300490B969089859
:100DD00008F101088847A9F10109B9F1000FE6DD22
:100DE000411CE4D00A21FFF798FC0028DFDB0299C0
:100DF00008F1010801EB810100EB41000290B969A3
:100E0000089888470A21FFF788FC099AA9F1010987
:100E1000B9F1000FC2F8008001DD0028E7DAF969B6
:100E2000089888470499029800FB016655EA040077
:100E300004D004F04041090002D006E0039898E095
:100E4000A40044EA9574AD00B61E04F00041080009
:100E500002D16D196441761E159810F0240F03D04D
:100E60004FF00B095C4803E04FF028096FF07D005C
:100E70008246564507DAAAEB06018944B9F1410FCB
:100E800001DD4FF0410901200021A9F1010200F02C
:100E900049F9024628400B462140084301D0012170
:100EA00000E00021501E029143F1FF312840214013
:100EB000084301D0012000E000200299834651EA56
:100EC0000B014FD0002108464FF00000039900F4B9
:100ED000400039B100EB80004FF4400100EBD070CE
:100EE00001EA60008015012802DD4FF0FF3000E0CC
:100EF00013D0401C36D0029860B3BBF1000F0CD168
:100F00004A460120002100F00DF928402140084305
:100F100001D0012000E00020E0B101204A4600217C
:100F200000F000F9034640190A4661412D1A8C4130
:100F300011D3B9F1400F09DD159810F0240F02D03C
:100F4000AAF1340603E0AAF1170600E0761C00259A
:100F50004FF0004406E05B1E42F1FF3220EA030539
:100F600021EA0204CAF10100B04206DA1B490398E3
:100F700008430190002000900EE0039AC4F3D321AF
:100F8000E80A0A43164940EA44500A433146CDE98B
:100F90000002684603F0CCF8159810F0240F0BD02F
:100FA0001598C00715D13868DDE90012031D3B60B4
:100FB0000068C0E900120CE002A8694603F052F88C
:100FC0001598C00705D13868029A011D396000687C
:100FD00002604046F0E6000002FCFFFF0000F07FE8
:100FE0000000F03F2DE9FF4F92461D4685B04FF0BF
:100FF0000041DDE9124BDDE914727F1E01EA4B501E
:10100000414940F0FF4940EA0108002122F0200058
:101010004928049102D04E2828D04CE03BA001265C
:1010200007C88DE80700A9690698641C88477F1ED9
:10103000014606D41DF8060018B121F020018142B6
:101040000BD0E96906988847032E34D0082E32D099
:101050006FF0010009B0BDE8F08F761C032E01D0BF
:10106000082EE0D1601CCAF80000DCE7A9690698E8
:10107000641C88477F1E2AD420F02000412826D1F6
:10108000A9690698641C88477F1E20D420F02000A0
:101090004E281CD1A9690698641C88477F1E48F415
:1010A000002849F48009CAF8004001D4282806D055
:1010B000E969069888475FEACB7012D022E0A969F7
:1010C0000698641C88477F1E01D4002803DAE9696A
:1010D00006988847BCE72928F1D1641CCAF800406B
:1010E000E9E71BF0240F07D028680499031D2B6043
:1010F0000068C0E9001805E02868021D2A60006841
:10110000C0F800902046A5E70000F07F494E464910
:101110004E4954590000000001491820ABBEFEE7BB
:1011200026000200B2F120030AD5C2F1200301FA21
:1011300002F120FA03F300FA02F041EA03017047DA
:1011400000FA03F14FF000007047704720F07F4C29
:1011500080EA030023F07F47ACEB070303F57C53E1
:1011600000F0004003F1FF032DE980494FEA154BE1
:1011700009B44FEA144325EA0B4E24EA03480FF260
:10118000042606EB132749083E785FEA320203FB88
:101190000667C7F5000707FB06F64FEA54374FEA24
:1011A000D64606F1020607FB066CCCF1005C4FEA5E
:1011B0001C472CEA074C07FB06F40CFB06F504EB76
:1011C00015464FEA961634BF00204FF000404FEA14
:1011D000D13706FB07FC4FEA1C4C0CFB0BF7D21B6C
:1011E00003FB0CF761EB07010CFB0EF7B0EB0740BC
:1011F00072EB17420CFB08F734BFA2EB0742B2EBCD
:10120000074261EB17414FEA0C444FEA910706FB96
:1012100007FC4FEA1C4C0CFB0BF7B0EBC74072EB22
:10122000573203FB0CF734BFA2EBC742B2EBC74205
:1012300061EB57310CFB0EF7B0EBC70072EB577246
:101240000CFB08F734BFA2EBC702B2EBC70261EB9D
:101250005771039F4FEA816141EA921104EBCC047C
:101260004FEAD1374FEA826206FB07FC42EA90124E
:101270004FEA80604FEA1C4C0CFB0BF7D21B03FBC0
:101280000CF761EB07010CFB0EF7B0EB074072EBBC
:1012900017420CFB08F734BFA2EB0742B2EB074240
:1012A00061EB17414FEA8C554FEA910704EB9C2400
:1012B00006FB07FC4FEA1C4C0CFB0BF7B0EBC740DE
:1012C00072EB573203FB0CF734BFA2EBC742B2EB11
:1012D000C74261EB57310CFB0EF7B0EBC70072EB66
:1012E00057720CFB08F734BFA2EBC702B2EBC70280
:1012F00061EB577115EB4C254FEA816141EA921180
:101300004FEA82624FEAD13742EA901206FB07FCAD
:1013100044F100044FEA80604FEA1C4C0CFB0BF7D1
:10132000D21B03FB0CF761EB07010CFB0EF7B0EBD4
:10133000074072EB17420CFB08F734BFA2EB0742E1
:10134000B2EB074261EB174115EB1C154FEA8131F7
:1013500041EA92414FEA823242EA90424FEA8030BB
:101360004FEA0C7644F1000448EA03434EEA0B4886
:101370004FF0000EB2EB080C71EB030724BF62467E
:1013800039464EEB0E0E4FF0000B0018524149410A
:101390004BEB0B0BB2EB080C71EB03077BF1000B73
:1013A00024BF624639464EEB0E0E4FF0000B00187C
:1013B000524149414BEB0B0BB2EB080C71EB0307AD
:1013C0007BF1000B24BF624639464EEB0E0E51EA0C
:1013D000020718BF46F0010616EB0E7655F1000223
:1013E00054F1000103D5BDE88901BDE80088BDE8DE
:1013F0008901BDE80048B619524141EB0101A3F152
:101400000103704780807F7E7D7C7B7A7978777658
:1014100076757473727171706F6E6E6D6C6C6B6AD1
:101420006A6968686766666564646363626161606F
:10143000605F5F5E5E5D5D5C5C5B5B5A5A595958EC
:101440005857575656555555545453535252525156
:10145000515050504F4F4F4E4E4D4D4D4C4C4C4BAC
:101460004B4B4A4A4A4949494848484747474746F3
:10147000464645454544444444434343434242422F
:101480004241414146EA0646A3F570534FEA1646EB
:1014900046EA42564FEAD22242EA415210B54FEA9A
:1014A000D121A3F1010300F02FF820F0004000F15A
:1014B000020C00F0004701EB00501146BCF5006F34
:1014C00040EA070000D210BDBAF1000F0AD01CB5E7
:1014D00003B44FF004004FF004014FF000000FBCC4
:1014E000BDE810404FF00001BBF1010FB9BF044847
:1014F0004FF0FF310348002140EA070010BD00BF54
:10150000FFFFEF7F0000F07F002B9C4630D4770078
:101510002BD01CB54FEA370703B44FF010004FF043
:101520001001BAF1000F06D0BCF1000FDCBF40F093
:10153000080040F008014FF000000FBCBDE810406B
:101540000BF1010BBBF1010F08BF5FEA170722BFC8
:1015500012F1010211F101014FF0004143F10003CA
:1015600000F0004043EA00007047F9D35708D0E785
:1015700046EA064613F1400F4FEA16461FDD13F107
:10158000200FDFBF16430A46002120335B42BED046
:10159000C3F1200746EA064602FA07F74FEA164665
:1015A00046EA0706C3F1200722FA03F201FA07F719
:1015B00021FA03F14FF0000342EA0702A7E746EAE7
:1015C000020646EA06464FEA164646EA0106BCBF50
:1015D00046EA0646360C4FF000034FF000024FF08B
:1015E000000194E72DE9804C9A46934670B491E847
:1015F000380007C831EA400C48BF34EA430C03D531
:10160000FFF7A4FDFFF780FFF0BCBDE8008C2DE9DB
:10161000804C9A46934670B491E8380007C831EA86
:10162000400C48BF34EA430C03D5FFF78FFDFFF7AA
:1016300029FFF0BCBDE8008C2DE9804C9A4693460A
:1016400070B491E8380007C810F0804F08BF13F05D
:10165000804F03D100F01AF8FFF756FFF0BCBDE849
:10166000008C2DE9804C9A46934670B491E838007E
:1016700007C810F0804F08BF13F0804F03D100F06F
:1016800005F8FFF7FFFEF0BCBDE8008C20F07F47B7
:1016900080EA030023F07F4C07EB0C03A3F57C5397
:1016A00000F00040A3F1FE0392F0000F00F0B380C1
:1016B00095F0000F00F077802DE901494FEA1140C5
:1016C0004FEA144621EA004800FB06FC24EA0647DC
:1016D00008FB06F607FB08F800FB07F718EB0648BF
:1016E0004CEB164C4FEA124B18EB07484FEA1546E5
:1016F0004CEB174022EA0B4E0BFB06FC25EA064793
:101700000EFB06F607FB0EFE0BFB07F71EEB064E65
:101710004CEB164C4FF000061EEB074E4CEB174BF4
:1017200018EB0B0840F1000018EB0E0B58EB00080B
:1017300040F100008F1A4FF000013CBFC943661B07
:1017400014BFB5EB040C00213CBFC943F61B4FEAA4
:1017500017444EEA8E0E27EA04454FEA1C4704FB65
:1017600007622CEA074C05FB07F70CFB05F604FBA8
:101770000CFC16EB074642EB174216EB0C4642EB0D
:101780001C421BEB060658EB0202414146EA9E064C
:1017900001D5BDE80189B619524141EB0101A3F120
:1017A0000103BDE801894FEA14454FEA114724EAD5
:1017B000054621EA074C05FB07F406FB07F70CFB7F
:1017C00006F105FB0CFC11EB074144EB17444FEA13
:1017D000124711EB0C4144EB1C4422EA074C05FB79
:1017E00007F206FB07F70CFB06F605FB0CFC16EBF5
:1017F000074642EB174216EB0C4642EB1C456A18B3
:1018000054F1000148BF7047B619524141EB010144
:10181000A3F10103704795F0000F37D04FEA114252
:101820004FEA144721EA024624EA074C02FB07F17B
:1018300006FB07F70CFB06F402FB0CFC14EB074459
:1018400041EB17414FEA154714EB0C4441EB1C41A7
:1018500025EA074C02FB07F506FB07F70CFB06F62B
:1018600002FB0CFC16EB074645EB174516EB0C4646
:1018700045EB1C42121951F1000148BF7047B619DF
:10188000524141EB0101A3F1010370474FEA1445B6
:101890004FEA114724EA054621EA074C05FB07F108
:1018A00006FB07F70CFB06F24FF0000605FB0CFCED
:1018B00012EB074241EB174112EB0C4251EB1C417A
:1018C00048BF7047921841EB0101A3F10103704733
:1018D000FEE77047022000F09DB94FF4807000F0E1
:1018E00099B972B6FEE7000070B5074C05466078FE
:1018F00018B100F021F8002060702846BDE8704063
:1019000018220249FEF7B3BC250000208005002004
:1019100010B518210648FEF7DCFC05486421183094
:10192000FEF7D7FC034800210170417010BD000094
:1019300080050020250000202DE9F0475F4C60A1C4
:101940002046FEF763FC00287ED05FA12046FEF70C
:1019500057FC0024002877D0584D5C4FDFF8708189
:10196000DFF87091183D9DE0002E6DD00A2CFAD260
:10197000DFE804F09805284C547981868B92304634
:10198000FEF756FC06281CD330787178303800EB0F
:1019900080026FF02F0000EB420211442972B178EF
:1019A000F278303901EB810100EB41011144697299
:1019B00031797279303901EB810100EB410010443B
:1019C000A8726FE03046FEF733FC00286AD030463C
:1019D00002F0C0FB03F0C0F800223B4602F028FFF3
:1019E00002F038FE064603F085FC03F0BFFC824699
:1019F000314603F0B3FD414603F0E4FC494603F0F1
:101A0000B7FB0146504603F051FB05E03078532800
:101A100048D1286880F00040286043E03046FEF757
:101A200007FC38B3304602F095FB03F095F800222E
:101A30003B4602F0FDFE02F00DFE064603F05AFCA6
:101A400003F094FC824600E036E0314603F086FD68
:101A5000414603F0B7FC494603F08AFB0146504675
:101A600003F024FB05E0307857281BD1686880F02C
:101A70000040686016E03046FEF7B4FBE87211E003
:101A80003046FEF7AFFB28730CE0304602F062FBF5
:101A900003F06CFC286105E0304602F05BFB03F0CC
:101AA00065FC686108A10020FEF7AAFB641CE4B293
:101AB00006460F2CFFF458AFBDE8F08798050020CC
:101AC00047504747410000002C00000000005940EB
:101AD0000000C8420000704210B5002309490A4CBA
:101AE00024280DD00A78632A03D20A78A054521C05
:101AF0000A700A2803D1D0B223540120487010BDC7
:101B00000B70F2E7250000209805002010B590F832
:101B100021100022022905D00421816380F82020B1
:101B2000012010BD01680B6823F00E030B600168F3
:101B30000B6823F001030B6090F84030C46B012167
:101B400001FA03F3636080F8211080F8202010462A
:101B500010BD000010B590F821100024022903D018
:101B60000421816301243DE001680A6822F00E022D
:101B70000A6001680A6822F001020A601A4A0168D4
:101B8000914201D1012121E0174A1432914201D141
:101B900010211BE0144A2832914201D1891515E029
:101BA000114A3C32914201D189140FE00E4A503261
:101BB000914202D14FF4803108E00B4A64329142E5
:101BC00002D14FF4801101E04FF08071064A083ACB
:101BD0005160012180F82110002180F82010416B14
:101BE00001B18847204610BD0800024070B5044688
:101BF00000F016F90546601C02D004480078044441
:101C000000F00EF9401BA042FAD370BD0400002082
:101C100070470000044910B50A68024202D008600B
:101C2000FFF7F6FF10BD0000140401402DE9F84F46
:101C3000DFF8B8910024A9F1040B23460F2709F11E
:101C4000040AABF1040EC9E00125A5402A40AA42CE
:101C50007DD1674ED1F804C0ACEB0608B44532D054
:101C600014DCBCF1030F3AD009DCBCF1000F2AD020
:101C7000BCF1010F1CD0BCF1020F31D11DE0BCF151
:101C8000110F17D0BCF1120F2AD119E0B8F5881F37
:101C900019D006DCB8F5803F15D0B8F5801F1FD1EC
:101CA00011E0B8F5001F0ED0B8F5041F18D10AE0F6
:101CB000CB6815E0CB681B1D12E0CB6808330FE042
:101CC000CB680C330CE08B682BB1012B4FF0080371
:101CD00003D0456104E0042302E0056100E0002335
:101CE000FF2A01D8064601E000F104064FEA840508
:101CF00001D9A5F12005D6F8008007FA05FC28EAED
:101D00000C0803FA05F548EA0508C6F800804D6896
:101D1000ED0062D5374DAE6946F00106AE61AD69A2
:101D200024F0030605F001050095334D06EB050C84
:101D3000DCF80850A607360F07FA06F825EA08056A
:101D4000DFF8B880404503D14FF0000817E044E0C9
:101D5000DFF8AC80404502D14FF001080FE0DFF81A
:101D6000A480404502D14FF0020808E0DFF89880D7
:101D7000404502D14FF0030801E04FF0040808FA93
:101D800006F848EA0508CCF808804D68D9F80060E4
:101D9000ED024D4601D5164300E096432E604D6896
:101DA000DAF80060AD02554601D5164300E09643CF
:101DB0002E604D68DBF80060AD035D4601D516432B
:101DC00000E096432E604D68DEF80060ED03754636
:101DD00001D5164300E096432E60641C0D682A4628
:101DE000E5407FF431AFBDE8F88F00000804014002
:101DF00000001110001002400000014000080140E6
:101E0000000C0140001001400014014080680840AF
:101E100000D0012070470AB1016170470904FBE757
:101E200001488068704700000400002070B504007D
:101E300025D094F83D00002520B984F83C50204678
:101E400000F076FA242084F83D002068016821F033
:101E5000010101602068016841F4004101602068CF
:101E6000016821F40041016000F0BEFB4D4A616849
:101E7000914201D84C4900E04C49884201D20120EE
:101E800070BD4B492368B0FBF1F15E6826F03F0658
:101E90000E435E606368934206D94FF496735943CC
:101EA0004FF47A73B1FBF3F12368491C1E6A26F0E4
:101EB0003F06314319626168914210D84900401EC3
:101EC000B0FBF1F2521CC2F30B02042A01D204202F
:101ED00022E0B0FBF1F0401CC0F30B001CE0A26854
:101EE000F2B301EBC10303EB0116431EB3FBF6F3A0
:101EF0005B1C43F480431B0549D092B301EBC10244
:101F000002EB0111401EB0FBF1F0401CC0F30B00CE
:101F100040F4804040F400402168CA694CF6FF73E9
:101F20009A431043C861D4E907100143206802684E
:101F300022F0C00211430160D4E90301014320688B
:101F4000826848F2FF339A4311438160D4E9050166
:101F500008432168CA6822F0FF021043C86001E00C
:101F60000EE016E02068016841F00101016025647F
:101F7000202084F83D00256384F83E50002070BD89
:101F800001EB4106431EB3FBF6F35B1CB3E70120F4
:101F9000C2E701EB4101401EB0FBF1F0401CC0F371
:101FA0000B00B7E7A086010080841E0000093D00F9
:101FB00040420F002DE9F84F0025DDF828909846A3
:101FC00017468A4604460095FFF72AFF064694F80E
:101FD0003D0020287AD11923012286492046009607
:101FE00000F0C6FF0028F5D194F83C0001286DD020
:101FF000012084F83C0020680168C90703D101680A
:1020000041F0010101602068016821F40061016074
:10201000222084F83D00102084F83E002564676289
:10202000A4F82A80608D20857348E06233464A46D2
:102030005146204600F0ACFE00287CD1208DDFF810
:10204000BC81202768B1012814D0022820680168CB
:102050001ED041F480610160206841698069009070
:10206000BBE02068416981690091016841F4007119
:102070000160B2E02068016821F48061016072B6FD
:102080002068416981690091016841F400710AE0AA
:1020900041F40061016072B6206841698169009174
:1020A000016821F48061016062B696E0032865D87A
:1020B00001280CD002284B464FF000024146204632
:1020C00000960BD000F054FFA8BB0CE090E0324625
:1020D0004946204600F0F2FF68BB71E000F048FF7F
:1020E00048BB72B633E02068016821F4806101606A
:1020F00072B620680069616A0870606A401C60629C
:10210000208D401E2085608D401E60853C4846F233
:10211000A8110068B0FBF1F0C0EBC00000EB80003C
:102120000090401E009007D020684069C0434007DF
:102130000DD50098F5E727E044F8305F6773A57385
:10214000206940F02000206162B625731CE0206801
:10215000016841F40071016020680069616A0870DB
:10216000606A401C6062218D491E2185618D491E77
:10217000618562B621680969017025E032464946E9
:10218000204600F09BFF10B10120BDE8F88F2068C9
:102190000069616A0870606A401C6062208D401EA0
:1021A00081B22185608D401E608520684269D243DE
:1021B000520712D4032903D1016821F48061016020
:1021C00020680069616A0870606A401C6062208D46
:1021D000401E2085608D401E6085208D00287FF484
:1021E00065AF84F83D7084F83E5084F83C50CCE7ED
:1021F0000220CAE7020010000000FFFF04000100F7
:10220000100000202DE9F84F1F4690468A460446EC
:10221000DDF82890FFF704FE054694F83D002028DD
:102220007FD11923012240492046009500F0A0FEED
:10223000002876D194F83C00012872D0012084F85F
:102240003C0020680168C90703D1016841F0010121
:1022500001602068016821F400610160212084F898
:102260003D00102084F83E0000262664C4F8248037
:102270006785608D20852D48E0622B464A46514691
:10228000204600F0FBFD90B920684169806900900C
:1022900036E02A464946204600F048FF50B1206CFF
:1022A000042804D12068016841F400710160012014
:1022B000BDE8F88F606A216800780861606A401C98
:1022C0006062618D491E6185218D491E89B221851B
:1022D00022685369DB435B070BD451B1007810616E
:1022E000606A401C6062608D401E6085208D401ECB
:1022F00020852A464946204600F00EFE0028CED111
:10230000208D0028C5D154F83D0B016841F40071BF
:102310000160202004F81E09E67766770020C7E7F1
:10232000FFE70220C4E70000020010000000FFFFEA
:1023300010B586B0002100910191029103910068CF
:102340000F4988421AD10F4CA06940F00800A061E3
:10235000A069694600F008000490C0200090122097
:102360000190032003900848FFF760FCE06940F407
:102370000010E061E06900F40010049006B010BDA8
:102380000054004000100240000C014002488168E7
:10239000027811448160704704000020074810B59E
:1023A000016841F010010160032000F075F80F2072
:1023B00000F006F800F024F8002010BD00200240D4
:1023C00070B50D4D04464FF47A712878B1FBF0F0EA
:1023D0000A490968B1FBF0F000F0DCFA48B9102CAA
:1023E00007D200222146501E00F036F800206C6013
:1023F00070BD012070BD000004000020100000200E
:102400000C4808B5816941F001018161816901F0E1
:1024100001010091C16941F08051C161C06900F0C2
:10242000805000900448416821F0E06141F0007163
:10243000416008BD0010024000000140002809DB97
:1024400000F01F02012191404009800000F1E020CE
:10245000C0F8001170470000F0B40E4B1B680C462A
:10246000C3F30223C3F10705042D00D90425191D68
:10247000072901D2002300E0DB1E012606FA05F140
:10248000491E214099409E40761E16403143F0BCC3
:1024900001F0C9BD0CED00E0064900F00702086834
:1024A0004FF6FF03184040EA0220034A1043086039
:1024B000704700000CED00E00000FA052DE9F04740
:1024C0000F46050061D0434E306800F00700B84267
:1024D00009D2306820F0070038433060306800F0DF
:1024E0000700B84251D128683B4C810712D54007FC
:1024F00003D5606840F4E06060602878000703D589
:10250000606840F4605060606068A96820F0F00086
:10251000084360602878C00728D06868012810D078
:102520002168022810D0890700292EDA616821F07D
:10253000030101436160FFF773FC804641F2883973
:102540000DE021688903EFE78901EDE7FFF768FCFB
:10255000A0EB0801494502D90320BDE8F087606877
:10256000696800F00C00B0EB810FEFD1306800F02B
:102570000700B8420BD9306820F0070038433060BC
:10258000306800F00700B84201D00120E5E7287864
:10259000400705D56068E96820F4E06008436060A2
:1025A0002878000706D56068296920F4605040EA61
:1025B000C100606000F038F86168084AC1F3031197
:1025C000515CC8400649086006480068FFF7F8FEFD
:1025D0000020C2E700200240001002406E570008B1
:1025E00010000020080000200448054900684968E0
:1025F000044AC1F30221515CC8407047100000201A
:10260000001002407E5700080448054900684968E8
:10261000044AC1F3C221515CC84070471000002039
:10262000001002407E5700080E4A51680E4801F023
:102630000C03042B11D0082B0FD10C48C1F383439A
:10264000C903C05C0AD55168084AC1F34041921ED3
:10265000515C054A5043B0FBF1F0704704494843D0
:10266000704700000010024000127A005E57000818
:1026700000093D002DE9F84F040070D02078C04DCE
:10268000C00749D06868C0F38100012807D0686896
:10269000C0F38100022809D16868C00306D5286804
:1026A000800339D560680028E7D035E06068B0F570
:1026B000803F0BD010B1B0F5A02F11D0286820F4C6
:1026C00080302860286820F4802002E0286840F4E8
:1026D00080302860606890B1FFF7A2FB06460AE0F0
:1026E000286840F480202860F0E700BFFFF798FBDF
:1026F000801B642873D828688003F7D50CE0FFF7A7
:102700008FFB064605E000BFFFF78AFB801B6428AD
:10271000F0D828688003F7D420789A4E80074FF0CD
:1027200001094FF0000839D5686810F00C0F07D088
:102730006868C0F38100022809D16868C00306D424
:102740002868800714D52069012808D110E0206985
:10275000B0B1C6F80090FFF763FB074605E00AE159
:10276000FFF75EFBC01B0228C4D828688007F7D596
:102770002868616920F0F80040EAC10028600DE097
:10278000C6F80080FFF74CFB074604E0FFF748FB64
:10279000C01B022823D828688007F7D420780007B8
:1027A0002CD57948A169D9B1C0F80090FFF738FB62
:1027B000074604E0FFF734FBC01B02280FD8686A05
:1027C0008007F7D571484FF4FA510068B0FBF1F07B
:1027D000009000BF0098411E0091FAD20EE080E008
:1027E000C0F80080FFF71CFB074604E0FFF718FB6A
:1027F000C01B022875D8686A8007F7D42078400784
:1028000060D5E8690027C00008D4E86940F080502E
:10281000E861E869012700F0805000905C48016899
:10282000C90513D40168834641F480710160FFF744
:10283000F7FA824606E000BFFFF7F2FAA0EB0A00C3
:1028400064284ED8DBF80000C005F5D5E068012803
:102850000AD008B1052813D0286A20F001002862A8
:10286000286A20F0040002E0286A40F00100286293
:10287000E06841F2883B98B1FFF7D2FA82460BE05C
:10288000286A40F004002862EEE700BFFFF7C8FAAC
:10289000A0EB0A0159455AD8286A8007F6D50CE002
:1028A000FFF7BEFA824605E0FFF7BAFAA0EB0A018D
:1028B00059454CD8286A8007F6D41FB1E86920F042
:1028C0008050E861E06988B36968C1F38101022939
:1028D00044D00228C6F8608004D0FFF7A1FA04466D
:1028E00038E034E0FFF79CFA074604E0FFF798FA77
:1028F000C01B02282BD828688001F7D4206AB0F5C5
:10290000803F05D16868A16820F400300843686002
:10291000D4E908010843696821F474110843686028
:10292000C6F86090FFF77CFA044606E025E000BF99
:10293000FFF776FA001B022809D828688001F7D52E
:102940001BE000BFFFF76CFA001B022802D903202E
:10295000BDE8F88F28688001F4D40EE00128F7D094
:102960006868226A00F48031914204D1616A00F4FF
:102970007010884201D00120EAE70020E8E700005B
:102980000010024000004242800442421000002039
:102990000070004010B5401EB0F1807F01D30120CF
:1029A00010BD4FF0E02460610F21601701F03BFB88
:1029B0000020A06107202061002010BD70477047F3
:1029C000F8B5016804460868CA684B6910F00F0F33
:1029D0004FF0000559D003F0010602F49077374319
:1029E00065D0C10705D0D10503D5616C41F0010167
:1029F0006164410705D5D90703D0616C41F002013C
:102A00006164810705D5D90703D0616C41F00401E9
:102A10006164010707D502F02001314303D0616CE6
:102A200041F008016164616C00293AD0800604D548
:102A3000900602D5204601F016FA20684069616CC4
:102A4000C0F38010090700D460B3204601F0E4F918
:102A500020684069400621D52068143050E8001FE6
:102A600021F0400140E80012002AF5D1E06BA8B146
:102A70006D494163E06BFFF76DF8002811D0E06B02
:102A8000416B01B0BDE8F040084783060FD59306BF
:102A90000DD52046BDE8F84001F0E5B92046FFF726
:102AA0008EFFF8BD2046FFF78AFF6564F8BD266BF0
:102AB0002023012E7CD1C6067AD5D60678D50868A3
:102AC0004868009048694FF00206400640D5E16B27
:102AD000086840680004000CE8D0A28D8242E5D965
:102AE000E085886920282DD020680C3050E8001F30
:102AF00021F4807140E80012002AF5D120681430DA
:102B000050E8001F21F0010140E80012002AF5D131
:102B10002068143050E8001F21F0400140E8001206
:102B2000002AF5D184F84230256320680C3050E843
:102B3000001F21F0100140E80012002AF5D1E06BDF
:102B4000FEF7E4FF6663A08DE18D401A81B22AE0B2
:102B5000A08DE18D401A81B2E08D0028A6D0002919
:102B6000A4D022680C3252E8000F20F4907042E8A2
:102B70000007002FF5D12068143050E8002F22F014
:102B8000010240E80027002FF5D184F84230256388
:102B900020680C3050E8002F22F0100240E800239B
:102BA000002BF5D166632046FFF708FFF8BDFFE76D
:102BB00005062BD5150629D594F841002128F5D115
:102BC000A068B0F5805F01D12069B0B1206A411CD6
:102BD0002162216800784860E08C401E0004000CEF
:102BE000E084E3D12068C16821F08001C1602068E1
:102BF000C16841F04001C160D8E7206A0088C0F395
:102C000008004860206A801C2062E5E74006CDD5B8
:102C10005006CBD5CA68204622F04002CA6084F82C
:102C2000413000F09BF8C1E7093E000870B5040090
:102C300004D094F84100002510B106E0012070BDD9
:102C400084F84050204600F023F8242084F8410006
:102C50002068C16821F40051C160204601F064F988
:102C60002068016921F4904101612068416921F0E7
:102C70002A0141612068C16841F40051C160656466
:102C8000202084F8410084F842006563002070BD74
:102C900030B585B000240094019402940394006838
:102CA000184988422CD11848816941F480418161DA
:102CB000816901F480410491816941F004018161DD
:102CC0008069124D00F0040004904FF400700090F1
:102CD000022001900320039069462846FEF7A6FFD4
:102CE0002815CDE90004694628460294FEF79EFFA8
:102CF000002202212520FFF7AFFB2520FFF79EFBD6
:102D000005B030BD0038014000100240000801400D
:102D100090F84230202B01D00220704721B11AB127
:102D20000023036301F05CB90120704710B500680F
:102D3000074988420BD107484078FEF7CDFE054988
:102D40000122BDE81040491C0348FFF7E1BF10BD58
:102D50000038014000000020B80000207047FEE766
:102D600001684A69D24352050FD46FF480624A6108
:102D7000002140F8301F202242738173026942F023
:102D800004020261017301207047002070470000B7
:102D90002DE9F84F0446C06A1E4693460D46216849
:102DA0000A6842F480620A60082807D0012805D02A
:102DB00010F5803F02D0206B112804D120680168F3
:102DC00041F4807101604FF001195B4600224946D1
:102DD0002046009600F0CCF84FF4007840B120680F
:102DE0000068C00501D5C4F840800320BDE8F88F15
:102DF0002069DFF884A0B0F5804F0FD0062021684D
:102E000000EAD51747F0F000086133465A460AF148
:102E10000601204600F0F4F858BB03E0E8B240F0A9
:102E200001001CE02168E8B2086133465A46514669
:102E3000204600F0E5F8E0B9206841698169009119
:102E4000016841F4807101605B46002249462046DA
:102E5000009600F08DF80028C1D147F0F1002168FC
:102E6000086133465A465146204600F0C9F800280A
:102E7000BCD00120BAE7000002000100F8B504460A
:102E8000C06A1E460D461746082807D0012805D0FF
:102E900010F5803F02D0206B122804D12068016811
:102EA00041F480710160134600224FF00111204669
:102EB000009600F05DF840B120680068C00502D5BA
:102EC0004FF4007020640320F8BD2069B0F5804FF6
:102ED0000ED00620216800EAD51040F0F00008610D
:102EE00033463A460B49204600F08AF878B902E0AA
:102EF00005F0FE0000E0E8B22168086105493346AC
:102F00003A46891F204600F07BF80028DCD00120DB
:102F1000F8BD00000800010070B516460D460446D5
:102F20001EE02046FFF71CFF08B1012070BD681CA1
:102F300016D0FEF775FF801BA84200D885B920681F
:102F40004069C04340070BD5002044F8300F2021D2
:102F50006173A073216941F0200121612073E4E7CE
:102F600020684069C0434007DBD4002070BD0000EA
:102F70002DE9F047984617460D460446C1F307462B
:102F8000DDF820902AE000BFB8F1FF3F26D0FEF721
:102F900047FFA0EB0901414502D8B8F1000F1DD150
:102FA0002068012E16D0806925EA00000004000C7C
:102FB00012D00020B84211D1002044F8300F202157
:102FC0006173A073216941F0200121612073012008
:102FD000BDE8F0874069E7E70120EBE72068012EB4
:102FE0000AD0806925EA00000004000C06D0002009
:102FF000B842C9D00020EBE74069F3E70120F7E7CA
:103000002DE9F047984616460D4604464FF0000954
:103010004FF0200AC1F3074723E020684069C0430E
:10302000400515D42068016841F4007101602168F1
:103030006FF480604861C4F8309084F83DA084F853
:103040003E90216C41F00401216484F83C9021E021
:10305000701C06D0FEF7E4FEA0EB0800B04203D8D7
:1030600016B1012F1FD021E02068012F15D08069F3
:1030700025EA00000004000C18D000BF44F8309F7F
:1030800084F80DA084F80E90216941F0200121619F
:1030900084F80C900120BDE8F087406925EA000023
:1030A0000004000CEAD12068406901E020688069D2
:1030B00025EA00000004000CAFD1ECE72DE9F04157
:1030C000002590460E460446202728E04069C0436C
:1030D000C0060CD454F8301B6FF01000486144F85F
:1030E00010596777A577206A2062257714E0FEF7EC
:1030F00097FEA0EB0800B04200D886B9206840696E
:10310000C04340060BD544F8305F6773A573206950
:1031100040F02000206125730120BDE8F081206887
:103120004169C9434906D1D40020F6E770B5164677
:103130000D4604461EE02046FFF712FE08B10120AE
:1031400070BD681C16D0FEF76BFE801BA84200D82D
:1031500085B920684069C04300060BD5002044F8BB
:10316000300F20216173A073216941F0200121619A
:103170002073E4E720684069C0430006DBD40020E8
:1031800070BD00002DE9F05F044602684248816886
:10319000551885606168C3680B44C3600188491C89
:1031A00089B20180192974D3B5FBF1F6B3FBF1F7AD
:1031B00041683A4D8346A2EB010A4FF07E584260C7
:1031C0007EB1304602F0EAF88146384602F0E6F871
:1031D000494601F0CDFF404501DD404602E0A842EE
:1031E00000DA284601F036FF00222D4B01F008FDE1
:1031F00000222C4B01F038FE01F02CFA0746E0606B
:1032000041F288300025864230D9301A02F0C6F8E3
:10321000254901F0ADFF4146DFF89080064688421F
:1032200001DD0E4602E0464500D30026504601F07F
:1032300093FC00221E4B01F0FBFA81468A46304681
:1032400001F008FF00221B4B01F0DAFC00221A4BB0
:1032500001F032FA4A46534601F02EFA01F0FAF92B
:103260001649A060884203DDA16004E0A56009E082
:10327000404500D3A5601248874201DDE06002E0CE
:10328000474500D3E560CBF80850CBF80C50ABF8BD
:103290000050BDE8F09F0000140000209A99993E6C
:1032A0000000394000805B400050434700008080B0
:1032B00000408F400000444000004E400000344376
:1032C0000000C84208B500210091B1EBC00F01D247
:1032D000491CF9E708BD000070B500F0F5F90E4C87
:1032E0000122D1022046FEF796FD0220FFF7EAFFF9
:1032F0000122950229462046FEF78DFD0520FFF7A5
:10330000E1FF002229462046FEF785FDBDE870401A
:103310000220FFF7D7BF0000000C014010B50446A3
:1033200000F0C8F8AE2000F095F800F00BF9204648
:1033300000F090F800F006F900F0BCF8AF2000F0C3
:1033400089F800F0FFF800F055F80446FFF7C4FFD5
:1033500000F0D8F8204610BD2DE9F0471546894603
:10336000044600F0A7F8AE2000F074F800F0EAF888
:10337000204600F06FF800F0E5F800F09BF8AF2071
:1033800000F068F800F0DEF800246E1E4FF4006ACA
:10339000174F4FF4806824E000F02CF809F804007F
:1033A000B4421ADA00F090F9002251463846FEF78E
:1033B00032FD0220FFF786FF012241463846FEF724
:1033C0002AFD0520FFF77EFF002241463846FEF722
:1033D00022FD0220FFF776FF01E0FFF77DFF641C6E
:1033E000E4B2AC42D8D3BDE8F04700F08BB800009F
:1033F000000C01402DE9F041002400F055F9144E75
:1034000000254FF400684FF480676006040E012227
:1034100039463046FEF7FFFC0520FFF753FF4146D3
:103420003046FEF7F3FC012801D144F001040022EC
:1034300039463046FEF7EFFC0220FFF743FF6D1CD4
:10344000EDB2082DE1D300F03FF92046BDE8F08150
:10345000000C01402DE9F041054600F035F9144F0C
:1034600000244FF400683E15280601D5012200E033
:10347000002241463846FEF7CEFC0220FFF722FF2D
:10348000012231463846FEF7C6FC0520FFF71AFF39
:10349000002231463846FEF7BEFC0220FFF712FF3D
:1034A0006806641C050EE4B2082CDDD3BDE8F0818B
:1034B000000C014070B500F007F90122104DD40254
:1034C00021462846FEF7A7FC0122960231462846EF
:1034D000FEF7A1FC0520FFF7F5FE00222146284655
:1034E000FEF799FC0520FFF7EDFE00223146284645
:1034F000FEF791FCBDE870400520FFF7E3BE000039
:10350000000C014070B500F0DFF80D4D4FF4006481
:10351000002221462846FEF77EFC01229102284621
:10352000FEF779FC0520FFF7CDFE01222146284653
:10353000FEF771FCBDE870400520FFF7C3BE000038
:10354000000C014070B5002400F0AEF80220FFF737
:10355000B9FE01220D4D960231462846FEF75BFC6E
:103560000520FFF7AFFEE9142846FEF74FFC0128BF
:1035700000D10124002231462846FEF74CFC0220EF
:10358000FFF7A0FE00F0A0F8204670BD000C01403F
:1035900070B50D460446FFF78DFFAE20FFF75AFFCA
:1035A000FFF7D0FF2046FFF755FFFFF7CBFF284678
:1035B000FFF750FFFFF7C6FFBDE87040FFF7A2BF5F
:1035C00010B500F081F800F064F86420FEF70EFBFF
:1035D00000210220FFF7DCFF00210320FFF7D8FFC6
:1035E00000210420FFF7D4FF50210820FFF7D0FF6F
:1035F00043210A20FFF7CCFF6F210C20FFF7C8FF03
:103600006F210D20FFF7C4FF032000F06DF8BDE827
:1036100010406420FEF7EABA7CB505460220FFF7A9
:103620007DFE04460420FFF779FE844201D3201A70
:1036300002E0C0F120002044C6B2002421E00622AE
:1036400069460520FFF788FE9DF800009DF80110EF
:103650008007800B40EA01209DF802100843286093
:103660009DF803009DF804108007800B40EA0120BC
:103670009DF80510084368602846FFF783FD641C29
:10368000E4B2B442DBD3002E02D12846FFF77AFD24
:103690007CBD10B540210920FFF77AFFBDE810403E
:1036A0006420FEF7A3BA00001FB50020019003902C
:1036B0004FF4006000900120029069460148FEF737
:1036C000B5FA1FBD000C01401FB54FF4006000901B
:1036D0000120019002900320039069460148FEF703
:1036E000A5FA1FBD000C014001460920FFF750BF9D
:1036F00010B56420FEF77AFA00216B2000F090F8F4
:103700006420FEF773FA0721192000F089F80621DA
:103710001A2000F085F818211B2000F081F8012103
:103720001C2000F07DF8BDE810406420FEF75EBA72
:103730001FB504460E2269463B2000F035F8BDF85F
:10374000000040BA2080BDF8020040BA6080BDF899
:10375000040040BAA080BDF8060040BA00B201F0F3
:10376000FBF900220B4B01F063F80B4A0B4B00F006
:10377000A3FF00F06FFFE060BDF8080040BAE080F2
:10378000BDF80A0040BA2081BDF80C0040BA608143
:103790001FBD000000407540A4703D0AD743424061
:1037A000752000F01FB80000F7B582B00B4D6424FF
:1037B000009428780F4616464100012302AA0848C3
:1037C000FEF720FD00942878012101EB40013346EB
:1037D0003A460348FEF7EEFB05B0F0BD240000209A
:1037E0006400002031B582B00B4D64240094287829
:1037F0000123410002AA0948FEF704FD009428783D
:10380000012101EB4001012301AA0448FEF7D2FB8C
:103810009DF804003EBD000024000020640000204C
:103820001CB502238DF804006420009004488DF834
:10383000051001AA007841000248FEF7E3FC1CBD18
:1038400024000020640000202DE9F04385B0002012
:1038500000900190029003903748816941F0100177
:103860008161816901F010010491816941F02001B9
:103870008161816901F020010491816941F00401B5
:103880008161816901F004010491816941F00801BD
:1038900081618069294F00F008004FF46044049072
:1038A000012221463846FEF7B6FADFF8948001225D
:1038B00003214046FEF7AFFADFF888904FF44066E8
:1038C000012231464846FEF7A6FA0094012403255A
:1038D000694638460194CDE90245FEF7A7F9CDE9DE
:1038E000005469464046CDE90245FEF79FF94FF482
:1038F000817000901448CDE9010469464846FEF7FE
:1039000095F9CDE9006469464846CDE90245FEF7E0
:103910008DF9002201210720FEF79EFD0720FEF70A
:103920008DFD002211461720FEF796FD1720FEF7A9
:1039300085FD05B0BDE8F083001002400010014095
:1039400000080140000C0140000021100D4810B596
:103950000B4901600C49416000214FF480428160B5
:10396000C0E9031241618161C1610162FEF75EFA43
:10397000002803D0BDE81040FDF7B3BF10BD000024
:103980000054004064000020A08601000C4810B5DF
:103990000A4901604FF416514160002181600C22F8
:1039A000C160C0E904128161C161FFF73FF90028DD
:1039B00003D0BDE81040FDF794BF10BD00380140B2
:1039C000B8000020FEE7FEE730B40021084B0A46AD
:1039D0005FF0000003EBC004401CC0B262548028BA
:1039E000F8D3491CC9B20829F2D330BC00F0A8B8FA
:1039F0000001002030B5CC0801F0070301259D40EF
:103A0000EBB2064D05EBC005C808285C0AB11843A7
:103A100002E063EA0000C043285530BD00010020E9
:103A200070B5424D4FF40044002221462846FEF76F
:103A3000F2F9C820FEF7DAF8012221462846FEF7FF
:103A4000EAF90021AE2000F069F90021084600F0F3
:103A500065F90021102000F061F90021402000F0FC
:103A60005DF90021812000F059F90021CF2000F0FC
:103A700055F90021A12000F051F90021C82000F0E3
:103A80004DF90021A62000F049F90021A82000F0FE
:103A900045F900213F2000F041F90021D32000F03A
:103AA0003DF90021084600F039F90021D52000F049
:103AB00035F90021802000F031F90021D92000F0F3
:103AC0002DF90021F12000F029F90021DA2000F081
:103AD00025F90021122000F021F90021DB2000F05F
:103AE0001DF90021402000F019F90021202000F0EC
:103AF00015F90021022000F011F900218D2000F0BD
:103B00000DF90021142000F009F90021A42000F093
:103B100005F90021A62000F001F9FFF755FFBDE8E7
:103B200070400021AF2000F0F9B800000010014003
:103B30000246012000E05043491EC9B2FBD2704743
:103B400070B5114E002400BF04F1B000C0B20021D6
:103B500000F0E4F80021084600F0E0F80021102011
:103B600000F0DCF85FF0000506EBC5000121005D08
:103B700000F0D4F86D1CEDB2802DF5D3641CE4B2D6
:103B8000082CE1D370BD0000000100202DE9FC4F9E
:103B90001C460E4682468B460190082B0DD06007CE
:103BA00000D0012000EBD40061084843C0B2814638
:103BB000203AD0B2009000204BE00620F7E7082C16
:103BC00013D00C2C18D0102C1BD0182C44D10098DA
:103BD000234900EBC00000BF01EB8001002711F872
:103BE0000850E80712D00B9A13E000981D4900EB2B
:103BF000400001EB4001F1E700981B4900EB400059
:103C0000EAE71A49009801EB0011E7E70B9828B39F
:103C1000002231465046FFF7EDFE761C7F1C6D08F2
:103C2000FFB2F6B2082FDCD30AF1010000F0FF0A60
:103C3000082C0AD00199AAEB0100B0EB540F04D173
:103C40000BF108008A4600F0FF0B08F101005E4608
:103C5000C0B280464845B2D3BDE8FC8F0122D8E708
:103C60001264000886570008AE590008225E00085A
:103C70002DE9F84F0025DDE90A691F4692468B467B
:103C80008046082E00D1022500241CE0381B401E6F
:103C9000C1B20A20FFF74CFFBAFBF0F00A21B0FBDB
:103CA000F1F201FB1200CDF8009080B13030C2B2C9
:103CB00005EB560101FB0480C0B233465946FFF7BD
:103CC00065FF641CE4B2BC42E0D3BDE8F88F05EBAD
:103CD000560101FB0480C0B233463022EEE72DE9E5
:103CE000F8411E46154688460446079F0BE03346BA
:103CF000414620460097FFF749FF082E0AD004EB03
:103D00005600C4B26D1C2A78A2F120005E28EED9BC
:103D1000BDE8F881A41DE4B2F4E700002DE9F04706
:103D20001D4C054609B1012200E000220121204678
:103D3000FEF771F800220221A0462046FEF76BF83C
:103D4000164F00244FF480494FF4005600223146AC
:103D50003846FEF760F8280601D5012200E000226F
:103D600049463846FEF757F8012231463846FEF7F5
:103D700052F86806641C050EE4B2082CE6D3012252
:103D8000022144464046FEF746F82046BDE8F0478B
:103D900001221146FEF73FB8000801400010014023
:103DA00070477047FEF7F2BA30B58FB028216846E9
:103DB000FCF78FFA14210AA8FCF78BFA01210804FA
:103DC000CDE900100024029402250491CDE90750AA
:103DD0004FF4E01009906846FEF74CFC08B172B64B
:103DE000FEE70F20CDE90A054FF48060CDE90C40D5
:103DF00002210AA80E94FEF761FB002801D072B6DA
:103E0000FEE70FB030BD704710B5406A0021C18594
:103E1000C184FEF7D4FD10BD01680C3151E8002FBC
:103E200022F4907241E80023002BF5D1016814318F
:103E300051E8002F22F0010241E80023002BF5D1C8
:103E4000016B012909D101680C3151E8002F22F0E2
:103E5000100241E80023002BF5D1202180F8421008
:103E600000210163704708B590F84210222901D063
:103E7000022008BD82684FF480539A4201D1016943
:103E800021B1816A9A421BD04AB10AE00268816A74
:103E90005268C2F308020A80816A891C08E002693C
:103EA00072B10268526802F07F020A70816A491C8E
:103EB0008162C18D491E0904090CC18503D01BE034
:103EC00002685268F1E70168CA6822F02002CA60FD
:103ED0000168CA6822F48072CA6001684A6922F0E7
:103EE00001024A61202180F8421000214163026BE7
:103EF000012A03D0FEF71AFF002008BD0163016804
:103F00000C3151E8002F22F0100241E80023002B71
:103F1000F5D101680A68D20602D50A68496800919D
:103F2000818DFEF74BFDE7E770B504460068016937
:103F3000E26821F44051114301612169A0680843FE
:103F4000616908432168CA6841F20C639A430243DD
:103F5000CA6020684169A26921F44071114341613E
:103F60001E492068884202D1FEF74EFB01E0FEF7B1
:103F70003BFB00EBC00101EB001260686421800094
:103F8000B2FBF0F3B3FBF1F36FF018067343B2FB2F
:103F9000F0F5B2FBF0F605EB8305322303EB0515D4
:103FA000B5FBF1F5B6FBF1F605F0F00505EB0615EE
:103FB000B2FBF0F6B2FBF0F0B0FBF1F06FF01802DC
:103FC000504306EB800003EB0010B0FBF1F02168DA
:103FD00000F00F002844886070BD000000380140E8
:103FE00081628285C28500214164222180F84210CD
:103FF000016921B10168CA6842F48072CA6001682F
:104000004A6942F001024A610068C16841F020013A
:10401000C1600020704700000148FEF7D1BC0000DD
:10402000B8000020FEE70907090E002804DB00F1B4
:10403000E02080F80014704700F00F0000F1E0204D
:1040400080F8141D704740F2013200204FF0E0412B
:1040500001F038BB024A0020110701F033BB000019
:1040600001FDFFFF10B50446D1E9000100F002F8A0
:10407000206010BDF8B504460D466A4600F080F891
:1040800000987E30009000281EDC00221346204657
:10409000294600F025FD17D0002140F608004FF01A
:1040A000000006462046294600F0D4FA044640F6B1
:1040B000080006EA00014FF0000034F0004004BFA1
:1040C0000220FCF73AF929E00098FF2828DB0021BC
:1040D00008464FF0000000F4400600221346204638
:1040E000294600F08BFE8CBF002501250220FCF73D
:1040F00024F94FF0FF4446B1002D0CBF4FF40000EF
:104100004FF48000B04218BF084C042108464FF01D
:104110000000002D04BF84F00040F8BD2046F8BD2B
:1041200020462946BDE8F84000F094BAFFFF7F7FA3
:1041300010B504460A46D4E90003194600F04CF8CD
:10414000C4E9000110BD30380A2801D201207047AF
:104150000020704730B583B00446FCF7E9F8054607
:104160000020CDE90000024621466846FCF70AF926
:104170002846FCF7E2F8DDE9000103B030BD00009D
:1041800010B5144600222260114A21F000439342E8
:10419000A8BF10BD53EA000208BF10BDB3F5801FD1
:1041A000A8BF226807DA362201F08CFA6FF03502D8
:1041B00021F000432260DFF81CC06FF31E510CEBAE
:1041C00023531A4441F0FF5141F00051226010BDC9
:1041D0000000F07F02FCFFFF2DE9F04106460C468F
:1041E00040F2FF75174635EA14502BD000221346D3
:1041F000304600F075FC25D03A463046214601F0A5
:1042000061FA06460C4635EA145010D000221346D7
:10421000304600F065FC15D10220FCF78EF8FFF760
:1042200019FF0A46214662F31E01BDE8F081022013
:10423000FCF783F8FFF707FF0A46214662F31E01E9
:10424000BDE8F08130462146BDE8F0811CB5FEF79F
:10425000A5F8FFF7A9FDFFF7F7FAFFF777FBFFF7E0
:1042600095FBFFF7DDFBFFF7ABF9FFF741FAFFF72F
:1042700097FA0546FFF7A8FB012400210823BFA2F7
:1042800008460094FFF72BFD0826CDE900640223C1
:104290002A4600215020FFF7EBFCFFF751FC4FF4BA
:1042A000FA70FDF7A3FCFDF733FB0122B649B748CE
:1042B000FEF72EFDDFF8D882DFF8D8B2B146B64857
:1042C000FFF7AAF9B4481030FFF732FAB2482030AD
:1042D000FDF70AFBAC4D6D1E2878002841D0FFF792
:1042E00073FB002028700823ACA201460094FFF75E
:1042F000F6FC0823AAA2002148200094FFF7EFFC57
:104300000823A9A2194600200094FFF7E8FC08231F
:10431000A6A2102100200094FFF7E1FC0823A4A22C
:10432000182100200094FFF7DAFC0823A2A218212C
:1043300050200094FFF7D3FC0823A1A220210020E5
:104340000094FFF7CCFC08239FA2282100200094B2
:10435000FFF7C5FC08239EA2002180200094FFF7F0
:10436000BEFC8D4D4FF40006A868B0420FDB00F094
:10437000DDFFCDE900940246032300211820FFF75A
:1043800077FC0823002193A23020009404E0082346
:1043900091A2002118200094FFF7A1FCE868B04228
:1043A0000ADB00F0C3FFCDE900940246032300219D
:1043B0006820FFF75DFC06E0082387A20021682043
:1043C0000094FFF78CFC744E642710364D46B6F906
:1043D0000000CDE9009490FBF7F2022308211020A1
:1043E000FFF746FCB6F90200CDE9005490FBF7F266
:1043F000022308213020FFF73BFCB6F90400CDE989
:10440000005490FBF7F2022308215020FFF730FC04
:10441000B6F90600CDE9005490FBF7F21021022313
:104420000846FFF725FCB6F90800CDE9005490FBDB
:10443000F7F2022310213020FFF71AFCB6F90A0028
:10444000CDE9005490FBF7F2022310215020FFF732
:104450000FFC10364FF00803F07A009408B15FA209
:1044600000E060A218212020FFF739FCCDE90054BC
:104470002F46327B022318217020FFF7F9FB3068AA
:104480004FF008034045009405D2202157A208466A
:10449000FFF725FC08E0202155A20846FFF71FFC86
:1044A000306880F0004030603568284600F022FF18
:1044B000824600F05BFF294601F050F8594600F0B3
:1044C00081FF00F017FFCDE9007405460223524634
:1044D00020213020FFF7CCFB08232E222021402072
:1044E0000094FFF753FBCDE9007404232A462021F2
:1044F0004820FFF7BDFB70684FF00803404500946B
:1045000005D23CA228212020FFF7E9FB08E03AA2CF
:1045100028212020FFF7E3FB706880F000407060E6
:104520007568284600F0E6FE064600F01FFF2946A3
:1045300001F014F8594600F045FF00F0DBFECDE92C
:10454000007405460323324628213020FFF790FBF4
:1045500008232E22282148200094FFF717FBCDE9DD
:10456000007404232A4628215020FFF781FBFFF71F
:10457000E7FA4FF4FA70FDF739FBA0E64D505536D7
:104580003035302049443A0001000020B8000020B6
:104590000000808000401C462C00002048523A0059
:1045A00053704F323A000000413A0000473A000091
:1045B0004750533A00000000536174733A00000002
:1045C0004C61743A000000004C6F6E3A000000002D
:1045D0002500000042504D002D2D2D0056616C69C4
:1045E00064000000496E76616C6964004E20000032
:1045F00053200000452000005720000010B500297E
:104600000AD00878002807D005487844FCF71AFB40
:10461000002801D0002010BD0248784410BD0000E1
:10462000523000004A30000010B500290AD0087846
:10463000002807D005487844FCF704FB002801D087
:10464000002010BD0248784410BD00004230000038
:104650003A30000021F00042A2F16052B2F5801F12
:1046600001F0004328BFD2F17F6C0BD95FEA001C38
:1046700043EAC20242EB507018BF704728BF20F0D7
:1046800001007047B2F5801FBCBF184670474FEA63
:10469000410C1CF5001F02D2084600F05ABF70B54D
:1046A00000F058FB00000089FFF7F6BF4FF0004014
:1046B000A0F580007047000010B591EA030F48BFD5
:1046C00083F0004300F1E483841A71EB030C05D2FC
:1046D000121943EB0C03001B61EB0C01DFF824E122
:1046E0004FEA1154A4EB135C1EEA430F18BF9EEA75
:1046F000445F73D023EA0E03DCF1200E21EA04515B
:1047000043F4801332D322FA0CFE10EB0E0023FA8E
:104710000CFE41EB0E01CCF1200E03FA0EFE10EB65
:104720000E0051F10001B1F5801FCCF1200E32D204
:1047300001EB045112FA0EF2BDE8104058BF704769
:10474000401C38BF5FEA420218BF7047002814BF00
:1047500020F0010041F100014FEA410313F5001F71
:1047600038BF7047A1F1C04100F042BB012A43EBC2
:104770000302ACF1200CDCF11F0E32BF4FF0000E33
:1047800023FA0CF310EB030041EB0451B4EB115F7F
:10479000D0D0A1EB045101F5801149085FEA300047
:1047A00001EB04510ED350F1000038BF12FA0EFE97
:1047B00008D1BDE81040C9E7401C38BF5FEA42029B
:1047C000CAD1C3E7BDE810404FEA410313F5001F0B
:1047D00038BF7047A1F1C04100F00ABB9EEA445FB8
:1047E00008D011EA5E0FBDE8104004BF01F000419F
:1047F00000207047BDE8104070B500F0ABFA00BF74
:1048000064FBBE3E0000E0FF02494FF0000000F0F4
:1048100027BF00BF0000F87F491058BFC1F14041D9
:104820005B1058BFC3F140438B42EFF300807047E9
:104830002DE9C04130B4DFF8A0C23CEA111418BF22
:104840003CEA131400F0EC8081EA03051CEA111421
:1048500044EAD57418BF1CEA131500F0C780A4EB16
:1048600005044FF0004545EAC12145EAC32341EA6A
:10487000505143EA525304F17F74994204F50034D5
:104880004FEAC0204FEAC22208BF904200F09C804D
:104890004FEA13650FF24016765D4FEA134506FBAB
:1048A00005F7C7F1807706FB07F74FEAD737A7FB75
:1048B00003687642C8F58038A7FB06CE38BFA8F15A
:1048C000010807FB08E64FF0000EA6FB028CE6FB92
:1048D00003CEDCF1000CCEF1004E38BFAEF1010E7C
:1048E000A6FB0C584FF000074FF00005E6FB0E87C3
:1048F000A1FB08C6A0FB07CE16EB0E0645F100058E
:10490000E1FB076515F1E04E7EBFA4F580345FEA58
:1049100046066D4116F1800745F100054FEA17275D
:104920004FEA066647EA0567A6F1DE46B6F1805F04
:104930004FEA15251FD9384624F0010C05EBC47148
:10494000BCF1FE6F01EB0C1102D8F0BCBDE8008198
:1049500024425CBF01F5801E9EEAC47F02D4F0BCF5
:10496000BDE80081244238D4F0BCA1F1C041BDE8CB
:10497000004100F03DBA4FEAD22242EA43524FEAE8
:10498000D323A7FB02864FEAD02040EA415007FB21
:1049900003661EEA0E0F4FEAD12105FB026658BFDF
:1049A000A6EB0056B6EB00564FEA520E4EEAC37E17
:1049B00018EB0E0E56EB530EBDD518EB02085E41F8
:1049C0007F1C55F10005B6E74FF480154FF0000746
:1049D0004FF000064FF00008ADE7F0BC4FF00000CC
:1049E00001F1C04101F00041BDE8008111EA0C1F56
:1049F0000CEA131500D00CE013EA0C1F00F0258020
:104A00004FF00000F0BC81EA030101F00041BDE875
:104A10000081F0BCBDE8004181EA030100F0E8B983
:104A2000F0BCBDE8004170B500F094F9097EFC3E91
:104A300000F007B881EA03014FF0000001F00041E7
:104A4000704781EA030100F0D3B9F0BCBDE8004132
:104A50004FF0000021497047FFFDFBF9F7F5F4F234
:104A6000F0EEEDEBE9E8E6E4E3E1E0DEDDDBDAD809
:104A7000D7D5D4D3D1D0CFCDCCCBCAC8C7C6C5C467
:104A8000C2C1C0BFBEBDBCBBBAB9B8B7B6B5B4B37E
:104A9000B2B1B0AFAEADACABAAA9A8A8A7A6A5A469
:104AA000A3A3A2A1A09F9F9E9D9C9C9B9A9999982D
:104AB0009797969595949393929191908F8F8E8ED0
:104AC0008D8C8C8B8B8A898988888787868585845D
:104AD00084838382828181800000FF070000F87F49
:104AE00051EA030C17D41CF5801F58BFBCF5801F7A
:104AF00000F10680994218BF704708BF9042704786
:104B000007D711F5801F58BF13F5801F19D499429C
:104B10007047894270471CF5801F08D5BCF5801F7F
:104B2000F7D58B4218BF704708BF824270474FF4D9
:104B3000001C1CEB410F38BF1CEB430F01D28B4212
:104B4000704770B500F006F9922449004FF000510B
:104B50004FF08053FFF760BE10F0004248BF404264
:104B6000B0FA80F310FA03F10AD0C3F11D0303F584
:104B700080634FEA415002EB035202EBD1217047B0
:104B80004FF000007047000051EA030C17D41CF5E9
:104B9000801F58BFBCF5801F00F10680994218BFE6
:104BA000704708BF9042704707D711F5801F58BF64
:104BB00013F5801F19D499427047894270471CF53C
:104BC000801F08D5BCF5801FF7D58B4218BF7047F2
:104BD00008BF824270474FF4001C1CEB410F38BFE6
:104BE0001CEB430F01D28B42704770B500F0B2F856
:104BF000922449004FF000514FF08053FFF70CBE54
:104C0000DFF848C170B51CEA111E1EBF1CEA13155F
:104C10009EEA0C0F95EA0C0F00F06F8081EA030406
:104C200023EA4C134EEAD47E21EA4C1141F4801160
:104C300043F48013AE44A1FB024CA0FB0365AEF12C
:104C40007F7E361955EB0C05A1FB034C4CF100039C
:104C5000A0FB021C16EB0C06654153F10003094250
:104C600018BF46F0010613F4007F0BD14FEA033161
:104C70004FEA0530340341EA155140EA16506FF00F
:104C800003020AE04FEAC3214FEAC520F40241EAD9
:104C9000555140EA56506FF0020202EB2E4201EBF2
:104CA000025585EACE710AD05FEA440C18BF24F0A1
:104CB000004450F1000041F1000120EAD47040F2BC
:104CC000FE7C624500D270BDA84214BF4FF0804404
:104CD0004FF04044002E08BF0024BEF1806FA8BFF3
:104CE000A1F1C041BDE8704080F282804FF0000029
:104CF00001F1C04101F0004170479EEA0C0F0CEA3F
:104D0000131518BF95EA0C0F06D04FF0000081EA8A
:104D1000030E0EF0004170BD00F01CF88900013E4A
:104D200000F007B800F009B84FEA430C5FEA5C5C9A
:104D300008D081EA030100F05BB84FEA410C5FEA5A
:104D40005C5CF6D14FF00000014970470000FF079E
:104D50000000F87F0EF1020E2EF0030E5EF8046BD9
:104D6000364205D4012A43EB030515F5001F12D87E
:104D7000012841EB010C1CF5001F0CD80ED14FEAA5
:104D8000D17C15F5001F0CEB4C0C0CF1020C08BF8C
:104D90004CEBD37C04E04FF0080C01E04FEAD37CED
:104DA0000CEB4C0526FA05F606F00706B6F1040CE6
:104DB00006D20EEB860CBDE870404CF0010C60474B
:104DC000DFE80CF0090B02024FF000414FF0000049
:104DD000A1F5002170BD19461046012851EB0104D0
:104DE00018BFD4F5001484BF002001F0004170BD4D
:104DF0000808A0F500114FEA3101704753EA010C91
:104E000017D41CF5801F58BFBCF5801F00F1068029
:104E10008B4218BF704708BF8242704707D713F50F
:104E2000801F58BF11F5801F19D48B4270479B42D9
:104E300070471CF5801F08D5BCF5801FF7D5994237
:104E400018BF704708BF904270474FF4001C1CEB1E
:104E5000430F38BF1CEB410F01D2994270470FB48A
:104E60000CBC03BCFFF7C1BE91EA030F10B581F083
:104E700000413FF529AC83F0004300F009B8000081
:104E800010B591EA030F48BF83F000433FF51CAC17
:104E9000841A71EB030C07D212198CF0004C43EB0F
:104EA0000C03001B61EB0C01DFF8A4E14FEA115485
:104EB000A4EB135C1EEA430F18BF9EEA445F00F0A8
:104EC000B08023EA6E03524221EA0451C3EB6E0321
:104ED00038BF5B1EDCF1200E25D322FA0CFE10EB4E
:104EE0000E0043FA0CFE41EB0E01CCF1200E03FA4A
:104EF0000EFE10EB0E0051F10001CCF1200E29D472
:104F000012FA0EF201EB0451BDE8104058BF704791
:104F1000401C1CBFB2F1004F704700280CBF491C59
:104F200020F00100704712EB020E43EB030218BFA2
:104F30004FF0010E4EEA4202ACF1200CDCF11E0EE5
:104F400054D943FA0CFE10EB0E0051F1FF31CCF1B5
:104F50001E0ED5D50EF1010E12FA0EFE404141EBA8
:104F6000010101EB445C5FEA5C5C10D910EBDE7080
:104F700001EB045138BFBEF1004FBDE8104018BF2F
:104F8000704700280CBF491C20F00100704730D248
:104F90004FEAD42C11F5001124F400641BD0B1FAAF
:104FA00081F20B3AA41AA41ED2F12003914030FAE8
:104FB00003F31943904001EBCC71002C01EB045139
:104FC000BDE81040A8BF704701F1C0414FF000009C
:104FD00001F000417047B0FA80F310FA03F100D1FC
:104FE00010BDE41A173C4805C90AE4E701EB045177
:104FF00010BD491001EB0451BDE810404FEA3000EC
:1050000002E04FF0000170474A0008BF0042F8D0AC
:10501000B2F5001F28BF704701F000414FF00000BB
:1050200070479EEA445F07D011EA5E0FBDE810406A
:1050300004BF002100207047BDE8104070B5FFF7A5
:1050400089FE00BF40DFF63E83F000411046704706
:105050000000E0FF43004FEAD30C4FEA3C0C434012
:105060001FBF40070CF1605113F0FE4F70471CF05A
:10507000006F03D100200CF0004170470CF000439A
:1050800043EA507010B540EACC0000F01CFA00BFB3
:10509000000000924FEA0001FFF7AABE4FF0004166
:1050A0004FF00000A1F500217047000090EA010FC9
:1050B00048BF81F0004100F16282421A3CBF801A71
:1050C00089184FEAD0524FF07F4C1CEA410FA2EBF7
:1050D000D15318BF9CEA026F00F03B804FF0004CA8
:1050E0004CEA00204CEA012121FA03FC10EB0C0CE5
:1050F0001ED202F1FF325FEA1C2040EBC25038BFE3
:1051000070471CF07F0F4FEA400C18BFBCF17F4F77
:1051100038BF7047C3F12003994008BF20F0010059
:10512000BCF17F4F38BF7047A0F1C04000F011BA0A
:105130004FEA3C00000A40EBC25028BF1CF0FF0FB2
:105140004FEA400CE6D018BFBCF17F4F38BF704724
:10515000EAE79CEA026F05D010EA5C0F08BF00F096
:105160000040704710B500F0AEF900BF64FBBE3ED2
:105170004FF47F0C1CEAD0121EBF1CEAD11392EA36
:105180000C0F93EA0C0F00F0858090EA010F48BFE6
:1051900042F4807240F4000C41F400002CF07F4196
:1051A00020F07F4000B58142A2EB03020FF2081C01
:1051B000ACEB504EC0F100009EF800E04FEA4E0EFE
:1051C00000FB0EFC38BF49004FEA2C1C02F5FA0226
:1051D0000CFB0EF34FEACE1E4FEA112C4FEAC12111
:1051E0000EEB635E42EB22420EFB0CFC4FEA1C53BB
:1051F00000FB03114FEA112C4FEA01310EFB0CFCAE
:105200004FEADC4C00FB0C11C14228BF09184CEBE3
:1052100003335DF804EB10EB410143EBC250B2F5F0
:105220007C0F38BF704729D512F0F00F1CBF00F17A
:10523000C04000F0004070470081828384858687EB
:1052400088898B8C8D8E8F919293959697999A9C45
:105250009D9FA0A2A3A5A7A8AAACAEB0B2B3B5B7B4
:10526000B9BCBEC0C2C5C7C9CCCED1D4D7D9DCDF8A
:10527000E2E6E9ECF0F3F7FAFE0000004FEA400C3A
:105280000CF1807CBCF17E4F28BF7047B0F1C0406C
:1052900000F05FB990EA010F0CEAD11348BF42F465
:1052A0008072624538BF634507D213F47F0F16D072
:1052B00080EA010000F00040704710B500F003F9EB
:1052C000097EFC3E00F005B880EA010000F00040D5
:1052D000704780EA010000F0004000F03AB912F493
:1052E0007F0F04BF0248704780EA010000F031B927
:1052F0000000C07F41000B0ED3F19E0208D950F48C
:1053000000034FEA032323FA02F048BF40427047EC
:1053100010B500F0D8F800BF4992248000207047F3
:105320006FF0004282EA200070470000C10DD1F109
:105330009E0206DB4FEA002343F0004323FA02F00B
:105340007047004207D54FEA4001B1F1FE4F02D24B
:105350004FF00000704710B500F0B5F84992248076
:10536000002070476FEA20007047000010F00041F5
:1053700048BF4042B0FA80F310FA03F2C3F19D0334
:105380000BD051EAC35101EB1220530638BF7047CE
:1053900000F1010008BF20F001007047B0FA80F36F
:1053A00010FA03F2C3F19D030AD0D90501EB1220D4
:1053B000530638BF704700F1010008BF20F001001C
:1053C000704700004FF47F0C1CEAD0121EBF1CEA8D
:1053D000D11392EA0C0F93EA0C0F00F0478090EA89
:1053E000010F48BF42F480724FF0004C4CEA00209D
:1053F0004CEA012102EB0302A0FB0113A2F500021B
:10540000002918BF43F001035B0028BF4FEA3303B4
:1054100042EB22425FEA132C4CEBC2502EBFBCEB96
:10542000436FB2F57C0F70474FEA036CBCF1004F3D
:1054300008BF20F00100B2F57C0F38BF70470BD5D4
:1054400082F0FF0212F5803FC8BF704700F1C040F4
:10545000D8BF00F00040704700F5000C5FEA4C0C2C
:1054600048BF7047B0F1C04000F073B890EA010F38
:105470000CEAD11348BF42F48072624538BF6345DD
:1054800004D280EA010000F00040704710B500F03F
:105490001AF800BF8900013E00F007B800F009B813
:1054A0005FEA410C5FEA1C6C08D080EA010000F062
:1054B00050B85FEA400C5FEA1C6CF6D14FF0004038
:1054C000A0F5800070470EF1020E2EF0030E5EF87C
:1054D000044B244204D44FEA4102B2F17F4F11D869
:1054E0004FEA4003B3F17F4F0CD80ED14FEAD07C86
:1054F000B2F17F4F0CEB4C0C0CF1020C08BF4CEBE3
:10550000D17C04E04FF0080C01E04FEAD17C0CEBB9
:105510004C0324FA03F404F00704B4F1040C06D29B
:105520000EEB840CBDE810404CF0010C6047DFE846
:105530000CF0070802024FF00040A0F5800010BDFB
:105540000846420018BFD2F1807288BF00F00040C8
:1055500010BDFF2141EAD050C005704780F00040E7
:1055600090EA010F7FF5A9AD81F0004100F007B886
:1055700090EA010F48BF81F000413FF59EAD421A0D
:1055800004D882F00042A0EB020011444FEAD0524E
:105590004FF07F4C1CEA410FA2EBD15318BF9CEA9D
:1055A000026F4AD04FF0004C4CEA00204CEA012137
:1055B00021FA03FCB0EB0C0C0FD412F0FE0F36D026
:1055C0005FEA4C001DD5001240EBC25038BF704757
:1055D0001CF03F0F18BF70470BE0A2F101025FEA19
:1055E0001C2040EBC25038BF70471CF07F0F18BF23
:1055F0007047C3F12003994014BF401E20F0010002
:10560000704780084FEA122308BF7047B0FA80FC49
:10561000A2EB0C02CCF1280C60FA0CF093EA122FEA
:1056200004BF00EBC25070474FEAC3707047130AC3
:105630005FEADC1008BF7047F6E79CEA026F04D00F
:1056400010EA5C0F08BF0020704710B5FFF73BFF62
:1056500040DFF63E81F0004070474FF00000704799
:105660000CF00F03092B08BF082000F05F800A2B05
:105670000BD0082B18BF704708BF1CF0400F0AD092
:105680004FF000004FF0000170471CF0400F18BFB2
:105690004FF0004070471CF0100F08D020F070430E
:1056A00000F07F4242EAD3014FEA4370704700F0B6
:1056B000604021F07F4242EA000201F07F4040EA70
:1056C000727070474FF0FF0C4CF4E06C1CEA115301
:1056D0001CBF9CEA030C9445C2BFDA4201EB0251A5
:1056E0007047002B0DD0BCF1000F0FD0002A01F045
:1056F0000041A4BF41F0E04141F07F614FF0000064
:10570000704701F000414FF00000704750EA01334C
:105710004FF09B0C18BF4CF0806C7FF475A870475D
:10572000FBF730B9FBF7CEBAFBF75CBC1CF4801F6B
:1057300011D01CF4E02F03D06FEACC314900704740
:105740004FF04050EFF3008222F0704242EA000234
:1057500082F3008870474FF0000070470102020397
:105760000405060708090A0B0C0D0E0F10100000A7
:105770000000000000000102030406070809000001
:105780000000010203040000000000000000002FE0
:10579000000000000700070000147F147F1400249D
:1057A0002A7F2A12006264081323003649552250CA
:1057B00000000503000000001C22410000004122FF
:1057C0001C000014083E08140008083E08080000E9
:1057D00000A06000000808080808000060600000E1
:1057E000002010080402003E5149453E0000427F5F
:1057F0004000004261514946002141454B310018AB
:1058000014127F10002745454539003C4A4949306C
:105810000001710905030036494949360006494926
:10582000291E000036360000000056360000000831
:10583000142241000014141414140000412214080E
:1058400000020151090600324959513E007C1211F3
:10585000127C007F49494936003E41414122007F88
:105860004141221C007F49494941007F0909090142
:10587000003E4149497A007F0808087F0000417FC7
:105880004100002040413F01007F08142241007F79
:1058900040404040007F020C027F007F0408107FE0
:1058A000003E4141413E007F09090906003E415149
:1058B000215E007F09192946004649494931000106
:1058C000017F0101003F4040403F001F2040201F5A
:1058D000003F4038403F006314081463000708701D
:1058E000080700615149454300007F4141000055D0
:1058F0002A552A55000041417F000004020102049C
:105900000040404040400000010204000020545488
:105910005478007F484444380038444444200038D8
:105920004444487F00385454541800087E0901024A
:105930000018A4A4A47C007F080404780000447D1F
:105940004000004080847D00007F1028440000005B
:10595000417F4000007C04180478007C080404782F
:1059600000384444443800FC24242418001824241B
:1059700018FC007C08040408004854545420000417
:105980003F444020003C4040207C001C2040201C24
:10599000003C4030403C004428102844001CA0A09B
:1059A000A07C004464544C441414141414140000D7
:1059B000000000000000000000000000FC000000EB
:1059C000000002000000000C020C020000000000B9
:1059D000000090D0BCD0BC9000030003000018244D
:1059E000FE448C000302070201001824D8B04C804A
:1059F000000300010201C038E438E00001020201A6
:105A00000202080600000000000000000000000084
:105A100000F80402000000010204000204F8000083
:105A20000004020100009060F86090000000010096
:105A300000002020FC2020000000010000000000E9
:105A400000000000080600000000202020202000A8
:105A50000000000000000000000000000002000044
:105A600000000080601C0200040300000000F80435
:105A70000404F8000102020201000008FC0000001A
:105A800000020302000018844424180003020202EA
:105A9000020008042424D80001020202010040B0E0
:105AA00088FC80000000000302003C242424C40081
:105AB000010202020100F824242CC00001020202AB
:105AC00001000C04E41C0400000003000000D824C2
:105AD0002424D80001020202010038444444F800A2
